{
  "_format": "hh-sol-artifact-1",
  "contractName": "ABTToken",
  "sourceName": "contracts/ERC4973/ABTToken.sol",
  "abi": [
    {
      "inputs": [
        {
          "internalType": "string",
          "name": "name",
          "type": "string"
        },
        {
          "internalType": "string",
          "name": "symbol",
          "type": "string"
        },
        {
          "internalType": "address",
          "name": "minter",
          "type": "address"
        },
        {
          "internalType": "address",
          "name": "eoa",
          "type": "address"
        }
      ],
      "stateMutability": "nonpayable",
      "type": "constructor"
    },
    {
      "inputs": [],
      "name": "InvalidShortString",
      "type": "error"
    },
    {
      "inputs": [
        {
          "internalType": "string",
          "name": "str",
          "type": "string"
        }
      ],
      "name": "StringTooLong",
      "type": "error"
    },
    {
      "anonymous": false,
      "inputs": [],
      "name": "EIP712DomainChanged",
      "type": "event"
    },
    {
      "anonymous": false,
      "inputs": [
        {
          "indexed": true,
          "internalType": "address",
          "name": "from",
          "type": "address"
        },
        {
          "indexed": true,
          "internalType": "address",
          "name": "to",
          "type": "address"
        },
        {
          "indexed": true,
          "internalType": "uint256",
          "name": "tokenId",
          "type": "uint256"
        }
      ],
      "name": "Transfer",
      "type": "event"
    },
    {
      "inputs": [
        {
          "internalType": "address",
          "name": "owner",
          "type": "address"
        }
      ],
      "name": "balanceOf",
      "outputs": [
        {
          "internalType": "uint256",
          "name": "",
          "type": "uint256"
        }
      ],
      "stateMutability": "view",
      "type": "function"
    },
    {
      "inputs": [
        {
          "internalType": "address",
          "name": "to",
          "type": "address"
        },
        {
          "internalType": "string",
          "name": "uri",
          "type": "string"
        },
        {
          "internalType": "bytes",
          "name": "signature",
          "type": "bytes"
        }
      ],
      "name": "cancelRequest",
      "outputs": [
        {
          "internalType": "uint256",
          "name": "",
          "type": "uint256"
        }
      ],
      "stateMutability": "nonpayable",
      "type": "function"
    },
    {
      "inputs": [],
      "name": "eip712Domain",
      "outputs": [
        {
          "internalType": "bytes1",
          "name": "fields",
          "type": "bytes1"
        },
        {
          "internalType": "string",
          "name": "name",
          "type": "string"
        },
        {
          "internalType": "string",
          "name": "version",
          "type": "string"
        },
        {
          "internalType": "uint256",
          "name": "chainId",
          "type": "uint256"
        },
        {
          "internalType": "address",
          "name": "verifyingContract",
          "type": "address"
        },
        {
          "internalType": "bytes32",
          "name": "salt",
          "type": "bytes32"
        },
        {
          "internalType": "uint256[]",
          "name": "extensions",
          "type": "uint256[]"
        }
      ],
      "stateMutability": "view",
      "type": "function"
    },
    {
      "inputs": [
        {
          "internalType": "address",
          "name": "from",
          "type": "address"
        },
        {
          "internalType": "address",
          "name": "to",
          "type": "address"
        },
        {
          "internalType": "string",
          "name": "tokenURI",
          "type": "string"
        }
      ],
      "name": "getHash",
      "outputs": [
        {
          "internalType": "bytes32",
          "name": "",
          "type": "bytes32"
        }
      ],
      "stateMutability": "view",
      "type": "function"
    },
    {
      "inputs": [
        {
          "internalType": "address",
          "name": "to",
          "type": "address"
        },
        {
          "internalType": "string",
          "name": "uri",
          "type": "string"
        },
        {
          "internalType": "bytes",
          "name": "signature",
          "type": "bytes"
        }
      ],
      "name": "give",
      "outputs": [
        {
          "internalType": "uint256",
          "name": "",
          "type": "uint256"
        }
      ],
      "stateMutability": "nonpayable",
      "type": "function"
    },
    {
      "inputs": [
        {
          "internalType": "address",
          "name": "active",
          "type": "address"
        },
        {
          "internalType": "address",
          "name": "passive",
          "type": "address"
        },
        {
          "internalType": "string",
          "name": "uri",
          "type": "string"
        }
      ],
      "name": "isUsed",
      "outputs": [
        {
          "internalType": "bool",
          "name": "",
          "type": "bool"
        }
      ],
      "stateMutability": "view",
      "type": "function"
    },
    {
      "inputs": [
        {
          "internalType": "address",
          "name": "to",
          "type": "address"
        },
        {
          "internalType": "uint256",
          "name": "tokenId",
          "type": "uint256"
        },
        {
          "internalType": "string",
          "name": "uri",
          "type": "string"
        }
      ],
      "name": "mint",
      "outputs": [
        {
          "internalType": "uint256",
          "name": "",
          "type": "uint256"
        }
      ],
      "stateMutability": "nonpayable",
      "type": "function"
    },
    {
      "inputs": [],
      "name": "minter",
      "outputs": [
        {
          "internalType": "address",
          "name": "",
          "type": "address"
        }
      ],
      "stateMutability": "view",
      "type": "function"
    },
    {
      "inputs": [
        {
          "internalType": "uint256",
          "name": "tokenId",
          "type": "uint256"
        }
      ],
      "name": "minterOf",
      "outputs": [
        {
          "internalType": "address",
          "name": "",
          "type": "address"
        }
      ],
      "stateMutability": "view",
      "type": "function"
    },
    {
      "inputs": [],
      "name": "name",
      "outputs": [
        {
          "internalType": "string",
          "name": "",
          "type": "string"
        }
      ],
      "stateMutability": "view",
      "type": "function"
    },
    {
      "inputs": [],
      "name": "nextTokenId",
      "outputs": [
        {
          "internalType": "uint256",
          "name": "",
          "type": "uint256"
        }
      ],
      "stateMutability": "view",
      "type": "function"
    },
    {
      "inputs": [
        {
          "internalType": "uint256",
          "name": "tokenId",
          "type": "uint256"
        }
      ],
      "name": "ownerOf",
      "outputs": [
        {
          "internalType": "address",
          "name": "",
          "type": "address"
        }
      ],
      "stateMutability": "view",
      "type": "function"
    },
    {
      "inputs": [
        {
          "internalType": "address",
          "name": "from",
          "type": "address"
        },
        {
          "internalType": "string",
          "name": "uri",
          "type": "string"
        },
        {
          "internalType": "bytes",
          "name": "signature",
          "type": "bytes"
        }
      ],
      "name": "revoke",
      "outputs": [
        {
          "internalType": "uint256",
          "name": "",
          "type": "uint256"
        }
      ],
      "stateMutability": "nonpayable",
      "type": "function"
    },
    {
      "inputs": [
        {
          "internalType": "address",
          "name": "account",
          "type": "address"
        },
        {
          "internalType": "address",
          "name": "eoa",
          "type": "address"
        }
      ],
      "name": "setEOA",
      "outputs": [],
      "stateMutability": "nonpayable",
      "type": "function"
    },
    {
      "inputs": [
        {
          "internalType": "bytes4",
          "name": "interfaceId",
          "type": "bytes4"
        }
      ],
      "name": "supportsInterface",
      "outputs": [
        {
          "internalType": "bool",
          "name": "",
          "type": "bool"
        }
      ],
      "stateMutability": "view",
      "type": "function"
    },
    {
      "inputs": [],
      "name": "symbol",
      "outputs": [
        {
          "internalType": "string",
          "name": "",
          "type": "string"
        }
      ],
      "stateMutability": "view",
      "type": "function"
    },
    {
      "inputs": [
        {
          "internalType": "address",
          "name": "from",
          "type": "address"
        },
        {
          "internalType": "string",
          "name": "uri",
          "type": "string"
        },
        {
          "internalType": "bytes",
          "name": "signature",
          "type": "bytes"
        }
      ],
      "name": "take",
      "outputs": [
        {
          "internalType": "uint256",
          "name": "",
          "type": "uint256"
        }
      ],
      "stateMutability": "nonpayable",
      "type": "function"
    },
    {
      "inputs": [
        {
          "internalType": "uint256",
          "name": "index",
          "type": "uint256"
        }
      ],
      "name": "tokenByIndex",
      "outputs": [
        {
          "internalType": "uint256",
          "name": "",
          "type": "uint256"
        }
      ],
      "stateMutability": "view",
      "type": "function"
    },
    {
      "inputs": [
        {
          "internalType": "address",
          "name": "owner",
          "type": "address"
        },
        {
          "internalType": "uint256",
          "name": "index",
          "type": "uint256"
        }
      ],
      "name": "tokenOfOwnerByIndex",
      "outputs": [
        {
          "internalType": "uint256",
          "name": "",
          "type": "uint256"
        }
      ],
      "stateMutability": "view",
      "type": "function"
    },
    {
      "inputs": [
        {
          "internalType": "uint256",
          "name": "tokenId",
          "type": "uint256"
        }
      ],
      "name": "tokenURI",
      "outputs": [
        {
          "internalType": "string",
          "name": "",
          "type": "string"
        }
      ],
      "stateMutability": "view",
      "type": "function"
    },
    {
      "inputs": [],
      "name": "totalSupply",
      "outputs": [
        {
          "internalType": "uint256",
          "name": "",
          "type": "uint256"
        }
      ],
      "stateMutability": "view",
      "type": "function"
    },
    {
      "inputs": [
        {
          "internalType": "uint256",
          "name": "tokenId",
          "type": "uint256"
        }
      ],
      "name": "unequip",
      "outputs": [],
      "stateMutability": "nonpayable",
      "type": "function"
    }
  ],
  "bytecode": "0x610160604052348015610010575f80fd5b5060405161296f38038061296f83398101604081905261002f916102c6565b6040805180820190915260038152620312e360ec1b6020820152849084908484848361005b825f610179565b6101205261006a816001610179565b61014052815160208084019190912060e052815190820120610100524660a0526100f660e05161010051604080517f8b73c3c69bb8fe3d512ecc4cf759cc79239f7b179b0ffacaa9a75d522b39400f60208201529081019290925260608201524660808201523060a08201525f9060c00160405160208183030381529060405280519060200120905090565b60805250503060c052600461010b86826103c9565b50600561011885826103c9565b50600e8054600680546001600160a01b039586166001600160a01b03199182168117909255600780549091169490951693841790945561ffff191692151561ff0019169290921761010091151591909102179055506104dd95505050505050565b5f6020835110156101945761018d836101ab565b90506101a5565b8161019f84826103c9565b5060ff90505b92915050565b5f80829050601f815111156101de578260405163305a27a960e01b81526004016101d59190610488565b60405180910390fd5b80516101e9826104ba565b179392505050565b634e487b7160e01b5f52604160045260245ffd5b5f5b8381101561021f578181015183820152602001610207565b50505f910152565b5f82601f830112610236575f80fd5b81516001600160401b0380821115610250576102506101f1565b604051601f8301601f19908116603f01168101908282118183101715610278576102786101f1565b81604052838152866020858801011115610290575f80fd5b6102a1846020830160208901610205565b9695505050505050565b80516001600160a01b03811681146102c1575f80fd5b919050565b5f805f80608085870312156102d9575f80fd5b84516001600160401b03808211156102ef575f80fd5b6102fb88838901610227565b95506020870151915080821115610310575f80fd5b5061031d87828801610227565b93505061032c604086016102ab565b915061033a606086016102ab565b905092959194509250565b600181811c9082168061035957607f821691505b60208210810361037757634e487b7160e01b5f52602260045260245ffd5b50919050565b601f8211156103c457805f5260205f20601f840160051c810160208510156103a25750805b601f840160051c820191505b818110156103c1575f81556001016103ae565b50505b505050565b81516001600160401b038111156103e2576103e26101f1565b6103f6816103f08454610345565b8461037d565b602080601f831160018114610429575f84156104125750858301515b5f19600386901b1c1916600185901b178555610480565b5f85815260208120601f198616915b8281101561045757888601518255948401946001909101908401610438565b508582101561047457878501515f19600388901b60f8161c191681555b505060018460011b0185555b505050505050565b602081525f82518060208401526104a6816040850160208701610205565b601f01601f19169190910160400192915050565b80516020808301519190811015610377575f1960209190910360031b1b16919050565b60805160a05160c05160e05161010051610120516101405161244161052e5f395f6108ad01525f61088301525f611d7e01525f611d5601525f611cb101525f611cdb01525f611d0501526124415ff3fe608060405234801561000f575f80fd5b506004361061013d575f3560e01c806395d89b41116100b4578063c87b56dd11610079578063c87b56dd1461028a578063d179e3d01461029d578063d3fc9864146102b2578063e9ff21d2146102c5578063ec64948e146102d8578063ee3213db146102eb575f80fd5b806395d89b41146102365780639e942ace1461023e578063a394780314610251578063a492298e14610264578063c5cf33c214610277575f80fd5b80632f745c59116101055780632f745c59146101c75780634f6ccce7146101da5780636352211e146101ed57806370a082311461020057806375794a3c1461021357806384b0196e1461021b575f80fd5b806301ffc9a71461014157806306fdde0314610169578063075461721461017e578063102868c21461019e57806318160ddd146101bf575b5f80fd5b61015461014f366004611e37565b6102fe565b60405190151581526020015b60405180910390f35b61017161030e565b6040516101609190611eb2565b61018661039e565b6040516001600160a01b039091168152602001610160565b6101b16101ac366004611f24565b61041d565b604051908152602001610160565b6011546101b1565b6101b16101d5366004611f9f565b61064d565b6101b16101e8366004611fc7565b6106e1565b6101866101fb366004611fc7565b610771565b6101b161020e366004611fde565b6107d5565b6101b161085c565b610223610876565b6040516101609796959493929190611ff7565b6101716108fc565b61018661024c366004611fc7565b61090b565b6101b161025f366004611f24565b61099d565b61015461027236600461208e565b610ba8565b6101b161028536600461208e565b610bdd565b610171610298366004611fc7565b610bf3565b6102b06102ab366004611fc7565b610cf4565b005b6101b16102c03660046120eb565b610dc7565b6101b16102d3366004611f24565b610e08565b6101b16102e6366004611f24565b611015565b6102b06102f9366004612129565b611211565b5f610308826112a5565b92915050565b60606004805461031d9061215a565b80601f01602080910402602001604051908101604052809291908181526020018280546103499061215a565b80156103945780601f1061036b57610100808354040283529160200191610394565b820191905f5260205f20905b81548152906001019060200180831161037757829003601f168201915b5050505050905090565b600e545f9060ff1615806103bc57506006546001600160a01b031615155b61040d5760405162461bcd60e51b815260206004820152601b60248201527f6d696e7465723a20746f6b656e20646f65736e2774206578697374000000000060448201526064015b60405180910390fd5b506006546001600160a01b031690565b600e545f9060ff16158061043b57506006546001600160a01b031633145b61049e5760405162461bcd60e51b815260206004820152602e60248201527f7265766f6b653a2063616e206f6e6c7920626520646f6e65206279206465706c60448201526d1bde5b595b9d081858d8dbdd5b9d60921b6064820152608401610404565b5f6104ad8733888888886112c9565b90506104bd600280546001019055565b5f6104c760025490565b5f818152600d60205260409020839055600e5490915060ff168061050d57505f818152600d6020908152604080832054835260089091529020546001600160a01b031633145b61056c5760405162461bcd60e51b815260206004820152602a60248201527f7265766f6b653a2063616e206f6e6c7920626520646f6e65206279206d696e74604482015269195c881858d8dbdd5b9d60b21b6064820152608401610404565b600882901c5f90815260036020526040902054600160ff84161b16156105e25760405162461bcd60e51b815260206004820152602560248201527f6d696e743a20746f6b656e20616c7265616479206d696e746564206f722072656044820152641d9bdad95960da1b6064820152608401610404565b6106225f8289898080601f0160208091040260200160405190810160405280939291908181526020018383808284375f9201919091525061165d92505050565b50600882901c5f9081526003602052604090208054600160ff85161b1790555b979650505050505050565b5f610657836107d5565b82106106b95760405162461bcd60e51b815260206004820152602b60248201527f455243373231456e756d657261626c653a206f776e657220696e646578206f7560448201526a74206f6620626f756e647360a81b6064820152608401610404565b506001600160a01b03919091165f908152600f60209081526040808320938352929052205490565b5f6106eb60115490565b821061074e5760405162461bcd60e51b815260206004820152602c60248201527f455243373231456e756d657261626c653a20676c6f62616c20696e646578206f60448201526b7574206f6620626f756e647360a01b6064820152608401610404565b6011828154811061076157610761612192565b905f5260205f2001549050919050565b5f818152600a60205260408120546001600160a01b0316806103085760405162461bcd60e51b815260206004820152601c60248201527f6f776e65724f663a20746f6b656e20646f65736e2774206578697374000000006044820152606401610404565b5f6001600160a01b0382166108415760405162461bcd60e51b815260206004820152602c60248201527f62616c616e63654f663a2061646472657373207a65726f206973206e6f74206160448201526b103b30b634b21037bbb732b960a11b6064820152608401610404565b506001600160a01b03165f908152600c602052604090205490565b5f61086660025490565b6108719060016121ba565b905090565b5f606080828080836108a87f000000000000000000000000000000000000000000000000000000000000000083611706565b6108d37f00000000000000000000000000000000000000000000000000000000000000006001611706565b604080515f80825260208201909252600f60f81b9b939a50919850469750309650945092509050565b60606005805461031d9061215a565b600e545f9060ff168061094057505f828152600d6020908152604080832054835260089091529020546001600160a01b031615155b61098c5760405162461bcd60e51b815260206004820152601b60248201527f6d696e7465723a20746f6b656e20646f65736e277420657869737400000000006044820152606401610404565b50506006546001600160a01b031690565b600e545f9060ff1615806109be57506006546001600160a01b038781169116145b610a185760405162461bcd60e51b815260206004820152602560248201527f74616b653a206d7573742062652066726f6d206465706c6f796d656e7420616360448201526418dbdd5b9d60da1b6064820152608401610404565b6001600160a01b0386163303610a705760405162461bcd60e51b815260206004820152601b60248201527f74616b653a2063616e6e6f742074616b652066726f6d2073656c6600000000006044820152606401610404565b5f610a7f3388888888886112c9565b9050610a8f600280546001019055565b5f610a9960025490565b5f818152600d60209081526040808320869055600886901c83526003909152902054909150600160ff84161b1615610b135760405162461bcd60e51b815260206004820152601a60248201527f6d696e743a20746f6b656e20616c7265616479206d696e7465640000000000006044820152606401610404565b610b53338289898080601f0160208091040260200160405190810160405280939291908181526020018383808284375f9201919091525061165d92505050565b50600e5460ff16610b85575f82815260086020526040902080546001600160a01b0319166001600160a01b038a161790555b600882901c5f9081526003602052604090208054600160ff85161b179055610642565b5f80610bb6868686866117af565b600881901c5f908152600360205260409020549091508190600160ff83161b161515610642565b5f610bea858585856117af565b95945050505050565b5f818152600a60205260409020546060906001600160a01b0316610c595760405162461bcd60e51b815260206004820152601d60248201527f746f6b656e5552493a20746f6b656e20646f65736e27742065786973740000006044820152606401610404565b5f828152600b602052604090208054610c719061215a565b80601f0160208091040260200160405190810160405280929190818152602001828054610c9d9061215a565b8015610ce85780601f10610cbf57610100808354040283529160200191610ce8565b820191905f5260205f20905b815481529060010190602001808311610ccb57829003601f168201915b50505050509050919050565b610cfd81610771565b6001600160a01b0316336001600160a01b03161480610d2657506006546001600160a01b031633145b80610d5357505f818152600d6020908152604080832054835260089091529020546001600160a01b031633145b610dbb5760405162461bcd60e51b815260206004820152603360248201527f756e65717569703a2073656e646572206d757374206265206f776e6572206f726044820152720819195c1b1bde5b595b9d081858d8dbdd5b9d606a1b6064820152608401610404565b610dc48161195a565b50565b5f610bea858585858080601f0160208091040260200160405190810160405280939291908181526020018383808284375f9201919091525061165d92505050565b600e545f9060ff161580610e2657506006546001600160a01b031633145b610e905760405162461bcd60e51b815260206004820152603560248201527f63616e63656c526571756573743a2063616e206f6e6c7920626520646f6e6520604482015274189e4819195c1b1bde5b595b9d081858d8dbdd5b9d605a1b6064820152608401610404565b5f610e9f3388888888886112c9565b600e5490915060ff1680610ec857505f818152600860205260409020546001600160a01b031633145b610f2e5760405162461bcd60e51b815260206004820152603160248201527f63616e63656c526571756573743a2063616e206f6e6c7920626520646f6e6520604482015270189e481b5a5b9d195c881858d8dbdd5b9d607a1b6064820152608401610404565b600881901c5f90815260036020526040902054600160ff83161b1615610fad5760405162461bcd60e51b815260206004820152602e60248201527f63616e63656c526571756573743a20746f6b656e20616c7265616479206d696e60448201526d1d1959081bdc881c995d9bdad95960921b6064820152608401610404565b610fbb600280546001019055565b5f610fc560025490565b5f818152600d602090815260408083208690558051601f8b018390048302810183019091528981529293506106229284918b908b90819084018382808284375f9201919091525061165d92505050565b600e545f9060ff16158061103357506006546001600160a01b031633145b61108e5760405162461bcd60e51b815260206004820152602660248201527f676976653a206f6e6c79206465706c6f796d656e74206163636f756e742063616044820152656e206769766560d01b6064820152608401610404565b6001600160a01b03861633036110e65760405162461bcd60e51b815260206004820152601b60248201527f676976653a2063616e6e6f7420676976652066726f6d2073656c6600000000006044820152606401610404565b5f6110f53388888888886112c9565b9050611105600280546001019055565b5f61110f60025490565b5f818152600d60209081526040808320869055600886901c83526003909152902054909150600160ff84161b16156111895760405162461bcd60e51b815260206004820152601a60248201527f6d696e743a20746f6b656e20616c7265616479206d696e7465640000000000006044820152606401610404565b6111c9888289898080601f0160208091040260200160405190810160405280939291908181526020018383808284375f9201919091525061165d92505050565b50600e5460ff16610b85575f82815260086020818152604080842080546001600160a01b031916331790559185901c83526003905290208054600160ff85161b179055610642565b6006546001600160a01b0316158061123357506006546001600160a01b031633145b6112785760405162461bcd60e51b81526020600482015260166024820152751cd95d1153d04e88139bdd08185d5d1a1bdc9a5cd95960521b6044820152606401610404565b6001600160a01b039182165f90815260096020526040902080546001600160a01b03191691909216179055565b5f6001600160e01b0319821663780e9d6360e01b14806103085750610308826119ff565b5f6113096040518060400160405280601e81526020017f5f73616665436865636b41677265656d656e743a20616374697665203d20000081525088611a4e565b6113486040518060400160405280601f81526020017f5f73616665436865636b41677265656d656e743a2070617373697665203d200081525087611a4e565b6113bc6040518060400160405280601b81526020017f5f73616665436865636b41677265656d656e743a20757269203d20000000000081525086868080601f0160208091040260200160405190810160405280939291908181526020018383808284375f92019190915250611a9792505050565b5f6113c9888888886117af565b90505f815f1c90506113f360405180606001604052806022815260200161239f6022913982611adc565b5f6040518060400160405280601c81526020017f19457468657265756d205369676e6564204d6573736167653a0a33320000000081525090505f81846040516020016114409291906121e1565b6040516020818303038152906040528051906020012090505f6114988289898080601f0160208091040260200160405190810160405280939291908181526020018383808284375f92019190915250611b2192505050565b90506114bc6040518060600160405280602881526020016123c16028913982611a4e565b6001600160a01b038b81165f908152600960205260408120549091166114ed576007546001600160a01b0316611508565b6001600160a01b03808d165f90815260096020526040902054165b905061152c6040518060600160405280602381526020016123e96023913982611a4e565b806001600160a01b0316611575848b8b8080601f0160208091040260200160405190810160405280939291908181526020018383808284375f92019190915250611b2192505050565b6001600160a01b0316146115da5760405162461bcd60e51b815260206004820152602660248201527f5f73616665436865636b41677265656d656e743a20696e76616c6964207369676044820152656e617475726560d01b6064820152608401610404565b600885901c5f90815260036020526040902054600160ff87161b161561164c5760405162461bcd60e51b815260206004820152602160248201527f5f73616665436865636b41677265656d656e743a20616c7265616479207573656044820152601960fa1b6064820152608401610404565b50929b9a5050505050505050505050565b6001600160a01b0383165f908152600c6020526040812080546001919083906116879084906121ba565b90915550505f838152600a6020908152604080832080546001600160a01b0319166001600160a01b038916179055600b90915290206116c6838261224e565b5060405183906001600160a01b038616905f907fddf252ad1be2c89b69c2b068fc378daa952ba7f163c4a11628f55a4df523b3ef908290a4509092915050565b606060ff83146117205761171983611b9b565b9050610308565b81805461172c9061215a565b80601f01602080910402602001604051908101604052809291908181526020018280546117589061215a565b80156117a35780601f1061177a576101008083540402835291602001916117a3565b820191905f5260205f20905b81548152906001019060200180831161178657829003601f168201915b50505050509050610308565b5f6117e56040518060400160405280601381526020017202fb3b2ba2430b9b41d1030b1ba34bb32901e9606d1b81525086611a4e565b61181b6040518060400160405280601481526020017302fb3b2ba2430b9b41d103830b9b9b4bb32901e960651b81525085611a4e565b6118886040518060400160405280601681526020017502fb3b2ba2430b9b41d103a37b5b2b72aa924af901e960551b81525084848080601f0160208091040260200160405190810160405280939291908181526020018383808284375f92019190915250611a9792505050565b5f7fe76a195fbe43f0eaa611595069f780493db2202a1cc4b2d7d44b47069812998a868686866040516118bc92919061230e565b6040519081900381206118f4949392916020019384526001600160a01b03928316602085015291166040830152606082015260800190565b60408051601f198184030181528282528051602091820120838301909252601783527f5f676574486173683a2073747275637448617368203d200000000000000000009083015291506119479082611adc565b61195081611bd8565b9695505050505050565b5f61196482610771565b6001600160a01b0381165f908152600c60205260408120805492935060019290919061199190849061231d565b90915550505f828152600a6020908152604080832080546001600160a01b0319169055600b90915281206119c491611ded565b60405182905f906001600160a01b038416907fddf252ad1be2c89b69c2b068fc378daa952ba7f163c4a11628f55a4df523b3ef908390a45050565b5f6001600160e01b03198216635b5e139f60e01b1480611a2f57506001600160e01b031982166346bdd63960e11b145b8061030857506301ffc9a760e01b6001600160e01b0319831614610308565b611a938282604051602401611a64929190612330565b60408051601f198184030181529190526020810180516001600160e01b031663319af33360e01b179052611c04565b5050565b611a938282604051602401611aad929190612359565b60408051601f198184030181529190526020810180516001600160e01b0316634b5c427760e01b179052611c04565b611a938282604051602401611af292919061237d565b60408051601f198184030181529190526020810180516001600160e01b0316632d839cb360e21b179052611c04565b5f805f80611b2e85611c0d565b604080515f8152602081018083528b905260ff8316918101919091526060810184905260808101839052929550909350915060019060a0016020604051602081039080840390855afa158015611b86573d5f803e3d5ffd5b5050604051601f190151979650505050505050565b60605f611ba783611c7e565b6040805160208082528183019092529192505f91906020820181803683375050509182525060208101929092525090565b5f610308611be4611ca5565b8360405161190160f01b8152600281019290925260228201526042902090565b610dc481611dce565b5f805f8351604114611c615760405162461bcd60e51b815260206004820152601860248201527f696e76616c6964207369676e6174757265206c656e67746800000000000000006044820152606401610404565b5050506020810151604082015160609092015190925f9190911a90565b5f60ff8216601f81111561030857604051632cd44ac360e21b815260040160405180910390fd5b5f306001600160a01b037f000000000000000000000000000000000000000000000000000000000000000016148015611cfd57507f000000000000000000000000000000000000000000000000000000000000000046145b15611d2757507f000000000000000000000000000000000000000000000000000000000000000090565b610871604080517f8b73c3c69bb8fe3d512ecc4cf759cc79239f7b179b0ffacaa9a75d522b39400f60208201527f0000000000000000000000000000000000000000000000000000000000000000918101919091527f000000000000000000000000000000000000000000000000000000000000000060608201524660808201523060a08201525f9060c00160405160208183030381529060405280519060200120905090565b5f6a636f6e736f6c652e6c6f6790505f80835160208501845afa505050565b508054611df99061215a565b5f825580601f10611e08575050565b601f0160209004905f5260205f2090810190610dc491905b80821115611e33575f8155600101611e20565b5090565b5f60208284031215611e47575f80fd5b81356001600160e01b031981168114611e5e575f80fd5b9392505050565b5f5b83811015611e7f578181015183820152602001611e67565b50505f910152565b5f8151808452611e9e816020860160208601611e65565b601f01601f19169290920160200192915050565b602081525f611e5e6020830184611e87565b80356001600160a01b0381168114611eda575f80fd5b919050565b5f8083601f840112611eef575f80fd5b50813567ffffffffffffffff811115611f06575f80fd5b602083019150836020828501011115611f1d575f80fd5b9250929050565b5f805f805f60608688031215611f38575f80fd5b611f4186611ec4565b9450602086013567ffffffffffffffff80821115611f5d575f80fd5b611f6989838a01611edf565b90965094506040880135915080821115611f81575f80fd5b50611f8e88828901611edf565b969995985093965092949392505050565b5f8060408385031215611fb0575f80fd5b611fb983611ec4565b946020939093013593505050565b5f60208284031215611fd7575f80fd5b5035919050565b5f60208284031215611fee575f80fd5b611e5e82611ec4565b60ff60f81b881681525f602060e0602084015261201760e084018a611e87565b8381036040850152612029818a611e87565b606085018990526001600160a01b038816608086015260a0850187905284810360c0860152855180825260208088019350909101905f5b8181101561207c57835183529284019291840191600101612060565b50909c9b505050505050505050505050565b5f805f80606085870312156120a1575f80fd5b6120aa85611ec4565b93506120b860208601611ec4565b9250604085013567ffffffffffffffff8111156120d3575f80fd5b6120df87828801611edf565b95989497509550505050565b5f805f80606085870312156120fe575f80fd5b61210785611ec4565b935060208501359250604085013567ffffffffffffffff8111156120d3575f80fd5b5f806040838503121561213a575f80fd5b61214383611ec4565b915061215160208401611ec4565b90509250929050565b600181811c9082168061216e57607f821691505b60208210810361218c57634e487b7160e01b5f52602260045260245ffd5b50919050565b634e487b7160e01b5f52603260045260245ffd5b634e487b7160e01b5f52601160045260245ffd5b80820180821115610308576103086121a6565b634e487b7160e01b5f52604160045260245ffd5b5f83516121f2818460208801611e65565b9190910191825250602001919050565b601f82111561224957805f5260205f20601f840160051c810160208510156122275750805b601f840160051c820191505b81811015612246575f8155600101612233565b50505b505050565b815167ffffffffffffffff811115612268576122686121cd565b61227c81612276845461215a565b84612202565b602080601f8311600181146122af575f84156122985750858301515b5f19600386901b1c1916600185901b178555612306565b5f85815260208120601f198616915b828110156122dd578886015182559484019460019091019084016122be565b50858210156122fa57878501515f19600388901b60f8161c191681555b505060018460011b0185555b505050505050565b818382375f9101908152919050565b81810381811115610308576103086121a6565b604081525f6123426040830185611e87565b905060018060a01b03831660208301529392505050565b604081525f61236b6040830185611e87565b8281036020840152610bea8185611e87565b604081525f61238f6040830185611e87565b9050826020830152939250505056fe5f73616665436865636b41677265656d656e743a206861736820696e646578203d205f73616665436865636b41677265656d656e743a207265636f766572656441646472657373203d205f73616665436865636b41677265656d656e743a207265736f6c766564454f41203d20a2646970667358221220692842c2c4a5e4af6196ebeb28f9345d8e79d5542569f10b21af2dbbd5d20b9c64736f6c63430008190033",
  "linkReferences": {},
  "deployedLinkReferences": {}
}