{
  "_format": "hh-sol-artifact-1",
  "contractName": "FNFTMarketSaleFacet",
  "sourceName": "contracts/FNFTMarketSaleFacet.sol",
  "abi": [
    {
      "anonymous": false,
      "inputs": [
        {
          "indexed": false,
          "internalType": "string",
          "name": "message",
          "type": "string"
        }
      ],
      "name": "ConsoleLog",
      "type": "event"
    },
    {
      "anonymous": false,
      "inputs": [
        {
          "indexed": false,
          "internalType": "string",
          "name": "message",
          "type": "string"
        },
        {
          "indexed": false,
          "internalType": "address",
          "name": "value",
          "type": "address"
        }
      ],
      "name": "ConsoleLogAddress",
      "type": "event"
    },
    {
      "anonymous": false,
      "inputs": [
        {
          "indexed": false,
          "internalType": "string",
          "name": "message",
          "type": "string"
        },
        {
          "indexed": false,
          "internalType": "string",
          "name": "value",
          "type": "string"
        }
      ],
      "name": "ConsoleLogString",
      "type": "event"
    },
    {
      "anonymous": false,
      "inputs": [
        {
          "indexed": false,
          "internalType": "string",
          "name": "message",
          "type": "string"
        },
        {
          "indexed": false,
          "internalType": "uint256",
          "name": "value",
          "type": "uint256"
        }
      ],
      "name": "ConsoleLogUint256",
      "type": "event"
    },
    {
      "anonymous": false,
      "inputs": [
        {
          "indexed": false,
          "internalType": "bool",
          "name": "exist",
          "type": "bool"
        }
      ],
      "name": "EVInitializeFNFTMarketSaleFacet",
      "type": "event"
    },
    {
      "anonymous": false,
      "inputs": [
        {
          "indexed": false,
          "internalType": "uint8",
          "name": "version",
          "type": "uint8"
        }
      ],
      "name": "Initialized",
      "type": "event"
    },
    {
      "anonymous": false,
      "inputs": [
        {
          "indexed": true,
          "internalType": "uint256",
          "name": "itemId",
          "type": "uint256"
        },
        {
          "indexed": true,
          "internalType": "address",
          "name": "fnftToken",
          "type": "address"
        },
        {
          "indexed": true,
          "internalType": "uint256",
          "name": "tokenId",
          "type": "uint256"
        },
        {
          "components": [
            {
              "internalType": "uint256",
              "name": "itemId",
              "type": "uint256"
            },
            {
              "internalType": "address",
              "name": "fnftToken",
              "type": "address"
            },
            {
              "internalType": "address",
              "name": "baseToken",
              "type": "address"
            },
            {
              "internalType": "uint256",
              "name": "tokenId",
              "type": "uint256"
            },
            {
              "internalType": "address",
              "name": "seller",
              "type": "address"
            },
            {
              "internalType": "address",
              "name": "buyer",
              "type": "address"
            },
            {
              "internalType": "uint256",
              "name": "price",
              "type": "uint256"
            },
            {
              "internalType": "uint256",
              "name": "amount",
              "type": "uint256"
            },
            {
              "internalType": "uint256",
              "name": "timeStamp",
              "type": "uint256"
            },
            {
              "internalType": "address",
              "name": "reseller",
              "type": "address"
            },
            {
              "internalType": "bool",
              "name": "isFNFTTokenPending",
              "type": "bool"
            }
          ],
          "indexed": false,
          "internalType": "struct FNFTMarketplaceTypes.MarketItemSold",
          "name": "MarketItemSold_",
          "type": "tuple"
        }
      ],
      "name": "MarketItemSoldEvent",
      "type": "event"
    },
    {
      "anonymous": false,
      "inputs": [
        {
          "indexed": true,
          "internalType": "uint256",
          "name": "itemId",
          "type": "uint256"
        },
        {
          "indexed": true,
          "internalType": "address",
          "name": "changedBy",
          "type": "address"
        },
        {
          "indexed": true,
          "internalType": "enum FNFTMarketplaceTypes.MarketItemStatus",
          "name": "status",
          "type": "uint8"
        },
        {
          "indexed": false,
          "internalType": "uint256",
          "name": "amount",
          "type": "uint256"
        }
      ],
      "name": "MarketItemStatusChanged",
      "type": "event"
    },
    {
      "anonymous": false,
      "inputs": [
        {
          "indexed": false,
          "internalType": "address",
          "name": "account",
          "type": "address"
        }
      ],
      "name": "Paused",
      "type": "event"
    },
    {
      "anonymous": false,
      "inputs": [
        {
          "indexed": false,
          "internalType": "uint256",
          "name": "actualSaleValue",
          "type": "uint256"
        },
        {
          "indexed": false,
          "internalType": "uint256",
          "name": "saleValue",
          "type": "uint256"
        },
        {
          "indexed": false,
          "internalType": "uint256",
          "name": "sellerBalanceBefore",
          "type": "uint256"
        },
        {
          "indexed": false,
          "internalType": "uint256",
          "name": "sellerBalanceAfter",
          "type": "uint256"
        },
        {
          "indexed": false,
          "internalType": "uint256",
          "name": "platformBalanceBefore",
          "type": "uint256"
        },
        {
          "indexed": false,
          "internalType": "uint256",
          "name": "platformABalance",
          "type": "uint256"
        },
        {
          "indexed": false,
          "internalType": "uint256",
          "name": "resellerBalanceBefore",
          "type": "uint256"
        },
        {
          "indexed": false,
          "internalType": "uint256",
          "name": "resellerABalance",
          "type": "uint256"
        },
        {
          "indexed": false,
          "internalType": "uint256",
          "name": "price",
          "type": "uint256"
        }
      ],
      "name": "RedeemBuyer",
      "type": "event"
    },
    {
      "anonymous": false,
      "inputs": [
        {
          "indexed": false,
          "internalType": "address",
          "name": "account",
          "type": "address"
        }
      ],
      "name": "Unpaused",
      "type": "event"
    },
    {
      "inputs": [
        {
          "internalType": "uint256",
          "name": "itemId",
          "type": "uint256"
        },
        {
          "internalType": "address",
          "name": "fnftToken_",
          "type": "address"
        },
        {
          "internalType": "uint256",
          "name": "value",
          "type": "uint256"
        },
        {
          "internalType": "address",
          "name": "reseller",
          "type": "address"
        }
      ],
      "name": "createMarketSale",
      "outputs": [
        {
          "internalType": "uint256",
          "name": "",
          "type": "uint256"
        }
      ],
      "stateMutability": "payable",
      "type": "function"
    },
    {
      "inputs": [],
      "name": "initializeFNFTMarketSaleFacet",
      "outputs": [],
      "stateMutability": "nonpayable",
      "type": "function"
    },
    {
      "inputs": [
        {
          "internalType": "uint256",
          "name": "itemId",
          "type": "uint256"
        },
        {
          "internalType": "address",
          "name": "fnftToken_",
          "type": "address"
        }
      ],
      "name": "makeMarketSale",
      "outputs": [],
      "stateMutability": "payable",
      "type": "function"
    },
    {
      "inputs": [],
      "name": "paused",
      "outputs": [
        {
          "internalType": "bool",
          "name": "",
          "type": "bool"
        }
      ],
      "stateMutability": "view",
      "type": "function"
    },
    {
      "inputs": [
        {
          "internalType": "uint256",
          "name": "itemId",
          "type": "uint256"
        }
      ],
      "name": "price",
      "outputs": [
        {
          "internalType": "uint256",
          "name": "",
          "type": "uint256"
        }
      ],
      "stateMutability": "view",
      "type": "function"
    }
  ],
  "bytecode": "0x6080604052348015600e575f80fd5b50614f3b8061001c5f395ff3fe608060405260043610610049575f3560e01c8063196c8e881461004d57806326a49e3714610073578063338e28e5146100925780635c975abb146100a85780636ef650b8146100ca575b5f80fd5b61006061005b366004614bc5565b6100dd565b6040519081526020015b60405180910390f35b34801561007e575f80fd5b5061006061008d366004614c0c565b610c2b565b34801561009d575f80fd5b506100a6610d27565b005b3480156100b3575f80fd5b50607c5460ff16604051901515815260200161006a565b6100a66100d8366004614c23565b610e74565b5f6100e6611182565b5f858152600160205260408120600501546001600160a01b0316907facaeaa7a8976fc239c01fbba17c5f5a978e804f83203a3e2074e60cb2f2384126006810154604051634536f9c160e11b81526001600160a01b038581166004830152929350911690638a6df38290602401602060405180830381865afa15801561016e573d5f803e3d5ffd5b505050506040513d601f19601f820116820180604052508101906101929190614c51565b6101e35760405162461bcd60e51b815260206004820152601a60248201527f4f6e6c792076616c696420746f6b656e7320616c6c6f7765642e00000000000060448201526064015b60405180910390fd5b6040516301ffc9a760e01b815286906001600160a01b038216906301ffc9a790610218906380ac58cd60e01b90600401614c77565b602060405180830381865afa158015610233573d5f803e3d5ffd5b505050506040513d601f19601f820116820180604052508101906102579190614c51565b1580156102d357506040516301ffc9a760e01b81526001600160a01b038216906301ffc9a79061029290636cdb3d1360e11b90600401614c77565b602060405180830381865afa1580156102ad573d5f803e3d5ffd5b505050506040513d601f19601f820116820180604052508101906102d19190614c51565b155b1561039d57604051635ca72b2360e01b81523360048201526001600160a01b03821690635ca72b2390602401602060405180830381865afa15801561031a573d5f803e3d5ffd5b505050506040513d601f19601f8201168201806040525081019061033e9190614c51565b151560011461039d5760405162461bcd60e51b815260206004820152602560248201527f4f6e6c7920617070726f76657220616c6c6f776564206f6e206d61726b6574706044820152643630b1b29760d91b60648201526084016101da565b6040516301ffc9a760e01b81526001600160a01b038816906301ffc9a7906103d0906380ac58cd60e01b90600401614c77565b602060405180830381865afa1580156103eb573d5f803e3d5ffd5b505050506040513d601f19601f8201168201806040525081019061040f9190614c51565b8061048757506040516301ffc9a760e01b81526001600160a01b038816906301ffc9a79061044890636cdb3d1360e11b90600401614c77565b602060405180830381865afa158015610463573d5f803e3d5ffd5b505050506040513d601f19601f820116820180604052508101906104879190614c51565b8061051b57507facaeaa7a8976fc239c01fbba17c5f5a978e804f83203a3e2074e60cb2f23841260060154604051634536f9c160e11b81526001600160a01b03898116600483015290911690638a6df38290602401602060405180830381865afa1580156104f7573d5f803e3d5ffd5b505050506040513d601f19601f8201168201806040525081019061051b9190614c51565b6105675760405162461bcd60e51b815260206004820152601a60248201527f4f6e6c792076616c696420746f6b656e7320616c6c6f7765642e00000000000060448201526064016101da565b60408051818152601b818301527f6372656174654d61726b657453616c653a206974656d4964203d2000000000006060820152602081018a905290515f80516020614ee68339815191529181900360800190a160408051818152601f818301527f6372656174654d61726b657453616c653a20666e6674546f6b656e5f203d200060608201526001600160a01b038916602082015290517fb9c3e008878b01872a6aa3722e173e3e60368b8a0201c6952df3d456d7b32d109181900360800190a160408051818152601a818301527f6372656174654d61726b657453616c653a2076616c7565203d2000000000000060608201526020810188905290515f80516020614ee68339815191529181900360800190a1610684886111db565b6106c35760405162461bcd60e51b815260206004820152601060248201526f29b0b632903737ba1030b1ba34bb329760811b60448201526064016101da565b5f8881526001602052604090206006015461070b5760405162461bcd60e51b815260206004820152600860248201526714dbdb19081bdd5d60c21b60448201526064016101da565b5f8881526001602052604090819020600501549051636eb1769f60e11b815233600482015230602482015287916001600160a01b03169063dd62ed3e90604401602060405180830381865afa158015610766573d5f803e3d5ffd5b505050506040513d601f19601f8201168201806040525081019061078a9190614c8c565b10156107d85760405162461bcd60e51b815260206004820152601e60248201527f4e6f7420656e6f75676820616c6c6f77616e636520617070726f7665642e000060448201526064016101da565b5f80516020614ee68339815191526107ef89610c2b565b604051610841919060408082526022908201527f6372656174654d61726b657453616c653a207072696365286974656d4964292060608201526101e960f51b6080820152602081019190915260a00190565b60405180910390a16040516301ffc9a760e01b81525f906001600160a01b038916906301ffc9a79061087e906380ac58cd60e01b90600401614c77565b602060405180830381865afa158015610899573d5f803e3d5ffd5b505050506040513d601f19601f820116820180604052508101906108bd9190614c51565b8061093557506040516301ffc9a760e01b81526001600160a01b038916906301ffc9a7906108f690636cdb3d1360e11b90600401614c77565b602060405180830381865afa158015610911573d5f803e3d5ffd5b505050506040513d601f19601f820116820180604052508101906109359190614c51565b15610a8b577f0f8db0708c4e6b233e2c285fe1ed66015dee71bd374ac8e835534be5f592d6a26040516109db9060208082526053908201527f4945524331363528666e6674546f6b656e5f292e737570706f727473496e746560408201527f726661636528207479706528494552433732315570677261646561626c65292e60608201527234b73a32b93330b1b2a4b214903e3e1017171760691b608082015260a00190565b60405180910390a16109ec89610c2b565b6109f69088614cb7565b90505f80516020614ee683398151915281604051610a7e919060408082526041908201527f6372656174654d61726b657453616c653a207072696365286974656d4964292060608201527f3d20616d6f756e74203d2076616c7565202f207072696365286974656d4964296080820152600160fd1b60a0820152602081019190915260c00190565b60405180910390a1610b35565b610a9489610c2b565b610aa688670de0b6b3a7640000614cd6565b610ab09190614cb7565b90505f80516020614ee683398151915281604051610b2c91906040808252818101527f6372656174654d61726b657453616c653a20616d6f756e74203d202876616c7560608201527f65202a20283130202a2a2031382929202f207072696365286974656d496429206080820152602081019190915260a00190565b60405180910390a15b60408051818152601b818301527f6372656174654d61726b657453616c653a20616d6f756e74203d20000000000060608201526020810183905290515f80516020614ee68339815191529181900360800190a18015610b9a57610b9a818a8a89611245565b5f80516020614ee6833981519152610bb18a610c2b565b604051610c02919060408082526021908201527f6372656174654d61726b657453616c653a207072696365286974656d4964293d6060820152600160fd1b6080820152602081019190915260a00190565b60405180910390a1610c1389610c2b565b945050505050610c236001601855565b949350505050565b5f818152600160205260408120600881015460079091015482919003610c6257505f82815260016020526040902060080154610d21565b5f838152600160205260409020600a01544210610c9057505f82815260016020526040902060080154610d21565b5f8381526001602052604090206009810154600a90910154610cb29190614ced565b5f84815260016020526040902060090154610ccd9042614ced565b5f8581526001602052604090206008810154600790910154610cef9190614ced565b610cf99190614cd6565b610d039190614cb7565b5f84815260016020526040902060070154610d1e9190614ced565b90505b92915050565b601754610100900460ff1615808015610d475750601754600160ff909116105b80610d615750303b158015610d61575060175460ff166001145b610dc45760405162461bcd60e51b815260206004820152602e60248201527f496e697469616c697a61626c653a20636f6e747261637420697320616c72656160448201526d191e481a5b9a5d1a585b1a5e995960921b60648201526084016101da565b6017805460ff191660011790558015610de7576017805461ff0019166101001790555b610def61171a565b610df761174b565b604051600181527f8bc34152a578df4b2def9751e4e02e4f44a33bac936533e885b82afea279f3e99060200160405180910390a18015610e71576017805461ff0019169055604051600181527f7f26b83ff96e1f2b6a682f133852f6798a09c465da95921460cefb38474024989060200160405180910390a15b50565b5f82815260016020526040902060088101546007909101541480610ea657505f82815260016020526040902060060154155b80610ec157505f828152600160205260409020600a01544210155b610f015760405162461bcd60e51b815260206004820152601160248201527020bab1ba34b7b7103737ba1037bb32b91760791b60448201526064016101da565b5f82815260208190526040902054610f4b5760405162461bcd60e51b815260206004820152600d60248201526c2737ba3434b7339039b7b6321760991b60448201526064016101da565b610fdf6040518061026001604052805f81526020015f6001600160a01b031681526020015f6001600160a01b031681526020015f81526020015f81526020015f81526020015f81526020015f81526020015f81526020015f81526020015f81526020015f81526020015f81526020015f81526020015f81526020015f81526020015f81526020015f81526020015f81525090565b8281526001600160a01b038083166020808401919091525f85815260018083526040808320600501549094168486015286825291819052919091208054909161102791614ced565b8154811061103757611037614d00565b5f91825260208083206006600a909302019190910154608084015284825260019052604090819020600201546060830152516301ffc9a760e01b81526001600160a01b038316906301ffc9a790611099906380ac58cd60e01b90600401614c77565b602060405180830381865afa1580156110b4573d5f803e3d5ffd5b505050506040513d601f19601f820116820180604052508101906110d89190614c51565b8061115057506040516301ffc9a760e01b81526001600160a01b038316906301ffc9a79061111190636cdb3d1360e11b90600401614c77565b602060405180830381865afa15801561112c573d5f803e3d5ffd5b505050506040513d601f19601f820116820180604052508101906111509190614c51565b156111645761115e8161177a565b5061116f565b61116d81613128565b505b61117d600d80546001019055565b505050565b6002601854036111d45760405162461bcd60e51b815260206004820152601f60248201527f5265656e7472616e637947756172643a207265656e7472616e742063616c6c0060448201526064016101da565b6002601855565b5f8181526001602052604081206015015460ff1615801561120c57505f828152600160205260409020600901544210155b801561122757505f828152600160205260409020600a015442105b8015610d215750505f90815260016020526040902060060154151590565b5f838152600160205260409020600601548411156112ed575f83815260016020908152604091829020600601548251838152603b818501527f6372656174654d61726b657453616c653a20616d6f756e74203d20732e69645460608201527f6f4d61726b65744974656d5b6974656d49645d2e616d6f756e74200000000000608082015291820181905291519195505f80516020614ee6833981519152919081900360a00190a15b5f838152600160209081526040918290206006015482518381526034818501527f6372656174654d61726b657453616c653a20732e6964546f4d61726b65744974606082015273032b6adb4ba32b6a4b22e9730b6b7bab73a101e960651b60808201529182015290515f80516020614ee68339815191529181900360a00190a15f838152600160205260408120600601805486929061138d908490614ced565b909155505060408051818152603c818301527f6372656174654d61726b657453616c653a20732e6964546f4d61726b6574497460608201527f656d5b6974656d49645d2e616d6f756e74202d3d20616d6f756e74200000000060808201526020810186905290515f80516020614ee68339815191529181900360a00190a15f838152602081815260408083208151610160810183528781526001600160a01b03808816828601528886526001808652848720600581015483169584019590955260028501546060840152958990529490935260039091015490921660808201523360a082015260c0810161148086610c2b565b81526020808201889052426040808401919091526001600160a01b038087166060808601919091525f8a8152600180865284822060088082015460079283015414156080998a01528a548084018c559a84528784208a51600a909c02019a8b5589880151928b0180549387166001600160a01b03199485161790558987015160028c0180549188169185169190911790559389015160038b01559688015160048a01805491861691831691909117905560a088015160058a0180549186169190921617905560c0870151600689015560e0870151958801959095556101008601519087015561012085015160099096018054610140909601511515600160a01b026001600160a81b031990961696909116959095179390931790935585815291829052908190205490515f80516020614ee6833981519152916116529160408082526061908201527f6372656174654d61726b657453616c653a20732e6964546f4d61726b6574497460608201527f656d73536f6c645b6974656d49645d2e70757368282e2e2e2020732e6964546f60808201527f4d61726b65744974656d73536f6c645b6974656d49645d2e6c656e677468203d60a0820152600160fd1b60c0820152602081019190915260e00190565b60405180910390a15f8381526001602052604090206008810154600790910154148061168c57505f83815260016020526040902060060154155b1561170d577f0f8db0708c4e6b233e2c285fe1ed66015dee71bd374ac8e835534be5f592d6a26040516116fb9060208082526022908201527f6d616b654d61726b657453616c65286974656d49642c20666e6674546f6b656e6040820152615f2960f01b606082015260800190565b60405180910390a161170d8383610e74565b50505050565b6001601855565b601754610100900460ff166117415760405162461bcd60e51b81526004016101da90614d14565b611749614924565b565b601754610100900460ff166117725760405162461bcd60e51b81526004016101da90614d14565b61174961494b565b5f60a0820181905281518152602081905260408120546117cc5760405162461bcd60e51b815260206004820152600d60248201526c139bc81a5d195b5cc81cdbdb19609a1b60448201526064016101da565b81515f908152602081905260408120546117e890600190614ced565b83515f9081526020819052604090208054919250908290811061180d5761180d614d00565b905f5260205f2090600a020160070154836080015161182c9190614cd6565b60e0840190815283515f908152600160205260409020601101549051670de0b6b3a76400009161185b91614cd6565b6118659190614cb7565b61010084015282515f90815260016020526040808220600501548551835291819020600f015490516370a0823160e01b81526001600160a01b0391821660048201529116906370a0823190602401602060405180830381865afa1580156118ce573d5f803e3d5ffd5b505050506040513d601f19601f820116820180604052508101906118f29190614c8c565b6101a0840152610100830151156119795782515f908152602081905260409020805461197991908390811061192957611929614d00565b5f91825260208083206005600a909302018201548751845260019091526040808420600f01546101008901518951865291909420909201546001600160a01b03908116939181169291169061497e565b6101a083015183515f90815260016020526040808220600501548651835291819020600f015490516370a0823160e01b81526001600160a01b0391821660048201529116906370a0823190602401602060405180830381865afa1580156119e2573d5f803e3d5ffd5b505050506040513d601f19601f82011682018060405250810190611a069190614c8c565b1015611a245760405162461bcd60e51b81526004016101da90614d5f565b82515f9081526001602052604090206012015460e0840151670de0b6b3a764000091611a4f91614cd6565b611a599190614cb7565b61012084015282515f90815260016020526040908190206005015460105491516370a0823160e01b81526001600160a01b0392831660048201529116906370a0823190602401602060405180830381865afa158015611aba573d5f803e3d5ffd5b505050506040513d601f19601f82011682018060405250810190611ade9190614c8c565b6101c084015261012083015115611b5b5782515f9081526020819052604090208054611b5b919083908110611b1557611b15614d00565b5f91825260208083206005600a909302018201546010546101208901518951865260019093526040909420909201546001600160a01b039081169392811692169061497e565b6101c083015183515f90815260016020526040908190206005015460105491516370a0823160e01b81526001600160a01b0392831660048201529116906370a0823190602401602060405180830381865afa158015611bbc573d5f803e3d5ffd5b505050506040513d601f19601f82011682018060405250810190611be09190614c8c565b1015611bfe5760405162461bcd60e51b81526004016101da90614d5f565b82515f9081526001602052604080822060050154855183529181902060049081015491516370a0823160e01b81526001600160a01b03928316918101919091529116906370a0823190602401602060405180830381865afa158015611c65573d5f803e3d5ffd5b505050506040513d601f19601f82011682018060405250810190611c899190614c8c565b6101e084015282515f908152600160205260409020600401546001600160a01b031615801590611cca575082515f9081526001602052604090206013015415155b15611e2f5782515f9081526001602052604090206013015460e0840151670de0b6b3a764000091611cfa91614cd6565b611d049190614cb7565b61014084015282515f9081526020819052604090208054611d80919083908110611d3057611d30614d00565b5f91825260208083206005600a909302018201548751845260019091526040808420600401546101408901518951865291909420909201546001600160a01b03908116939181169291169061497e565b6101e083015183515f9081526001602052604080822060050154865183529181902060049081015491516370a0823160e01b81526001600160a01b03928316918101919091529116906370a0823190602401602060405180830381865afa158015611ded573d5f803e3d5ffd5b505050506040513d601f19601f82011682018060405250810190611e119190614c8c565b1015611e2f5760405162461bcd60e51b81526004016101da90614d5f565b82515f908152602081905260408120805483908110611e5057611e50614d00565b5f91825260209091206009600a9092020101546001600160a01b031614801590611e8b575082515f908152600160205260409020600c015415155b1561209b5782515f908152600160205260409020600c015460e0840151670de0b6b3a764000091611ebb91614cd6565b611ec59190614cb7565b61016084015282515f908152602081905260408120805483908110611eec57611eec614d00565b5f9182526020808320600a92909202909101600901548651835260019091526040918290206005015491516370a0823160e01b81526001600160a01b039182166004820181905293509116906370a0823190602401602060405180830381865afa158015611f5c573d5f803e3d5ffd5b505050506040513d601f19601f82011682018060405250810190611f809190614c8c565b610220850152610160840151156120995783515f9081526020819052604090208054611ff8919084908110611fb757611fb7614d00565b5f91825260208083206005600a909302018201546101608901518951855260019092526040909320909101546001600160a01b03908116921690849061497e565b61022084015184515f90815260016020526040908190206005015490516370a0823160e01b81526001600160a01b038481166004830152909116906370a0823190602401602060405180830381865afa158015612057573d5f803e3d5ffd5b505050506040513d601f19601f8201168201806040525081019061207b9190614c8c565b10156120995760405162461bcd60e51b81526004016101da90614d5f565b505b8261014001518361016001518461012001518561010001518660e001516120c29190614ced565b6120cc9190614ced565b6120d69190614ced565b6120e09190614ced565b61018084015282515f908152600160205260408082206005015485518352918190206003015490516370a0823160e01b81526001600160a01b0391821660048201529116906370a0823190602401602060405180830381865afa158015612149573d5f803e3d5ffd5b505050506040513d601f19601f8201168201806040525081019061216d9190614c8c565b61020084015261022083015183515f90815260016020908152604080832060050154875184529183905290912080546001600160a01b03909216916370a082319190859081106121bf576121bf614d00565b5f9182526020909120600a909102016009015460405160e083901b6001600160e01b03191681526001600160a01b039091166004820152602401602060405180830381865afa158015612214573d5f803e3d5ffd5b505050506040513d601f19601f820116820180604052508101906122389190614c8c565b6101e085015185515f9081526001602052604080822060050154885183529181902060049081015491516370a0823160e01b81526001600160a01b03928316918101919091529116906370a0823190602401602060405180830381865afa1580156122a5573d5f803e3d5ffd5b505050506040513d601f19601f820116820180604052508101906122c99190614c8c565b6101c087015187515f90815260016020526040808220600501548a518352918190206010015490516370a0823160e01b81526001600160a01b0391821660048201529116906370a0823190602401602060405180830381865afa158015612332573d5f803e3d5ffd5b505050506040513d601f19601f820116820180604052508101906123569190614c8c565b6101a089015189515f908152600160205260409081902060050154600f5491516370a0823160e01b81526001600160a01b0392831660048201529116906370a0823190602401602060405180830381865afa1580156123b7573d5f803e3d5ffd5b505050506040513d601f19601f820116820180604052508101906123db9190614c8c565b6123e59190614ced565b6123ef9190614d8c565b6123f99190614ced565b6124039190614d8c565b61240d9190614ced565b6124179190614d8c565b6124219190614ced565b61024084015261018083015115612a7e5782515f908152600160205260408120600d0154900361261d5782515f90815260208190526040902080546124c191908390811061247157612471614d00565b5f91825260208083206005600a909302018201548751845260019091526040808420600301546101808901518951865291909420909201546001600160a01b03908116939181169291169061497e565b61020083015183515f908152600160205260408082206005015486518352918190206003015490516370a0823160e01b81526001600160a01b0391821660048201529116906370a0823190602401602060405180830381865afa15801561252a573d5f803e3d5ffd5b505050506040513d601f19601f8201168201806040525081019061254e9190614c8c565b101561256c5760405162461bcd60e51b81526004016101da90614d9f565b61020083015183515f908152600160205260408082206005015486518352918190206003015490516370a0823160e01b81526001600160a01b0391821660048201529116906370a0823190602401602060405180830381865afa1580156125d5573d5f803e3d5ffd5b505050506040513d601f19601f820116820180604052508101906125f99190614c8c565b6126039190614ced565b83610240018181516126159190614d8c565b905250612a7e565b5f805b84515f908152600160205260409020600d015481101561297c5784515f908152600160205260408120600e018054670de0b6b3a764000091908490811061266957612669614d00565b905f5260205f2001548761018001516126829190614cd6565b61268c9190614cb7565b86515f908152600160205260408120600d0180549293509091849081106126b5576126b5614d00565b5f9182526020808320919091015489518352600190915260408083206005015490516370a0823160e01b81526001600160a01b039283166004820181905294509116906370a0823190602401602060405180830381865afa15801561271c573d5f803e3d5ffd5b505050506040513d601f19601f820116820180604052508101906127409190614c8c565b88515f90815260208190526040902080549192506127a0918890811061276857612768614d00565b5f91825260208083206005600a909302018201548c5184526001909152604090922001546001600160a01b039081169116848661497e565b87515f90815260016020526040908190206005015490516370a0823160e01b81526001600160a01b038481166004830152839216906370a0823190602401602060405180830381865afa1580156127f9573d5f803e3d5ffd5b505050506040513d601f19601f8201168201806040525081019061281d9190614c8c565b101561283b5760405162461bcd60e51b81526004016101da90614d9f565b87515f90815260016020526040908190206005015490516370a0823160e01b81526001600160a01b038481166004830152839216906370a0823190602401602060405180830381865afa158015612894573d5f803e3d5ffd5b505050506040513d601f19601f820116820180604052508101906128b89190614c8c565b6128c29190614ced565b6128cc9086614d8c565b88515f90815260016020526040908190206005015490516370a0823160e01b81526001600160a01b0385811660048301529297508392909116906370a0823190602401602060405180830381865afa15801561292a573d5f803e3d5ffd5b505050506040513d601f19601f8201168201806040525081019061294e9190614c8c565b6129589190614ced565b886102400181815161296a9190614d8c565b90525050600190920191506126209050565b508084610180015110156129ee5760405162461bcd60e51b815260206004820152603360248201527f53616c65207472616e73666572206661696c65643b20616d6f756e7420746f206044820152720c8d2e6e8e4d2c4eae8ca40e8dede40d0d2ced606b1b60648201526084016101da565b808461018001511115612a7c5783515f9081526020819052604090208054612a7c919084908110612a2157612a21614d00565b5f9182526020909120600a90910201600501546010546101808701516001600160a01b039283169290911690612a58908590614ced565b87515f908152600160205260409020600501546001600160a01b031692919061497e565b505b60e083015161024084015184515f908152602081905260409020805484908110612aaa57612aaa614d00565b905f5260205f2090600a020160070154612ac49190614cd6565b612ace9190614cb7565b60c0840181905215612d195782602001516001600160a01b03166301ffc9a76380ac58cd60e01b6040518263ffffffff1660e01b8152600401612b119190614c77565b602060405180830381865afa158015612b2c573d5f803e3d5ffd5b505050506040513d601f19601f82011682018060405250810190612b509190614c51565b15612c2c5760208084015184515f908152600183526040808220600301548751835293829052902080546001600160a01b03928316936342842e0e9316919085908110612b9f57612b9f614d00565b5f9182526020808320600a929092029091016005015488518352600190915260409182902060020154915160e085901b6001600160e01b03191681526001600160a01b0393841660048201529216602483015260448201526064015f604051808303815f87803b158015612c11575f80fd5b505af1158015612c23573d5f803e3d5ffd5b50505050612d19565b60208084015184515f908152600183526040808220600301548751835293829052902080546001600160a01b039283169363f242432a9316919085908110612c7657612c76614d00565b5f9182526020808320600a929092029091016005015488518352600190915260408083206002015460c08a0151915160e087901b6001600160e01b03191681526001600160a01b0395861660048201529490921660248501526044840191909152606483015260a0608483015260a482015260c4015f604051808303815f87803b158015612d02575f80fd5b505af1158015612d14573d5f803e3d5ffd5b505050505b6040805161016081018252845181526020808601516001600160a01b0390811682840152868401518116838501526060808801519084015286515f90815260018352848120600301549091166080840152865181529081905291909120805460a08301919084908110612d8e57612d8e614d00565b5f91825260208083206005600a9093020191909101546001600160a01b031683526080808801518483015260c088015160408086019190915242606086015288518452918390529120805491909201919084908110612def57612def614d00565b5f91825260208083206009600a9093020191909101546001600160a01b03168352918201819052855181529081905260409020805483908110612e3457612e34614d00565b5f91825260208083208451600a90930201918255838101516001830180546001600160a01b039283166001600160a01b03199182161790915560408087015160028601805491851691841691909117905560608701516003860155608087015160048601805491851691841691909117905560a0870151600586018054918516919093161790915560c080870151600686015560e08701516007860155610100870151600886015561012087015160099586018054610140909901511515600160a01b026001600160a81b031990991691909416179690961790915593870151875184529190529181208054909190612f2e908490614d8c565b909155505060c083015183515f908152600360205260409020541015612faa5760405162461bcd60e51b815260206004820152602b60248201527f4d61726b6574206974656d20616d6f756e74206c657373207468616e20616d6f60448201526a1d5b9d081d1bc81cd95b1b60aa1b60648201526084016101da565b60c083015183515f9081526003602052604081208054909190612fce908490614ced565b909155505082515f908152602081905260409020805482908110612ff457612ff4614d00565b905f5260205f2090600a0201600301545f80015f855f015181526020019081526020015f20828154811061302a5761302a614d00565b5f91825260208083206001600a9093020191909101548651835290829052604090912080546001600160a01b03909216918490811061306b5761306b614d00565b5f9182526020808320600a909202909101548751835290829052604090912080547faab4dc615c3bbfdcb44317182c1aa1366483058429bd3c888b0dbb22e09729f29190869081106130bf576130bf614d00565b905f5260205f2090600a02016040516130d89190614dcd565b60405180910390a46006835160c08501516040519081523391907f2b568e9fbc88f404b8e635de878706fa53a17b75edbde77b21f9c0b6ee9a20739060200160405180910390a4505060a0015190565b5f60a08201819052815181526020819052604081205461317a5760405162461bcd60e51b815260206004820152600d60248201526c139bc81a5d195b5cc81cdbdb19609a1b60448201526064016101da565b81515f9081526020819052604081205461319690600190614ced565b83515f9081526020819052604090208054919250670de0b6b3a764000091839081106131c4576131c4614d00565b905f5260205f2090600a02016007015484608001516131e39190614cd6565b6131ed9190614cb7565b60e0840190815283515f908152600160205260409020601201549051670de0b6b3a76400009161321c91614cd6565b6132269190614cb7565b61012084015282515f908152600160205260408082206005015485518352918190206003015490516370a0823160e01b81526001600160a01b0391821660048201529116906370a0823190602401602060405180830381865afa15801561328f573d5f803e3d5ffd5b505050506040513d601f19601f820116820180604052508101906132b39190614c8c565b61020084015282515f90815260016020526040808220600501548551835291819020600f015490516370a0823160e01b81526001600160a01b0391821660048201529116906370a0823190602401602060405180830381865afa15801561331c573d5f803e3d5ffd5b505050506040513d601f19601f820116820180604052508101906133409190614c8c565b6101a0840152610100830151158015906133b3575082515f908152600160209081526040808320600f0154865184529183905290912080546001600160a01b03909216918390811061339457613394614d00565b5f91825260209091206005600a9092020101546001600160a01b031614155b156133e35782515f90815260208190526040902080546133de91908390811061192957611929614d00565b6133eb565b5f6101008401525b6101a083015183515f908152600160205260409081902060050154600f5491516370a0823160e01b81526001600160a01b0392831660048201529116906370a0823190602401602060405180830381865afa15801561344c573d5f803e3d5ffd5b505050506040513d601f19601f820116820180604052508101906134709190614c8c565b101561348e5760405162461bcd60e51b81526004016101da90614d5f565b82515f908152600160205260408082206005015485518352918190206010015490516370a0823160e01b81526001600160a01b0391821660048201529116906370a0823190602401602060405180830381865afa1580156134f1573d5f803e3d5ffd5b505050506040513d601f19601f820116820180604052508101906135159190614c8c565b6101c084015261012083015115801590613588575082515f90815260016020908152604080832060100154865184529183905290912080546001600160a01b03909216918390811061356957613569614d00565b5f91825260209091206005600a9092020101546001600160a01b031614155b156136085782515f90815260208190526040902080546136039190839081106135b3576135b3614d00565b5f91825260208083206005600a909302018201548751845260019091526040808420601001546101208901518951865291909420909201546001600160a01b03908116939181169291169061497e565b613610565b5f6101208401525b6101c083015183515f90815260016020526040908190206005015460105491516370a0823160e01b81526001600160a01b0392831660048201529116906370a0823190602401602060405180830381865afa158015613671573d5f803e3d5ffd5b505050506040513d601f19601f820116820180604052508101906136959190614c8c565b10156136b35760405162461bcd60e51b81526004016101da90614d5f565b82515f9081526001602052604090206013015460e0840151670de0b6b3a7640000916136de91614cd6565b6136e89190614cb7565b61014084015282515f9081526001602090815260409182902060050154818601518351630828862d60e01b815293516001600160a01b03928316946370a08231949390921692630828862d92600480820193918290030181865afa158015613752573d5f803e3d5ffd5b505050506040513d601f19601f820116820180604052508101906137769190614e5b565b6001600160a01b03166302d05d3f6040518163ffffffff1660e01b8152600401602060405180830381865afa1580156137b1573d5f803e3d5ffd5b505050506040513d601f19601f820116820180604052508101906137d59190614e5b565b6040516001600160e01b031960e084901b1681526001600160a01b039091166004820152602401602060405180830381865afa158015613817573d5f803e3d5ffd5b505050506040513d601f19601f8201168201806040525081019061383b9190614c8c565b6101e084015261014083015115801590613960575082602001516001600160a01b0316630828862d6040518163ffffffff1660e01b8152600401602060405180830381865afa158015613890573d5f803e3d5ffd5b505050506040513d601f19601f820116820180604052508101906138b49190614e5b565b6001600160a01b03166302d05d3f6040518163ffffffff1660e01b8152600401602060405180830381865afa1580156138ef573d5f803e3d5ffd5b505050506040513d601f19601f820116820180604052508101906139139190614e5b565b83515f90815260208190526040902080546001600160a01b0392909216918390811061394157613941614d00565b5f91825260209091206005600a9092020101546001600160a01b031614155b15613c105782515f9081526020819052604090208054613a9a91908390811061398b5761398b614d00565b905f5260205f2090600a02016005015f9054906101000a90046001600160a01b031684602001516001600160a01b0316630828862d6040518163ffffffff1660e01b8152600401602060405180830381865afa1580156139ed573d5f803e3d5ffd5b505050506040513d601f19601f82011682018060405250810190613a119190614e5b565b6001600160a01b03166302d05d3f6040518163ffffffff1660e01b8152600401602060405180830381865afa158015613a4c573d5f803e3d5ffd5b505050506040513d601f19601f82011682018060405250810190613a709190614e5b565b61014086015186515f908152600160205260409020600501546001600160a01b031692919061497e565b6101e083015183515f9081526001602090815260409182902060050154818701518351630828862d60e01b815293516001600160a01b03928316946370a08231949390921692630828862d92600480820193918290030181865afa158015613b04573d5f803e3d5ffd5b505050506040513d601f19601f82011682018060405250810190613b289190614e5b565b6001600160a01b03166302d05d3f6040518163ffffffff1660e01b8152600401602060405180830381865afa158015613b63573d5f803e3d5ffd5b505050506040513d601f19601f82011682018060405250810190613b879190614e5b565b6040516001600160e01b031960e084901b1681526001600160a01b039091166004820152602401602060405180830381865afa158015613bc9573d5f803e3d5ffd5b505050506040513d601f19601f82011682018060405250810190613bed9190614c8c565b1015613c0b5760405162461bcd60e51b81526004016101da90614d5f565b613c18565b5f6101408401525b8261014001518361012001518461010001518560e00151613c399190614ced565b613c439190614ced565b613c4d9190614ced565b610180840181905215613d2b5782515f9081526020819052604090208054613c8091908390811061247157612471614d00565b61020083015183515f908152600160205260408082206005015486518352918190206003015490516370a0823160e01b81526001600160a01b0391821660048201529116906370a0823190602401602060405180830381865afa158015613ce9573d5f803e3d5ffd5b505050506040513d601f19601f82011682018060405250810190613d0d9190614c8c565b1015613d2b5760405162461bcd60e51b81526004016101da90614d9f565b61020083015183515f908152600160205260408082206005015486518352918190206003015490516370a0823160e01b81526001600160a01b0391821660048201529116906370a0823190602401602060405180830381865afa158015613d94573d5f803e3d5ffd5b505050506040513d601f19601f82011682018060405250810190613db89190614c8c565b613dc29190614ced565b610240840152600f5483515f90815260208190526040902080546001600160a01b039092169183908110613df857613df8614d00565b5f91825260209091206005600a9092020101546001600160a01b031614613ebf576101a083015183515f908152600160205260409081902060050154600f5491516370a0823160e01b81526001600160a01b0392831660048201529116906370a0823190602401602060405180830381865afa158015613e7a573d5f803e3d5ffd5b505050506040513d601f19601f82011682018060405250810190613e9e9190614c8c565b846102400151613eae9190614d8c565b613eb89190614ced565b6102408401525b60105483515f90815260208190526040902080546001600160a01b039092169183908110613eef57613eef614d00565b5f91825260209091206005600a9092020101546001600160a01b031614613fb6576101c083015183515f90815260016020526040908190206005015460105491516370a0823160e01b81526001600160a01b0392831660048201529116906370a0823190602401602060405180830381865afa158015613f71573d5f803e3d5ffd5b505050506040513d601f19601f82011682018060405250810190613f959190614c8c565b846102400151613fa59190614d8c565b613faf9190614ced565b6102408401525b82602001516001600160a01b0316630828862d6040518163ffffffff1660e01b8152600401602060405180830381865afa158015613ff6573d5f803e3d5ffd5b505050506040513d601f19601f8201168201806040525081019061401a9190614e5b565b6001600160a01b03166302d05d3f6040518163ffffffff1660e01b8152600401602060405180830381865afa158015614055573d5f803e3d5ffd5b505050506040513d601f19601f820116820180604052508101906140799190614e5b565b83515f90815260208190526040902080546001600160a01b039290921691839081106140a7576140a7614d00565b5f91825260209091206005600a9092020101546001600160a01b03161461423c576101e083015183515f9081526001602090815260409182902060050154818701518351630828862d60e01b815293516001600160a01b03928316946370a08231949390921692630828862d92600480820193918290030181865afa158015614132573d5f803e3d5ffd5b505050506040513d601f19601f820116820180604052508101906141569190614e5b565b6001600160a01b03166302d05d3f6040518163ffffffff1660e01b8152600401602060405180830381865afa158015614191573d5f803e3d5ffd5b505050506040513d601f19601f820116820180604052508101906141b59190614e5b565b6040516001600160e01b031960e084901b1681526001600160a01b039091166004820152602401602060405180830381865afa1580156141f7573d5f803e3d5ffd5b505050506040513d601f19601f8201168201806040525081019061421b9190614c8c565b84610240015161422b9190614d8c565b6142359190614ced565b6102408401525b60e083015161024084015184515f90815260208190526040902080548490811061426857614268614d00565b905f5260205f2090600a0201600701546142829190614cd6565b61428c9190614cb7565b60c0840190815283515f908152600160205260409020600c01549051670de0b6b3a7640000916142bb91614cd6565b6142c59190614cb7565b61016084015260c083015160a0840180516142e1908390614d8c565b90525060c0830151156143c75760208084015184515f908152600183526040808220600301548751835293829052902080546001600160a01b03928316936323b872dd931691908590811061433857614338614d00565b5f9182526020909120600a909102016005015460c087015160405160e085901b6001600160e01b03191681526001600160a01b03938416600482015292909116602483015260448201526064016020604051808303815f875af11580156143a1573d5f803e3d5ffd5b505050506040513d601f19601f820116820180604052508101906143c59190614c51565b505b6040805161016081018252845181526020808601516001600160a01b0390811682840152868401518116838501526060808801519084015286515f90815260018352848120600301549091166080840152865181529081905291909120805460a0830191908490811061443c5761443c614d00565b5f91825260208083206005600a9093020191909101546001600160a01b031683526080808801518483015260c08801516040808601919091524260608601528851845291839052912080549190920191908490811061449d5761449d614d00565b5f91825260208083206009600a9093020191909101546001600160a01b031683529182018190528551815290819052604090208054839081106144e2576144e2614d00565b5f91825260208083208451600a90930201918255838101516001830180546001600160a01b039283166001600160a01b03199182161790915560408087015160028601805491851691841691909117905560608701516003860155608087015160048601805491851691841691909117905560a0870151600586018054918516919093161790915560c0860151600685015560e08601516007850155610100860151600885015561012086015160099094018054610140909701511515600160a01b026001600160a81b03199097169490921693909317949094179093558551825291819052208054829081106145db576145db614d00565b905f5260205f2090600a0201600301545f80015f855f015181526020019081526020015f20828154811061461157614611614d00565b5f91825260208083206001600a9093020191909101548651835290829052604090912080546001600160a01b03909216918490811061465257614652614d00565b5f9182526020808320600a909202909101548751835290829052604090912080547faab4dc615c3bbfdcb44317182c1aa1366483058429bd3c888b0dbb22e09729f29190869081106146a6576146a6614d00565b905f5260205f2090600a02016040516146bf9190614dcd565b60405180910390a461024083015160e084015161020085015185515f908152600160205260408082206005015488518352918190206003015490516370a0823160e01b81526001600160a01b0391821660048201527f9c7713eefb13ed12f0e32e997fff0306a78c8df00de2238f398bb38a039b6ac59594939291909116906370a0823190602401602060405180830381865afa158015614762573d5f803e3d5ffd5b505050506040513d601f19601f820116820180604052508101906147869190614c8c565b6101c088015188515f90815260016020526040908190206005015460105491516370a0823160e01b81526001600160a01b0392831660048201529116906370a0823190602401602060405180830381865afa1580156147e7573d5f803e3d5ffd5b505050506040513d601f19601f8201168201806040525081019061480b9190614c8c565b6102208a01518a515f908152600160209081526040808320600501548e5184529183905290912080546001600160a01b03909216916370a0823191908c90811061485757614857614d00565b5f9182526020909120600a909102016009015460405160e083901b6001600160e01b03191681526001600160a01b039091166004820152602401602060405180830381865afa1580156148ac573d5f803e3d5ffd5b505050506040513d601f19601f820116820180604052508101906148d09190614c8c565b60808c810151604080519a8b5260208b01999099528989019790975260608901959095529387019290925260a086015260c085015260e084015261010083015251908190036101200190a1505060a0015190565b601754610100900460ff166117135760405162461bcd60e51b81526004016101da90614d14565b601754610100900460ff166149725760405162461bcd60e51b81526004016101da90614d14565b607c805460ff19169055565b604080516001600160a01b038581166024830152848116604483015260648083018590528351808403909101815260849092018352602080830180516001600160e01b03166323b872dd60e01b17905283518085019094528084527f5361666545524332303a206c6f772d6c6576656c2063616c6c206661696c65649084015261170d928792915f91614a15918516908490614a94565b905080515f1480614a35575080806020019051810190614a359190614c51565b61117d5760405162461bcd60e51b815260206004820152602a60248201527f5361666545524332303a204552433230206f7065726174696f6e20646964206e6044820152691bdd081cdd58d8d9595960b21b60648201526084016101da565b6060610c2384845f85855f80866001600160a01b03168587604051614ab99190614e98565b5f6040518083038185875af1925050503d805f8114614af3576040519150601f19603f3d011682016040523d82523d5f602084013e614af8565b606091505b5091509150614b0987838387614b14565b979650505050505050565b60608315614b825782515f03614b7b576001600160a01b0385163b614b7b5760405162461bcd60e51b815260206004820152601d60248201527f416464726573733a2063616c6c20746f206e6f6e2d636f6e747261637400000060448201526064016101da565b5081610c23565b610c238383815115614b975781518083602001fd5b8060405162461bcd60e51b81526004016101da9190614eb3565b6001600160a01b0381168114610e71575f80fd5b5f805f8060808587031215614bd8575f80fd5b843593506020850135614bea81614bb1565b9250604085013591506060850135614c0181614bb1565b939692955090935050565b5f60208284031215614c1c575f80fd5b5035919050565b5f8060408385031215614c34575f80fd5b823591506020830135614c4681614bb1565b809150509250929050565b5f60208284031215614c61575f80fd5b81518015158114614c70575f80fd5b9392505050565b6001600160e01b031991909116815260200190565b5f60208284031215614c9c575f80fd5b5051919050565b634e487b7160e01b5f52601160045260245ffd5b5f82614cd157634e487b7160e01b5f52601260045260245ffd5b500490565b8082028115828204841417610d2157610d21614ca3565b81810381811115610d2157610d21614ca3565b634e487b7160e01b5f52603260045260245ffd5b6020808252602b908201527f496e697469616c697a61626c653a20636f6e7472616374206973206e6f74206960408201526a6e697469616c697a696e6760a81b606082015260800190565b602080825260139082015272119959481d1c985b9cd9995c8819985a5b1959606a1b604082015260600190565b80820180821115610d2157610d21614ca3565b60208082526014908201527314d85b19481d1c985b9cd9995c8819985a5b195960621b604082015260600190565b8154815260018201546001600160a01b039081166020830152600283015481166040830152600383015460608301526004830154811660808301526005830154811660a080840191909152600684015460c0840152600784015460e0840152600884015461010084015260099093015490811661012083015290911c60ff1615156101408201526101600190565b5f60208284031215614e6b575f80fd5b8151614c7081614bb1565b5f5b83811015614e90578181015183820152602001614e78565b50505f910152565b5f8251614ea9818460208701614e76565b9190910192915050565b602081525f8251806020840152614ed1816040850160208701614e76565b601f01601f1916919091016040019291505056fee385bd451d65c2a83e10ac72b7e55b458e7698b6261b4be28c248dc8dec380e9a2646970667358221220fd614c6b71354a7c77eff66989c7d6b345f7472ed50b86caa1c94eab47ebe9cc64736f6c63430008190033",
  "linkReferences": {},
  "deployedLinkReferences": {}
}