{
  "_format": "hh-sol-artifact-1",
  "contractName": "FNFTNestable",
  "sourceName": "contracts/RMRK/nestable/FNFTNestable.sol",
  "abi": [
    {
      "inputs": [],
      "name": "FNFTNestableChildIndexOutOfRange",
      "type": "error"
    },
    {
      "anonymous": false,
      "inputs": [
        {
          "indexed": true,
          "internalType": "uint256",
          "name": "tokenId",
          "type": "uint256"
        }
      ],
      "name": "AllChildrenRejected",
      "type": "event"
    },
    {
      "anonymous": false,
      "inputs": [
        {
          "indexed": true,
          "internalType": "address",
          "name": "owner",
          "type": "address"
        },
        {
          "indexed": true,
          "internalType": "address",
          "name": "approved",
          "type": "address"
        },
        {
          "indexed": true,
          "internalType": "uint256",
          "name": "tokenId",
          "type": "uint256"
        }
      ],
      "name": "Approval",
      "type": "event"
    },
    {
      "anonymous": false,
      "inputs": [
        {
          "indexed": true,
          "internalType": "address",
          "name": "owner",
          "type": "address"
        },
        {
          "indexed": true,
          "internalType": "address",
          "name": "operator",
          "type": "address"
        },
        {
          "indexed": false,
          "internalType": "bool",
          "name": "approved",
          "type": "bool"
        }
      ],
      "name": "ApprovalForAll",
      "type": "event"
    },
    {
      "anonymous": false,
      "inputs": [
        {
          "indexed": false,
          "internalType": "uint256",
          "name": "_fromTokenId",
          "type": "uint256"
        },
        {
          "indexed": false,
          "internalType": "uint256",
          "name": "_toTokenId",
          "type": "uint256"
        }
      ],
      "name": "BatchMetadataUpdate",
      "type": "event"
    },
    {
      "anonymous": false,
      "inputs": [
        {
          "indexed": true,
          "internalType": "uint256",
          "name": "tokenId",
          "type": "uint256"
        },
        {
          "indexed": false,
          "internalType": "uint256",
          "name": "childIndex",
          "type": "uint256"
        },
        {
          "indexed": true,
          "internalType": "address",
          "name": "childAddress",
          "type": "address"
        },
        {
          "indexed": true,
          "internalType": "uint256",
          "name": "childId",
          "type": "uint256"
        }
      ],
      "name": "ChildAccepted",
      "type": "event"
    },
    {
      "anonymous": false,
      "inputs": [
        {
          "indexed": true,
          "internalType": "uint256",
          "name": "tokenId",
          "type": "uint256"
        },
        {
          "indexed": false,
          "internalType": "uint256",
          "name": "childIndex",
          "type": "uint256"
        },
        {
          "indexed": true,
          "internalType": "address",
          "name": "childAddress",
          "type": "address"
        },
        {
          "indexed": true,
          "internalType": "uint256",
          "name": "childId",
          "type": "uint256"
        }
      ],
      "name": "ChildProposed",
      "type": "event"
    },
    {
      "anonymous": false,
      "inputs": [
        {
          "indexed": true,
          "internalType": "uint256",
          "name": "tokenId",
          "type": "uint256"
        },
        {
          "indexed": false,
          "internalType": "uint256",
          "name": "childIndex",
          "type": "uint256"
        },
        {
          "indexed": true,
          "internalType": "address",
          "name": "childAddress",
          "type": "address"
        },
        {
          "indexed": true,
          "internalType": "uint256",
          "name": "childId",
          "type": "uint256"
        },
        {
          "indexed": false,
          "internalType": "bool",
          "name": "fromPending",
          "type": "bool"
        },
        {
          "indexed": false,
          "internalType": "bool",
          "name": "toZero",
          "type": "bool"
        }
      ],
      "name": "ChildTransferred",
      "type": "event"
    },
    {
      "anonymous": false,
      "inputs": [
        {
          "indexed": false,
          "internalType": "uint8",
          "name": "version",
          "type": "uint8"
        }
      ],
      "name": "Initialized",
      "type": "event"
    },
    {
      "anonymous": false,
      "inputs": [
        {
          "indexed": false,
          "internalType": "uint256",
          "name": "_tokenId",
          "type": "uint256"
        }
      ],
      "name": "MetadataUpdate",
      "type": "event"
    },
    {
      "anonymous": false,
      "inputs": [
        {
          "indexed": true,
          "internalType": "address",
          "name": "from",
          "type": "address"
        },
        {
          "indexed": true,
          "internalType": "address",
          "name": "to",
          "type": "address"
        },
        {
          "indexed": false,
          "internalType": "uint256",
          "name": "fromTokenId",
          "type": "uint256"
        },
        {
          "indexed": false,
          "internalType": "uint256",
          "name": "toTokenId",
          "type": "uint256"
        },
        {
          "indexed": true,
          "internalType": "uint256",
          "name": "tokenId",
          "type": "uint256"
        }
      ],
      "name": "NestTransfer",
      "type": "event"
    },
    {
      "anonymous": false,
      "inputs": [
        {
          "indexed": true,
          "internalType": "address",
          "name": "previousOwner",
          "type": "address"
        },
        {
          "indexed": true,
          "internalType": "address",
          "name": "newOwner",
          "type": "address"
        }
      ],
      "name": "OwnershipTransferred",
      "type": "event"
    },
    {
      "anonymous": false,
      "inputs": [
        {
          "indexed": false,
          "internalType": "address",
          "name": "account",
          "type": "address"
        }
      ],
      "name": "Paused",
      "type": "event"
    },
    {
      "anonymous": false,
      "inputs": [
        {
          "indexed": true,
          "internalType": "bytes32",
          "name": "role",
          "type": "bytes32"
        },
        {
          "indexed": true,
          "internalType": "bytes32",
          "name": "previousAdminRole",
          "type": "bytes32"
        },
        {
          "indexed": true,
          "internalType": "bytes32",
          "name": "newAdminRole",
          "type": "bytes32"
        }
      ],
      "name": "RoleAdminChanged",
      "type": "event"
    },
    {
      "anonymous": false,
      "inputs": [
        {
          "indexed": true,
          "internalType": "bytes32",
          "name": "role",
          "type": "bytes32"
        },
        {
          "indexed": true,
          "internalType": "address",
          "name": "account",
          "type": "address"
        },
        {
          "indexed": true,
          "internalType": "address",
          "name": "sender",
          "type": "address"
        }
      ],
      "name": "RoleGranted",
      "type": "event"
    },
    {
      "anonymous": false,
      "inputs": [
        {
          "indexed": true,
          "internalType": "bytes32",
          "name": "role",
          "type": "bytes32"
        },
        {
          "indexed": true,
          "internalType": "address",
          "name": "account",
          "type": "address"
        },
        {
          "indexed": true,
          "internalType": "address",
          "name": "sender",
          "type": "address"
        }
      ],
      "name": "RoleRevoked",
      "type": "event"
    },
    {
      "anonymous": false,
      "inputs": [
        {
          "indexed": true,
          "internalType": "address",
          "name": "from",
          "type": "address"
        },
        {
          "indexed": true,
          "internalType": "address",
          "name": "to",
          "type": "address"
        },
        {
          "indexed": true,
          "internalType": "uint256",
          "name": "tokenId",
          "type": "uint256"
        }
      ],
      "name": "Transfer",
      "type": "event"
    },
    {
      "anonymous": false,
      "inputs": [
        {
          "indexed": false,
          "internalType": "address",
          "name": "account",
          "type": "address"
        }
      ],
      "name": "Unpaused",
      "type": "event"
    },
    {
      "inputs": [],
      "name": "DEFAULT_ADMIN_ROLE",
      "outputs": [
        {
          "internalType": "bytes32",
          "name": "",
          "type": "bytes32"
        }
      ],
      "stateMutability": "view",
      "type": "function"
    },
    {
      "inputs": [],
      "name": "MINTER_ROLE",
      "outputs": [
        {
          "internalType": "bytes32",
          "name": "",
          "type": "bytes32"
        }
      ],
      "stateMutability": "view",
      "type": "function"
    },
    {
      "inputs": [],
      "name": "RMRK_INTERFACE",
      "outputs": [
        {
          "internalType": "bytes4",
          "name": "",
          "type": "bytes4"
        }
      ],
      "stateMutability": "view",
      "type": "function"
    },
    {
      "inputs": [],
      "name": "URI_SETTER_ROLE",
      "outputs": [
        {
          "internalType": "bytes32",
          "name": "",
          "type": "bytes32"
        }
      ],
      "stateMutability": "view",
      "type": "function"
    },
    {
      "inputs": [],
      "name": "VERSION",
      "outputs": [
        {
          "internalType": "string",
          "name": "",
          "type": "string"
        }
      ],
      "stateMutability": "view",
      "type": "function"
    },
    {
      "inputs": [
        {
          "internalType": "uint256",
          "name": "parentId",
          "type": "uint256"
        },
        {
          "internalType": "uint256",
          "name": "childIndex",
          "type": "uint256"
        },
        {
          "internalType": "address",
          "name": "childAddress",
          "type": "address"
        },
        {
          "internalType": "uint256",
          "name": "childId",
          "type": "uint256"
        }
      ],
      "name": "acceptChild",
      "outputs": [],
      "stateMutability": "nonpayable",
      "type": "function"
    },
    {
      "inputs": [
        {
          "internalType": "uint256",
          "name": "parentId",
          "type": "uint256"
        },
        {
          "internalType": "uint256",
          "name": "childId",
          "type": "uint256"
        },
        {
          "internalType": "bytes",
          "name": "data",
          "type": "bytes"
        }
      ],
      "name": "addChild",
      "outputs": [],
      "stateMutability": "nonpayable",
      "type": "function"
    },
    {
      "inputs": [
        {
          "internalType": "uint256",
          "name": "tokenId",
          "type": "uint256"
        },
        {
          "internalType": "address",
          "name": "childContract",
          "type": "address"
        },
        {
          "internalType": "uint256",
          "name": "childTokenId",
          "type": "uint256"
        },
        {
          "internalType": "bytes",
          "name": "data",
          "type": "bytes"
        }
      ],
      "name": "addChildNFT",
      "outputs": [],
      "stateMutability": "nonpayable",
      "type": "function"
    },
    {
      "inputs": [
        {
          "internalType": "address",
          "name": "fnftToken",
          "type": "address"
        },
        {
          "internalType": "uint256",
          "name": "payback_",
          "type": "uint256"
        }
      ],
      "name": "addFNFTTokenPayback",
      "outputs": [],
      "stateMutability": "nonpayable",
      "type": "function"
    },
    {
      "inputs": [
        {
          "internalType": "uint256",
          "name": "playlistId",
          "type": "uint256"
        },
        {
          "internalType": "address",
          "name": "_contractAddress",
          "type": "address"
        },
        {
          "internalType": "uint256",
          "name": "_tokenId",
          "type": "uint256"
        }
      ],
      "name": "addNFT",
      "outputs": [],
      "stateMutability": "nonpayable",
      "type": "function"
    },
    {
      "inputs": [
        {
          "internalType": "uint256",
          "name": "playlistId",
          "type": "uint256"
        },
        {
          "internalType": "address[]",
          "name": "_contractAddresses",
          "type": "address[]"
        },
        {
          "internalType": "uint256[]",
          "name": "_tokenIds",
          "type": "uint256[]"
        }
      ],
      "name": "addNFTs",
      "outputs": [],
      "stateMutability": "nonpayable",
      "type": "function"
    },
    {
      "inputs": [
        {
          "internalType": "address",
          "name": "to",
          "type": "address"
        },
        {
          "internalType": "uint256",
          "name": "tokenId",
          "type": "uint256"
        }
      ],
      "name": "approve",
      "outputs": [],
      "stateMutability": "nonpayable",
      "type": "function"
    },
    {
      "inputs": [
        {
          "internalType": "address",
          "name": "owner",
          "type": "address"
        }
      ],
      "name": "balanceOf",
      "outputs": [
        {
          "internalType": "uint256",
          "name": "",
          "type": "uint256"
        }
      ],
      "stateMutability": "view",
      "type": "function"
    },
    {
      "inputs": [
        {
          "internalType": "uint256",
          "name": "tokenId",
          "type": "uint256"
        }
      ],
      "name": "burn",
      "outputs": [],
      "stateMutability": "nonpayable",
      "type": "function"
    },
    {
      "inputs": [
        {
          "internalType": "uint256",
          "name": "tokenId",
          "type": "uint256"
        },
        {
          "internalType": "uint256",
          "name": "maxRecursiveBurns",
          "type": "uint256"
        }
      ],
      "name": "burn",
      "outputs": [
        {
          "internalType": "uint256",
          "name": "",
          "type": "uint256"
        }
      ],
      "stateMutability": "nonpayable",
      "type": "function"
    },
    {
      "inputs": [
        {
          "internalType": "uint256",
          "name": "parentId",
          "type": "uint256"
        },
        {
          "internalType": "uint256",
          "name": "index",
          "type": "uint256"
        }
      ],
      "name": "childOf",
      "outputs": [
        {
          "components": [
            {
              "internalType": "uint256",
              "name": "tokenId",
              "type": "uint256"
            },
            {
              "internalType": "address",
              "name": "contractAddress",
              "type": "address"
            }
          ],
          "internalType": "struct IERC7401.Child",
          "name": "",
          "type": "tuple"
        }
      ],
      "stateMutability": "view",
      "type": "function"
    },
    {
      "inputs": [
        {
          "internalType": "uint256",
          "name": "parentId",
          "type": "uint256"
        }
      ],
      "name": "childrenOf",
      "outputs": [
        {
          "components": [
            {
              "internalType": "uint256",
              "name": "tokenId",
              "type": "uint256"
            },
            {
              "internalType": "address",
              "name": "contractAddress",
              "type": "address"
            }
          ],
          "internalType": "struct IERC7401.Child[]",
          "name": "",
          "type": "tuple[]"
        }
      ],
      "stateMutability": "view",
      "type": "function"
    },
    {
      "inputs": [
        {
          "internalType": "uint256",
          "name": "playlistId",
          "type": "uint256"
        },
        {
          "internalType": "address",
          "name": "_contractAddress",
          "type": "address"
        },
        {
          "internalType": "uint256",
          "name": "_tokenId",
          "type": "uint256"
        }
      ],
      "name": "deleteNFT",
      "outputs": [],
      "stateMutability": "nonpayable",
      "type": "function"
    },
    {
      "inputs": [
        {
          "internalType": "uint256",
          "name": "playlistId",
          "type": "uint256"
        },
        {
          "internalType": "address[]",
          "name": "_contractAddresses",
          "type": "address[]"
        },
        {
          "internalType": "uint256[]",
          "name": "_tokenIds",
          "type": "uint256[]"
        }
      ],
      "name": "deleteNFTs",
      "outputs": [],
      "stateMutability": "nonpayable",
      "type": "function"
    },
    {
      "inputs": [
        {
          "internalType": "uint256",
          "name": "tokenId",
          "type": "uint256"
        }
      ],
      "name": "directOwnerOf",
      "outputs": [
        {
          "internalType": "address",
          "name": "",
          "type": "address"
        },
        {
          "internalType": "uint256",
          "name": "",
          "type": "uint256"
        },
        {
          "internalType": "bool",
          "name": "",
          "type": "bool"
        }
      ],
      "stateMutability": "view",
      "type": "function"
    },
    {
      "inputs": [],
      "name": "fnftTokens",
      "outputs": [
        {
          "internalType": "address[]",
          "name": "",
          "type": "address[]"
        }
      ],
      "stateMutability": "view",
      "type": "function"
    },
    {
      "inputs": [
        {
          "internalType": "uint256",
          "name": "tokenId",
          "type": "uint256"
        }
      ],
      "name": "getApproved",
      "outputs": [
        {
          "internalType": "address",
          "name": "",
          "type": "address"
        }
      ],
      "stateMutability": "view",
      "type": "function"
    },
    {
      "inputs": [
        {
          "internalType": "uint256",
          "name": "playlistId",
          "type": "uint256"
        }
      ],
      "name": "getPlaylist",
      "outputs": [
        {
          "components": [
            {
              "internalType": "address",
              "name": "contractAddress",
              "type": "address"
            },
            {
              "internalType": "uint256",
              "name": "tokenId",
              "type": "uint256"
            }
          ],
          "internalType": "struct NFTPlaylist.NFT[]",
          "name": "",
          "type": "tuple[]"
        }
      ],
      "stateMutability": "view",
      "type": "function"
    },
    {
      "inputs": [
        {
          "internalType": "uint256",
          "name": "playlistId",
          "type": "uint256"
        }
      ],
      "name": "getPlaylistCount",
      "outputs": [
        {
          "internalType": "uint256",
          "name": "",
          "type": "uint256"
        }
      ],
      "stateMutability": "view",
      "type": "function"
    },
    {
      "inputs": [
        {
          "internalType": "bytes32",
          "name": "role",
          "type": "bytes32"
        }
      ],
      "name": "getRoleAdmin",
      "outputs": [
        {
          "internalType": "bytes32",
          "name": "",
          "type": "bytes32"
        }
      ],
      "stateMutability": "view",
      "type": "function"
    },
    {
      "inputs": [
        {
          "internalType": "uint256",
          "name": "tokenId",
          "type": "uint256"
        }
      ],
      "name": "getScoreAverage",
      "outputs": [
        {
          "internalType": "uint256",
          "name": "",
          "type": "uint256"
        }
      ],
      "stateMutability": "view",
      "type": "function"
    },
    {
      "inputs": [
        {
          "internalType": "uint256",
          "name": "tokenId",
          "type": "uint256"
        }
      ],
      "name": "getScoreCount",
      "outputs": [
        {
          "internalType": "uint256",
          "name": "",
          "type": "uint256"
        }
      ],
      "stateMutability": "view",
      "type": "function"
    },
    {
      "inputs": [
        {
          "internalType": "bytes32",
          "name": "role",
          "type": "bytes32"
        },
        {
          "internalType": "address",
          "name": "account",
          "type": "address"
        }
      ],
      "name": "grantRole",
      "outputs": [],
      "stateMutability": "nonpayable",
      "type": "function"
    },
    {
      "inputs": [
        {
          "internalType": "bytes32",
          "name": "role",
          "type": "bytes32"
        },
        {
          "internalType": "address",
          "name": "account",
          "type": "address"
        }
      ],
      "name": "hasRole",
      "outputs": [
        {
          "internalType": "bool",
          "name": "",
          "type": "bool"
        }
      ],
      "stateMutability": "view",
      "type": "function"
    },
    {
      "inputs": [
        {
          "internalType": "string",
          "name": "name_",
          "type": "string"
        },
        {
          "internalType": "string",
          "name": "symbol_",
          "type": "string"
        }
      ],
      "name": "initialize",
      "outputs": [],
      "stateMutability": "nonpayable",
      "type": "function"
    },
    {
      "inputs": [
        {
          "internalType": "address",
          "name": "owner",
          "type": "address"
        },
        {
          "internalType": "address",
          "name": "operator",
          "type": "address"
        }
      ],
      "name": "isApprovedForAll",
      "outputs": [
        {
          "internalType": "bool",
          "name": "",
          "type": "bool"
        }
      ],
      "stateMutability": "view",
      "type": "function"
    },
    {
      "inputs": [
        {
          "internalType": "address",
          "name": "recipient",
          "type": "address"
        },
        {
          "internalType": "string",
          "name": "uri",
          "type": "string"
        }
      ],
      "name": "mint",
      "outputs": [
        {
          "internalType": "uint256",
          "name": "",
          "type": "uint256"
        }
      ],
      "stateMutability": "nonpayable",
      "type": "function"
    },
    {
      "inputs": [],
      "name": "name",
      "outputs": [
        {
          "internalType": "string",
          "name": "",
          "type": "string"
        }
      ],
      "stateMutability": "view",
      "type": "function"
    },
    {
      "inputs": [
        {
          "internalType": "address",
          "name": "from",
          "type": "address"
        },
        {
          "internalType": "address",
          "name": "to",
          "type": "address"
        },
        {
          "internalType": "uint256",
          "name": "tokenId",
          "type": "uint256"
        },
        {
          "internalType": "uint256",
          "name": "destinationId",
          "type": "uint256"
        },
        {
          "internalType": "bytes",
          "name": "data",
          "type": "bytes"
        }
      ],
      "name": "nestTransferFrom",
      "outputs": [],
      "stateMutability": "nonpayable",
      "type": "function"
    },
    {
      "inputs": [],
      "name": "owner",
      "outputs": [
        {
          "internalType": "address",
          "name": "",
          "type": "address"
        }
      ],
      "stateMutability": "view",
      "type": "function"
    },
    {
      "inputs": [
        {
          "internalType": "uint256",
          "name": "tokenId",
          "type": "uint256"
        }
      ],
      "name": "ownerOf",
      "outputs": [
        {
          "internalType": "address",
          "name": "",
          "type": "address"
        }
      ],
      "stateMutability": "view",
      "type": "function"
    },
    {
      "inputs": [],
      "name": "paused",
      "outputs": [
        {
          "internalType": "bool",
          "name": "",
          "type": "bool"
        }
      ],
      "stateMutability": "view",
      "type": "function"
    },
    {
      "inputs": [
        {
          "internalType": "address",
          "name": "fnftToken",
          "type": "address"
        }
      ],
      "name": "payback",
      "outputs": [
        {
          "internalType": "uint256",
          "name": "",
          "type": "uint256"
        }
      ],
      "stateMutability": "view",
      "type": "function"
    },
    {
      "inputs": [
        {
          "internalType": "uint256",
          "name": "parentId",
          "type": "uint256"
        },
        {
          "internalType": "uint256",
          "name": "index",
          "type": "uint256"
        }
      ],
      "name": "pendingChildOf",
      "outputs": [
        {
          "components": [
            {
              "internalType": "uint256",
              "name": "tokenId",
              "type": "uint256"
            },
            {
              "internalType": "address",
              "name": "contractAddress",
              "type": "address"
            }
          ],
          "internalType": "struct IERC7401.Child",
          "name": "",
          "type": "tuple"
        }
      ],
      "stateMutability": "view",
      "type": "function"
    },
    {
      "inputs": [
        {
          "internalType": "uint256",
          "name": "parentId",
          "type": "uint256"
        }
      ],
      "name": "pendingChildrenOf",
      "outputs": [
        {
          "components": [
            {
              "internalType": "uint256",
              "name": "tokenId",
              "type": "uint256"
            },
            {
              "internalType": "address",
              "name": "contractAddress",
              "type": "address"
            }
          ],
          "internalType": "struct IERC7401.Child[]",
          "name": "",
          "type": "tuple[]"
        }
      ],
      "stateMutability": "view",
      "type": "function"
    },
    {
      "inputs": [
        {
          "internalType": "uint256",
          "name": "",
          "type": "uint256"
        },
        {
          "internalType": "address",
          "name": "",
          "type": "address"
        },
        {
          "internalType": "uint256",
          "name": "",
          "type": "uint256"
        }
      ],
      "name": "playlistNFTs",
      "outputs": [
        {
          "internalType": "bool",
          "name": "",
          "type": "bool"
        }
      ],
      "stateMutability": "view",
      "type": "function"
    },
    {
      "inputs": [
        {
          "internalType": "uint256",
          "name": "",
          "type": "uint256"
        },
        {
          "internalType": "uint256",
          "name": "",
          "type": "uint256"
        }
      ],
      "name": "playlists",
      "outputs": [
        {
          "internalType": "address",
          "name": "contractAddress",
          "type": "address"
        },
        {
          "internalType": "uint256",
          "name": "tokenId",
          "type": "uint256"
        }
      ],
      "stateMutability": "view",
      "type": "function"
    },
    {
      "inputs": [
        {
          "internalType": "uint256",
          "name": "parentId",
          "type": "uint256"
        },
        {
          "internalType": "uint256",
          "name": "maxRejections",
          "type": "uint256"
        }
      ],
      "name": "rejectAllChildren",
      "outputs": [],
      "stateMutability": "nonpayable",
      "type": "function"
    },
    {
      "inputs": [
        {
          "internalType": "address",
          "name": "fnftToken",
          "type": "address"
        },
        {
          "internalType": "uint256",
          "name": "payback_",
          "type": "uint256"
        }
      ],
      "name": "removeFNFTTokenPayback",
      "outputs": [],
      "stateMutability": "nonpayable",
      "type": "function"
    },
    {
      "inputs": [],
      "name": "renounceOwnership",
      "outputs": [],
      "stateMutability": "nonpayable",
      "type": "function"
    },
    {
      "inputs": [
        {
          "internalType": "bytes32",
          "name": "role",
          "type": "bytes32"
        },
        {
          "internalType": "address",
          "name": "account",
          "type": "address"
        }
      ],
      "name": "renounceRole",
      "outputs": [],
      "stateMutability": "nonpayable",
      "type": "function"
    },
    {
      "inputs": [
        {
          "internalType": "bytes32",
          "name": "role",
          "type": "bytes32"
        },
        {
          "internalType": "address",
          "name": "account",
          "type": "address"
        }
      ],
      "name": "revokeRole",
      "outputs": [],
      "stateMutability": "nonpayable",
      "type": "function"
    },
    {
      "inputs": [
        {
          "internalType": "address",
          "name": "to",
          "type": "address"
        },
        {
          "internalType": "string",
          "name": "uri",
          "type": "string"
        }
      ],
      "name": "safeMint",
      "outputs": [],
      "stateMutability": "nonpayable",
      "type": "function"
    },
    {
      "inputs": [
        {
          "internalType": "address",
          "name": "from",
          "type": "address"
        },
        {
          "internalType": "address",
          "name": "to",
          "type": "address"
        },
        {
          "internalType": "uint256",
          "name": "tokenId",
          "type": "uint256"
        }
      ],
      "name": "safeTransferFrom",
      "outputs": [],
      "stateMutability": "nonpayable",
      "type": "function"
    },
    {
      "inputs": [
        {
          "internalType": "address",
          "name": "from",
          "type": "address"
        },
        {
          "internalType": "address",
          "name": "to",
          "type": "address"
        },
        {
          "internalType": "uint256",
          "name": "tokenId",
          "type": "uint256"
        },
        {
          "internalType": "bytes",
          "name": "data",
          "type": "bytes"
        }
      ],
      "name": "safeTransferFrom",
      "outputs": [],
      "stateMutability": "nonpayable",
      "type": "function"
    },
    {
      "inputs": [
        {
          "internalType": "address",
          "name": "operator",
          "type": "address"
        },
        {
          "internalType": "bool",
          "name": "approved",
          "type": "bool"
        }
      ],
      "name": "setApprovalForAll",
      "outputs": [],
      "stateMutability": "nonpayable",
      "type": "function"
    },
    {
      "inputs": [
        {
          "internalType": "address[]",
          "name": "operators",
          "type": "address[]"
        },
        {
          "internalType": "uint256",
          "name": "id",
          "type": "uint256"
        },
        {
          "internalType": "bool",
          "name": "approved",
          "type": "bool"
        }
      ],
      "name": "setApprovalsForAll",
      "outputs": [],
      "stateMutability": "nonpayable",
      "type": "function"
    },
    {
      "inputs": [
        {
          "internalType": "uint256",
          "name": "tokenId",
          "type": "uint256"
        },
        {
          "internalType": "uint8",
          "name": "score",
          "type": "uint8"
        }
      ],
      "name": "setScore",
      "outputs": [],
      "stateMutability": "nonpayable",
      "type": "function"
    },
    {
      "inputs": [
        {
          "internalType": "bytes4",
          "name": "interfaceId",
          "type": "bytes4"
        }
      ],
      "name": "supportsInterface",
      "outputs": [
        {
          "internalType": "bool",
          "name": "",
          "type": "bool"
        }
      ],
      "stateMutability": "view",
      "type": "function"
    },
    {
      "inputs": [],
      "name": "symbol",
      "outputs": [
        {
          "internalType": "string",
          "name": "",
          "type": "string"
        }
      ],
      "stateMutability": "view",
      "type": "function"
    },
    {
      "inputs": [
        {
          "internalType": "uint256",
          "name": "tokenId",
          "type": "uint256"
        }
      ],
      "name": "tokenURI",
      "outputs": [
        {
          "internalType": "string",
          "name": "",
          "type": "string"
        }
      ],
      "stateMutability": "view",
      "type": "function"
    },
    {
      "inputs": [
        {
          "internalType": "uint256",
          "name": "tokenId",
          "type": "uint256"
        },
        {
          "internalType": "address",
          "name": "to",
          "type": "address"
        },
        {
          "internalType": "uint256",
          "name": "destinationId",
          "type": "uint256"
        },
        {
          "internalType": "uint256",
          "name": "childIndex",
          "type": "uint256"
        },
        {
          "internalType": "address",
          "name": "childAddress",
          "type": "address"
        },
        {
          "internalType": "uint256",
          "name": "childId",
          "type": "uint256"
        },
        {
          "internalType": "bool",
          "name": "isPending",
          "type": "bool"
        },
        {
          "internalType": "bytes",
          "name": "data",
          "type": "bytes"
        }
      ],
      "name": "transferChild",
      "outputs": [],
      "stateMutability": "nonpayable",
      "type": "function"
    },
    {
      "inputs": [
        {
          "internalType": "address",
          "name": "from",
          "type": "address"
        },
        {
          "internalType": "address",
          "name": "to",
          "type": "address"
        },
        {
          "internalType": "uint256",
          "name": "tokenId",
          "type": "uint256"
        }
      ],
      "name": "transferFrom",
      "outputs": [],
      "stateMutability": "nonpayable",
      "type": "function"
    },
    {
      "inputs": [
        {
          "internalType": "address",
          "name": "newOwner",
          "type": "address"
        }
      ],
      "name": "transferOwnership",
      "outputs": [],
      "stateMutability": "nonpayable",
      "type": "function"
    }
  ],
  "bytecode": "0x6080604052348015600e575f80fd5b506156f88061001c5f395ff3fe608060405234801561000f575f80fd5b5060043610610388575f3560e01c80637f345710116101df578063b88d4fde11610109578063d733ddc3116100a9578063f2fde38b11610079578063f2fde38b146108c2578063f324796f146108d5578063fb25fb7a146108e8578063ffa1ad7414610922575f80fd5b8063d733ddc31461084e578063defa80c314610861578063e97ceaa814610874578063e985e9c514610887575f80fd5b8063d0def521116100e4578063d0def521146107ee578063d204c45e14610801578063d539139314610814578063d547741f1461083b575f80fd5b8063b88d4fde146107a8578063bc47bcfa146107bb578063c87b56dd146107db575f80fd5b8063979613361161017f578063a898e3641161014f578063a898e3641461075c578063aacf4af81461076f578063af50c82f14610782578063b390c0ab14610795575f80fd5b8063979613361461071c5780639dfceb281461072f578063a217fddf14610742578063a22cb46514610749575f80fd5b80638da5cb5b116101ba5780638da5cb5b146106dd57806391d14854146106ee57806395b258691461070157806395d89b4114610714575f80fd5b80637f3457101461067a5780638b40eb53146106a15780638d4f3bf5146106b6575f80fd5b806336568abe116102c05780635c975abb116102605780636f19951c116102305780636f19951c1461063957806370a082311461064c578063715018a61461065f578063734570ca14610667575f80fd5b80635c975abb146105d55780636352211e146105e1578063635490cc146105f457806368d6199014610607575f80fd5b806342966c681161029b57806342966c681461055b57806344ec93441461056e5780634cd88b761461058e578063523b7dd1146105a1575f80fd5b806336568abe146105225780633f87cef21461053557806342842e0e14610548575f80fd5b8063248a9ca31161032b5780632f2ff15d116103065780632f2ff15d146104b35780632f32f937146104c657806333f572f4146104e657806334044ea9146104f9575f80fd5b8063248a9ca31461045d5780632b9169dd146104805780632bcc1b30146104a0575f80fd5b8063081812fc11610366578063081812fc146103de578063095ea7b314610409578063197f64bf1461041c57806323b872dd1461044a575f80fd5b806301ffc9a71461038c578063064c0a3a146103b457806306fdde03146103c9575b5f80fd5b61039f61039a366004614833565b610946565b60405190151581526020015b60405180910390f35b6103c76103c2366004614911565b61098b565b005b6103d1610b1d565b6040516103ab91906149ce565b6103f16103ec3660046149e0565b610bad565b6040516001600160a01b0390911681526020016103ab565b6103c76104173660046149f7565b610bd2565b61043c61042a3660046149e0565b5f9081526101c3602052604090205490565b6040519081526020016103ab565b6103c7610458366004614a21565b610ce6565b61043c61046b3660046149e0565b5f90815261015f602052604090206001015490565b61049361048e3660046149e0565b610d17565b6040516103ab9190614a5f565b6103c76104ae366004614ab6565b610d9c565b6103c76104c1366004614b14565b611127565b6104d96104d4366004614b42565b61114c565b6040516103ab9190614b62565b6103c76104f4366004614b82565b6111e6565b61043c610507366004614ba6565b6001600160a01b03165f9081526101c6602052604090205490565b6103c7610530366004614b14565b611439565b6103c7610543366004614c58565b6114b7565b6103c7610556366004614a21565b6115ae565b6103c76105693660046149e0565b6115c8565b61058161057c3660046149e0565b6115d4565b6040516103ab9190614d13565b6103c761059c366004614d65565b61164e565b61039f6105af366004614b82565b6101c460209081525f938452604080852082529284528284209052825290205460ff1681565b61012d5460ff1661039f565b6103f16105ef3660046149e0565b61175c565b6103c7610602366004614dc4565b6117a8565b61061a610615366004614b42565b611939565b604080516001600160a01b0390931683526020830191909152016103ab565b6105816106473660046149e0565b61197c565b61043c61065a366004614ba6565b6119ee565b6103c7611a72565b6103c7610675366004614c58565b611a85565b61043c7f7804d923f43a17d325d77e781528e0793b2edd9890ab45fc64efd7b4b427744c81565b6106a9611b76565b6040516103ab9190614e0f565b6106c463524d524b60e01b81565b6040516001600160e01b031990911681526020016103ab565b60fb546001600160a01b03166103f1565b61039f6106fc366004614b14565b611bd6565b6103c761070f366004614b82565b611c01565b6103d1611d09565b6103c761072a366004614b42565b611d18565b6103c761073d3660046149f7565b611df4565b61043c5f81565b6103c7610757366004614e68565b611fbd565b6104d961076a366004614b42565b611fc8565b61043c61077d3660046149e0565b612062565b6103c76107903660046149f7565b6120ee565b61043c6107a3366004614b42565b6121b5565b6103c76107b6366004614e94565b61237d565b61043c6107c93660046149e0565b5f9081526101c9602052604090205490565b6103d16107e93660046149e0565b6123ae565b61043c6107fc366004614ec2565b6123b9565b6103c761080f366004614ec2565b6123f1565b61043c7f9f2df0fed2c77648de5860a4cc508cd0818c85b8b8a1ab4ceeef8d981c8956a681565b6103c7610849366004614b14565b612460565b6103c761085c366004614f04565b612485565b6103c761086f366004614f5a565b612682565b6103c7610882366004614fef565b6128b9565b61039f61089536600461502b565b6001600160a01b039182165f908152606a6020908152604080832093909416825291909152205460ff1690565b6103c76108d0366004614ba6565b612bd8565b6103c76108e3366004615057565b612c4e565b6108fb6108f63660046149e0565b612e46565b604080516001600160a01b03909416845260208401929092521515908201526060016103ab565b6103d1604051806040016040528060058152602001640322e302e360dc1b81525081565b5f6001600160e01b031982166342b0e56f60e01b148061097657506001600160e01b0319821663524d524b60e01b145b80610985575061098582612ebb565b92915050565b5f6109958461175c565b90506109a2335b85612ee5565b806109be5750856001600160a01b0316816001600160a01b0316145b610a295760405162461bcd60e51b815260206004820152603160248201527f4552433732313a207472616e736665722063616c6c6572206973206e6f74206f6044820152701ddb995c881b9bdc88185c1c1c9bdd9959607a1b60648201526084015b60405180910390fd5b5f8481526101cc6020526040902054610a448787878661237d565b8315610a9a576040805180820182528581526001600160a01b0388811660208084019182525f8a81526101cc90915293909320915182559151600190910180546001600160a01b03191691909216179055610abd565b5f8581526101cc6020526040812090815560010180546001600160a01b03191690555b84866001600160a01b0316886001600160a01b03167f04444026cefd1b05506559cab59d1b865ae3ba4ed2fe5c894f04e522776c552d8488604051610b0c929190918252602082015260400190565b60405180910390a450505050505050565b606060658054610b2c9061507f565b80601f0160208091040260200160405190810160405280929190818152602001828054610b589061507f565b8015610ba35780601f10610b7a57610100808354040283529160200191610ba3565b820191905f5260205f20905b815481529060010190602001808311610b8657829003601f168201915b5050505050905090565b5f610bb782612f62565b505f908152606960205260409020546001600160a01b031690565b5f610bdc82612fb2565b9050806001600160a01b0316836001600160a01b031603610c495760405162461bcd60e51b815260206004820152602160248201527f4552433732313a20617070726f76616c20746f2063757272656e74206f776e656044820152603960f91b6064820152608401610a20565b336001600160a01b0382161480610c655750610c658133610895565b610cd75760405162461bcd60e51b815260206004820152603d60248201527f4552433732313a20617070726f76652063616c6c6572206973206e6f7420746f60448201527f6b656e206f776e6572206f7220617070726f76656420666f7220616c6c0000006064820152608401610a20565b610ce18383613011565b505050565b610cf03382612ee5565b610d0c5760405162461bcd60e51b8152600401610a20906150b7565b610ce183838361307e565b60606101c35f8381526020019081526020015f20805480602002602001604051908101604052809291908181526020015f905b82821015610d91575f848152602090819020604080518082019091526002850290910180546001600160a01b03168252600190810154828401529083529092019101610d4a565b505050509050919050565b610da5846131e0565b610df15760405162461bcd60e51b815260206004820152601e60248201527f464e46544e65737461626c653a20696e76616c696420746f6b656e20494400006044820152606401610a20565b610dfa8461175c565b6001600160a01b0316336001600160a01b031614610e6a5760405162461bcd60e51b815260206004820152602760248201527f464e46544e65737461626c653a2063616c6c6572206973206e6f7420746f6b65604482015266371037bbb732b960c91b6064820152608401610a20565b336040516331a9108f60e11b8152600481018490526001600160a01b0391821691851690636352211e90602401602060405180830381865afa158015610eb2573d5f803e3d5ffd5b505050506040513d601f19601f82011682018060405250810190610ed69190615104565b6001600160a01b031614610f425760405162461bcd60e51b815260206004820152602d60248201527f464e46544e65737461626c653a2063616c6c6572206973206e6f74206368696c60448201526c32103a37b5b2b71037bbb732b960991b6064820152608401610a20565b6001600160a01b0383166323b872dd336040516001600160e01b031960e084901b1681526001600160a01b039091166004820152306024820152604481018590526064015f604051808303815f87803b158015610f9d575f80fd5b505af1158015610faf573d5f803e3d5ffd5b50506040516301ffc9a760e01b81526342b0e56f60e01b60048201526001600160a01b03861692506301ffc9a79150602401602060405180830381865afa158015610ffc573d5f803e3d5ffd5b505050506040513d601f19601f82011682018060405250810190611020919061511f565b15611071576040805180820182528581523060208083019182525f8681526101cc90915292909220905181559051600190910180546001600160a01b0319166001600160a01b039092169190911790555b6040805180820182528381526001600160a01b0385811660208084019182525f8981526101cd82529485208054600180820183559187529190952084516002909202019081559051930180546001600160a01b03191693909116929092179091558230336001600160a01b03167f04444026cefd1b05506559cab59d1b865ae3ba4ed2fe5c894f04e522776c552d5f89604051611118929190918252602082015260400190565b60405180910390a45050505050565b5f82815261015f6020526040902060010154611142816131fc565b610ce18383613206565b604080518082019091525f80825260208201525f8381526101cd6020526040902054821061118c5760405162461bcd60e51b8152600401610a209061513a565b5f8381526101cd602052604090208054839081106111ac576111ac615171565b5f9182526020918290206040805180820190915260029092020180548252600101546001600160a01b031691810191909152905092915050565b5f8381526101c4602090815260408083206001600160a01b0386168452825280832084845290915290205460ff166112565760405162461bcd60e51b8152602060048201526013602482015272139195081b9bdd081a5b881c1b185e5b1a5cdd606a1b6044820152606401610a20565b5f805b5f8581526101c36020526040902054811015611306575f8581526101c36020526040902080546001600160a01b03861691908390811061129b5761129b615171565b5f9182526020909120600290910201546001600160a01b03161480156112f157505f8581526101c3602052604090208054849190839081106112df576112df615171565b905f5260205f20906002020160010154145b156112fe57809150611306565b600101611259565b505f8481526101c3602052604090205461132290600190615199565b8110156113bc575f8481526101c360205260409020805461134590600190615199565b8154811061135557611355615171565b905f5260205f2090600202016101c35f8681526020019081526020015f20828154811061138457611384615171565b5f9182526020909120825460029092020180546001600160a01b0319166001600160a01b039092169190911781556001918201549101555b5f8481526101c3602052604090208054806113d9576113d96151ac565b5f828152602080822060025f199094019384020180546001600160a01b0319168155600101829055919092559481526101c4855260408082206001600160a01b039590951682529385528381209281529190935220805460ff1916905550565b6001600160a01b03811633146114a95760405162461bcd60e51b815260206004820152602f60248201527f416363657373436f6e74726f6c3a2063616e206f6e6c792072656e6f756e636560448201526e103937b632b9903337b91039b2b63360891b6064820152608401610a20565b6114b3828261328c565b5050565b80518251146115085760405162461bcd60e51b815260206004820181905260248201527f417272617973206d7573742068617665207468652073616d65206c656e6774686044820152606401610a20565b5f8251116115585760405162461bcd60e51b815260206004820152601c60248201527f417272617973206d7573742068617665206c656e67746873203e2030000000006044820152606401610a20565b5f5b82518110156115a8576115a08484838151811061157957611579615171565b602002602001015184848151811061159357611593615171565b6020026020010151611c01565b60010161155a565b50505050565b610ce183838360405180602001604052805f81525061237d565b6115d1816132f3565b50565b60606101ce5f8381526020019081526020015f20805480602002602001604051908101604052809291908181526020015f905b82821015610d91575f8481526020908190206040805180820190915260028502909101805482526001908101546001600160a01b0316828401529083529092019101611607565b5f54610100900460ff161580801561166c57505f54600160ff909116105b806116855750303b15801561168557505f5460ff166001145b6116e85760405162461bcd60e51b815260206004820152602e60248201527f496e697469616c697a61626c653a20636f6e747261637420697320616c72656160448201526d191e481a5b9a5d1a585b1a5e995960921b6064820152608401610a20565b5f805460ff191660011790558015611709575f805461ff0019166101001790555b61171383836132fc565b8015610ce1575f805461ff0019169055604051600181527f7f26b83ff96e1f2b6a682f133852f6798a09c465da95921460cefb38474024989060200160405180910390a1505050565b5f8061176783612fb2565b5f8481526101cc60205260409020549091505b80156117a15761178981612fb2565b5f9182526101cc60205260409091205490915061177a565b5092915050565b6117b1836131e0565b6118095760405162461bcd60e51b815260206004820152602360248201527f4552433732313a20706172656e7420746f6b656e20646f6573206e6f742065786044820152621a5cdd60ea1b6064820152608401610a20565b306118138361175c565b6001600160a01b03161461187c5760405162461bcd60e51b815260206004820152602a60248201527f4368696c6420746f6b656e206d757374206265206f776e6564206279207468696044820152691cc818dbdb9d1c9858dd60b21b6064820152608401610a20565b5f60405180604001604052808481526020016118953390565b6001600160a01b039081169091525f8681526101ce60209081526040822080546001808201835582855283852087516002909302019182559286015190830180546001600160a01b03191691909516179093559087905290549192508491339187917fe65085e689b77b126ba0bac3b079aa8288f19f4d5445af11c76003f8ab3075dd9161192291615199565b60405190815260200160405180910390a450505050565b6101c3602052815f5260405f208181548110611953575f80fd5b5f918252602090912060029091020180546001909101546001600160a01b039091169250905082565b5f8181526101cd60209081526040808320805482518185028101850190935280835260609492939192909184018215610d91575f8481526020908190206040805180820190915260028502909101805482526001908101546001600160a01b0316828401529083529092019101611607565b5f6001600160a01b038216611a575760405162461bcd60e51b815260206004820152602960248201527f4552433732313a2061646472657373207a65726f206973206e6f7420612076616044820152683634b21037bbb732b960b91b6064820152608401610a20565b506001600160a01b03165f9081526068602052604090205490565b611a7a6133c2565b611a835f61341c565b565b8051825114611ad65760405162461bcd60e51b815260206004820181905260248201527f417272617973206d7573742068617665207468652073616d65206c656e6774686044820152606401610a20565b5f825111611b265760405162461bcd60e51b815260206004820152601c60248201527f417272617973206d7573742068617665206c656e67746873203e2030000000006044820152606401610a20565b5f5b82518110156115a857611b6e84848381518110611b4757611b47615171565b6020026020010151848481518110611b6157611b61615171565b60200260200101516111e6565b600101611b28565b60606101c5805480602002602001604051908101604052809291908181526020018280548015610ba357602002820191905f5260205f20905b81546001600160a01b03168152600190910190602001808311611baf575050505050905090565b5f91825261015f602090815260408084206001600160a01b0393909316845291905290205460ff1690565b5f8381526101c4602090815260408083206001600160a01b0386168452825280832084845290915290205460ff1615611c7c5760405162461bcd60e51b815260206004820152601760248201527f4e465420616c726561647920696e20706c61796c6973740000000000000000006044820152606401610a20565b5f8381526101c360209081526040808320815180830183526001600160a01b039687168082528185018781528354600180820186559488528688209351600290910290930180546001600160a01b031916939099169290921788559051968201969096559583526101c482528083209483529381528382209282529190915220805460ff19169091179055565b606060668054610b2c9061507f565b611d23335b83612ee5565b611d3f5760405162461bcd60e51b8152600401610a20906150b7565b5f8281526101ce60205260408120548211611d5a5781611d6a565b5f8381526101ce60205260409020545b90505f5b81811015611dc4575f8481526101ce60205260409020805480611d9357611d936151ac565b5f8281526020812060025f1990930192830201908155600190810180546001600160a01b0319169055915501611d6e565b5060405183907f8ac4a0d65950c3e40448afb2260e2e0ec36ea15644d9b39e37e85472e5f94451905f90a2505050565b5f8111611e435760405162461bcd60e51b815260206004820152601e60248201527f5061796261636b206d7573742062652067726561746572207468616e203000006044820152606401610a20565b611e65604051806060016040528060218152602001615672602191398361346d565b611e8a60405180606001604052806031815260200161560f603191396101c5546134b2565b611ec46040518060600160405280603381526020016155dc603391396001600160a01b0384165f9081526101c660205260409020546134b2565b6001600160a01b0382165f9081526101c660205260408120549003611f2f576101c580546001810182555f919091527f818f40e4590a6f2c3ec1caee0533b9960911937d8dd67c8f1447b1392a84f2530180546001600160a01b0319166001600160a01b0384161790555b611f54604051806060016040528060308152602001615693603091396101c5546134b2565b6001600160a01b0382165f9081526101c6602052604081208054839290611f7c9084906151c0565b925050819055506114b3604051806060016040528060328152602001615640603291396001600160a01b0384165f9081526101c660205260409020546134b2565b6114b33383836134f7565b604080518082019091525f80825260208201525f8381526101ce602052604090205482106120425760405162461bcd60e51b815260206004820152602160248201527f50656e64696e67206368696c6420696e646578206f7574206f6620626f756e646044820152607360f81b6064820152608401610a20565b5f8381526101ce602052604090208054839081106111ac576111ac615171565b5f8181526101c960205260408120546120c85760405162461bcd60e51b815260206004820152602260248201527f4e6f2073636f72657320617661696c61626c6520666f72207468697320746f6b60448201526132b760f11b6064820152608401610a20565b5f8281526101c960209081526040808320546101c89092529091205461098591906151d3565b6001600160a01b0382165f9081526101c660205260409020548111156121605760405162461bcd60e51b815260206004820152602160248201527f5061796261636b206d7573742072656d61696e207a65726f206f72206d6f72656044820152601760f91b6064820152608401610a20565b6001600160a01b0382165f9081526101c6602052604081208054839290612188908490615199565b90915550506001600160a01b0382165f9081526101c6602052604081205490036114b3576114b3826135c4565b5f6121c03384612ee5565b6121dc5760405162461bcd60e51b8152600401610a20906150b7565b5f8381526101cd6020908152604080832080548251818502810185019093528083528493849084015b8282101561224c575f8481526020908190206040805180820190915260028502909101805482526001908101546001600160a01b0316828401529083529092019101612205565b5050505090505f5b81518110801561226357508483105b15612331575f82828151811061227b5761227b615171565b602002602001015190505f81602001519050806001600160a01b031663b390c0ab835f0151878a6122ac9190615199565b6040516001600160e01b031960e085901b168152600481019290925260248201526044016020604051808303815f875af11580156122ec573d5f803e3d5ffd5b505050506040513d601f19601f8201168201806040525081019061231091906151f2565b61231a90866151c0565b94505050808061232990615209565b915050612254565b505f8581526101cd602052604081206123499161478b565b5f8581526101ce602052604081206123609161478b565b612369856132f3565b6123748260016151c0565b95945050505050565b61238633611d1d565b6123a25760405162461bcd60e51b8152600401610a20906150b7565b6115a884848484613724565b606061098582613757565b5f6123c96101cb80546001019055565b5f6123d46101cb5490565b90506123e08482613859565b6123ea81846139c5565b9392505050565b6124006101ca80546001019055565b5f61240b6101ca5490565b905061244c6040518060400160405280601e81526020017f5469704552433732313a20736166654d696e7420746f6b656e4964203d200000815250826134b2565b6124568382613a80565b610ce181836139c5565b5f82815261015f602052604090206001015461247b816131fc565b610ce1838361328c565b6040516331a9108f60e11b8152600481018390523090636352211e90602401602060405180830381865afa1580156124bf573d5f803e3d5ffd5b505050506040513d601f19601f820116820180604052508101906124e39190615104565b6001600160a01b0316336001600160a01b03161461254e5760405162461bcd60e51b815260206004820152602260248201527f43616c6c6572206973206e6f7420746865206f776e6572206f6620746865204e604482015261119560f21b6064820152608401610a20565b5f5b83518110156115a8575f306001600160a01b031685838151811061257657612576615171565b60209081029190910101516040516001600160a01b039091166024820152841515604482015260640160408051601f198184030181529181526020820180516001600160e01b031663a22cb46560e01b179052516125d49190615221565b5f60405180830381855af49150503d805f811461260c576040519150601f19603f3d011682016040523d82523d5f602084013e612611565b606091505b50509050806126795760405162461bcd60e51b815260206004820152602e60248201527f556e61626c6520746f20617070726f766520616c6c20676976656e207469707460448201526d6f6b656e20636f6e74726163747360901b6064820152608401610a20565b50600101612550565b61268c3389612ee5565b6126a85760405162461bcd60e51b8152600401610a20906150b7565b5f826126c1575f8981526101cd602052604090206126d0565b5f8981526101ce602052604090205b805490915086106126f35760405162461bcd60e51b8152600401610a209061513a565b846001600160a01b031681878154811061270f5761270f615171565b5f9182526020909120600160029092020101546001600160a01b0316146127715760405162461bcd60e51b8152602060048201526016602482015275086d0d2d8c840c2c8c8e4cae6e640dad2e6dac2e8c6d60531b6044820152606401610a20565b8381878154811061278457612784615171565b905f5260205f2090600202015f0154146127d45760405162461bcd60e51b8152602060048201526011602482015270086d0d2d8c840928840dad2e6dac2e8c6d607b1b6044820152606401610a20565b805481906127e490600190615199565b815481106127f4576127f4615171565b905f5260205f20906002020181878154811061281257612812615171565b5f91825260209091208254600290920201908155600191820154910180546001600160a01b0319166001600160a01b03909216919091179055805481908061285c5761285c6151ac565b5f8281526020812060025f199093019283020190815560010180546001600160a01b03191690559055821561289f5761289a89898989898988613a99565b6128ae565b6128ae89898989898988613c82565b505050505050505050565b6128c23361099c565b6128de5760405162461bcd60e51b8152600401610a20906150b7565b5f8481526101ce6020526040902054831061290b5760405162461bcd60e51b8152600401610a209061513a565b5f8481526101ce6020526040902080546001600160a01b03841691908590811061293757612937615171565b5f9182526020909120600160029092020101546001600160a01b0316146129995760405162461bcd60e51b8152602060048201526016602482015275086d0d2d8c840c2c8c8e4cae6e640dad2e6dac2e8c6d60531b6044820152606401610a20565b5f8481526101ce602052604090208054829190859081106129bc576129bc615171565b905f5260205f2090600202015f015414612a0c5760405162461bcd60e51b8152602060048201526011602482015270086d0d2d8c840928840dad2e6dac2e8c6d607b1b6044820152606401610a20565b5f8481526101ce60205260408120805485908110612a2c57612a2c615171565b5f91825260208083206040805180820182526002948502909201805483526001908101546001600160a01b039081168486019081528c88526101cd8652838820805480850182559089528689208651919098029097019687555195820180546001600160a01b03191696909116959095179094558985526101ce9092529220805492935091612abb9190615199565b81548110612acb57612acb615171565b905f5260205f2090600202016101ce5f8781526020019081526020015f208581548110612afa57612afa615171565b5f918252602080832084546002909302019182556001938401549390910180546001600160a01b0319166001600160a01b03909416939093179092558681526101ce90915260409020805480612b5257612b526151ac565b5f828152602080822060025f1990940193840201828155600190810180546001600160a01b0319169055929093558781526101cd90925260409091205483916001600160a01b0386169188917f29486b9e2ae569b440933a9b1b421467306fa21f3dcad439c262910a634963a991612bca9190615199565b604051908152602001611118565b612be06133c2565b6001600160a01b038116612c455760405162461bcd60e51b815260206004820152602660248201527f4f776e61626c653a206e6577206f776e657220697320746865207a65726f206160448201526564647265737360d01b6064820152608401610a20565b6115d18161341c565b612c57826131e0565b612cb85760405162461bcd60e51b815260206004820152602c60248201527f4552433732314d657461646174613a2055524920736574206f66206e6f6e657860448201526b34b9ba32b73a103a37b5b2b760a11b6064820152608401610a20565b335f9081526101c76020908152604080832085845290915290205460ff1615612d175760405162461bcd60e51b815260206004820152601160248201527014d8dbdc9948185b1c9958591e481cd95d607a1b6044820152606401610a20565b60018160ff1610158015612d2f575060058160ff1611155b612d7b5760405162461bcd60e51b815260206004820152601d60248201527f53636f7265206d757374206265206265747765656e203120616e6420350000006044820152606401610a20565b33612d858361175c565b6001600160a01b031603612ddb5760405162461bcd60e51b815260206004820181905260248201527f4f776e65722063616e6e6f742073636f7265207468656972206f776e204e46546044820152606401610a20565b335f9081526101c7602090815260408083208584528252808320805460ff191660ff86169081179091556101c89092528220805491929091612e1e9084906151c0565b90915550505f8281526101c960205260408120805491612e3d83615209565b91905055505050565b5f8181526101cc60209081526040808320815180830190925280548252600101546001600160a01b0316918101919091528190819081612e8586612fb2565b825190915015612ea5575060208101519051909350915060019050612eb4565b93505f9250829150612eb49050565b9193909250565b5f612ec582613e6a565b8061098557506001600160e01b03198216638de886fd60e01b1492915050565b5f80612ef083612fb2565b9050806001600160a01b0316846001600160a01b03161480612f3657506001600160a01b038082165f908152606a602090815260408083209388168352929052205460ff165b80612f5a5750836001600160a01b0316612f4f84610bad565b6001600160a01b0316145b949350505050565b612f6b816131e0565b6115d15760405162461bcd60e51b8152602060048201526018602482015277115490cdcc8c4e881a5b9d985b1a59081d1bdad95b88125160421b6044820152606401610a20565b5f818152606760205260408120546001600160a01b0316806109855760405162461bcd60e51b8152602060048201526018602482015277115490cdcc8c4e881a5b9d985b1a59081d1bdad95b88125160421b6044820152606401610a20565b5f81815260696020526040902080546001600160a01b0319166001600160a01b038416908117909155819061304582612fb2565b6001600160a01b03167f8c5be1e5ebec7d5bd14f71427d1e84f3dd0314c0f7b2291e5b200ac8c7c3b92560405160405180910390a45050565b826001600160a01b031661309182612fb2565b6001600160a01b0316146130b75760405162461bcd60e51b8152600401610a209061523c565b6001600160a01b0382166131195760405162461bcd60e51b8152602060048201526024808201527f4552433732313a207472616e7366657220746f20746865207a65726f206164646044820152637265737360e01b6064820152608401610a20565b826001600160a01b031661312c82612fb2565b6001600160a01b0316146131525760405162461bcd60e51b8152600401610a209061523c565b5f81815260696020908152604080832080546001600160a01b03199081169091556001600160a01b038781168086526068855283862080545f1901905590871680865283862080546001019055868652606790945282852080549092168417909155905184937fddf252ad1be2c89b69c2b068fc378daa952ba7f163c4a11628f55a4df523b3ef91a4505050565b5f908152606760205260409020546001600160a01b0316151590565b6115d18133613e8e565b6132108282611bd6565b6114b3575f82815261015f602090815260408083206001600160a01b03851684529091529020805460ff191660011790556132483390565b6001600160a01b0316816001600160a01b0316837f2f8788117e7eff1d82e926ec794901d17c78024a50270940304540a733656f0d60405160405180910390a45050565b6132968282611bd6565b156114b3575f82815261015f602090815260408083206001600160a01b0385168085529252808320805460ff1916905551339285917ff6391f5c32d9c69d2a47ea670b442974b53935d1edc7fd64eb21e047a839171b9190a45050565b6115d181613ee7565b5f54610100900460ff166133225760405162461bcd60e51b8152600401610a2090615281565b61332c8282613f25565b613334613f55565b61333c613f83565b613344613fa9565b61334c613f83565b613354613fd7565b61335c613f83565b613364613f83565b61336e5f33614005565b6133987f7804d923f43a17d325d77e781528e0793b2edd9890ab45fc64efd7b4b427744c33614005565b6114b37f9f2df0fed2c77648de5860a4cc508cd0818c85b8b8a1ab4ceeef8d981c8956a633614005565b60fb546001600160a01b03163314611a835760405162461bcd60e51b815260206004820181905260248201527f4f776e61626c653a2063616c6c6572206973206e6f7420746865206f776e65726044820152606401610a20565b60fb80546001600160a01b038381166001600160a01b0319831681179093556040519116919082907f8be0079c531659141344cd1fd0a4f28419497f9722a3daafe3b4186f6b6457e0905f90a35050565b6114b382826040516024016134839291906152cc565b60408051601f198184030181529190526020810180516001600160e01b031663319af33360e01b17905261400f565b6114b382826040516024016134c89291906152f5565b60408051601f198184030181529190526020810180516001600160e01b0316632d839cb360e21b17905261400f565b816001600160a01b0316836001600160a01b0316036135585760405162461bcd60e51b815260206004820152601960248201527f4552433732313a20617070726f766520746f2063616c6c6572000000000000006044820152606401610a20565b6001600160a01b038381165f818152606a6020908152604080832094871680845294825291829020805460ff191686151590811790915591519182527f17307eab39ab6107e8899845ad3d59bd9653f200f220920489ca2b5937696c31910160405180910390a3505050565b6001600160a01b0381165f9081526101c660205260409020541561362a5760405162461bcd60e51b815260206004820152601f60248201527f43616e6e6f742072656d6f7665206e6f6e2d7a65726f207061796261636b2e006044820152606401610a20565b5f5b6101c5548110156114b357816001600160a01b03166101c5828154811061365557613655615171565b5f918252602090912001546001600160a01b03160361371c576101c5805461367f90600190615199565b8154811061368f5761368f615171565b5f918252602090912001546101c580546001600160a01b0390921691839081106136bb576136bb615171565b905f5260205f20015f6101000a8154816001600160a01b0302191690836001600160a01b031602179055506101c58054806136f8576136f86151ac565b5f8281526020902081015f1990810180546001600160a01b03191690550190555050565b60010161362c565b61372f84848461307e565b61373b84848484614018565b6115a85760405162461bcd60e51b8152600401610a2090615316565b606061376282612f62565b5f828152609760205260408120805461377a9061507f565b80601f01602080910402602001604051908101604052809291908181526020018280546137a69061507f565b80156137f15780601f106137c8576101008083540402835291602001916137f1565b820191905f5260205f20905b8154815290600101906020018083116137d457829003601f168201915b505050505090505f61380d60408051602081019091525f815290565b905080515f0361381e575092915050565b815115613850578082604051602001613838929190615368565b60405160208183030381529060405292505050919050565b612f5a84614115565b6001600160a01b0382166138af5760405162461bcd60e51b815260206004820181905260248201527f4552433732313a206d696e7420746f20746865207a65726f20616464726573736044820152606401610a20565b6138b8816131e0565b156139055760405162461bcd60e51b815260206004820152601c60248201527f4552433732313a20746f6b656e20616c7265616479206d696e746564000000006044820152606401610a20565b61390e816131e0565b1561395b5760405162461bcd60e51b815260206004820152601c60248201527f4552433732313a20746f6b656e20616c7265616479206d696e746564000000006044820152606401610a20565b6001600160a01b0382165f81815260686020908152604080832080546001019055848352606790915280822080546001600160a01b0319168417905551839291907fddf252ad1be2c89b69c2b068fc378daa952ba7f163c4a11628f55a4df523b3ef908290a45050565b6139ce826131e0565b613a315760405162461bcd60e51b815260206004820152602e60248201527f45524337323155524953746f726167653a2055524920736574206f66206e6f6e60448201526d32bc34b9ba32b73a103a37b5b2b760911b6064820152608401610a20565b5f828152609760205260409020613a4882826153e1565b506040518281527ff8e1a15aba9398e019f0b49df1a4fde98ee17ae345cb5f6b5e2c27f5033e8ce79060200160405180910390a15050565b6114b3828260405180602001604052805f815250614184565b6001600160a01b038616613b33575f8781526101ce60205260409020613abf90856141b6565b60405163b390c0ab60e01b8152600481018390525f60248201526001600160a01b0384169063b390c0ab906044016020604051808303815f875af1158015613b09573d5f803e3d5ffd5b505050506040513d601f19601f82011682018060405250810190613b2d91906151f2565b50613c30565b845f03613bb6575f8781526101ce60205260409020613b5290856141b6565b604051635c46a7ef60e11b81526001600160a01b0384169063b88d4fde90613b849030908a90879087906004016154a0565b5f604051808303815f87803b158015613b9b575f80fd5b505af1158015613bad573d5f803e3d5ffd5b50505050613c30565b5f8781526101ce60205260409020613bce90856141b6565b604051630326051d60e11b81526001600160a01b0384169063064c0a3a90613c029030908a9087908b9088906004016154dc565b5f604051808303815f87803b158015613c19575f80fd5b505af1158015613c2b573d5f803e3d5ffd5b505050505b60408051858152600160208201526001600160a01b038881161592820192909252839185169089907f02d6d6dbcb604d5e1e8c7886456e82a9cdce88b0a580071358f206b5a4d58f7090606001610b0c565b6001600160a01b038616613d1c575f8781526101cd60205260409020613ca890856141b6565b60405163b390c0ab60e01b8152600481018390525f60248201526001600160a01b0384169063b390c0ab906044016020604051808303815f875af1158015613cf2573d5f803e3d5ffd5b505050506040513d601f19601f82011682018060405250810190613d1691906151f2565b50613e19565b845f03613d9f575f8781526101cd60205260409020613d3b90856141b6565b604051635c46a7ef60e11b81526001600160a01b0384169063b88d4fde90613d6d9030908a90879087906004016154a0565b5f604051808303815f87803b158015613d84575f80fd5b505af1158015613d96573d5f803e3d5ffd5b50505050613e19565b5f8781526101cd60205260409020613db790856141b6565b604051630326051d60e11b81526001600160a01b0384169063064c0a3a90613deb9030908a9087908b9088906004016154dc565b5f604051808303815f87803b158015613e02575f80fd5b505af1158015613e14573d5f803e3d5ffd5b505050505b604080518581525f60208201526001600160a01b038881161592820192909252839185169089907f02d6d6dbcb604d5e1e8c7886456e82a9cdce88b0a580071358f206b5a4d58f7090606001610b0c565b5f6001600160e01b03198216637965db0b60e01b148061098557506109858261428c565b613e988282611bd6565b6114b357613ea5816142b0565b613eb08360206142c2565b604051602001613ec1929190615520565b60408051601f198184030181529082905262461bcd60e51b8252610a20916004016149ce565b613ef081614457565b5f8181526097602052604090208054613f089061507f565b1590506115d1575f8181526097602052604081206115d1916147a9565b5f54610100900460ff16613f4b5760405162461bcd60e51b8152600401610a2090615281565b6114b382826144e9565b5f54610100900460ff16613f7b5760405162461bcd60e51b8152600401610a2090615281565b611a83614528565b5f54610100900460ff16611a835760405162461bcd60e51b8152600401610a2090615281565b5f54610100900460ff16613fcf5760405162461bcd60e51b8152600401610a2090615281565b611a83614555565b5f54610100900460ff16613ffd5760405162461bcd60e51b8152600401610a2090615281565b611a83614584565b6114b38282613206565b6115d1816145b7565b5f6001600160a01b0384163b1561410a57604051630a85bd0160e11b81526001600160a01b0385169063150b7a029061405b9033908990889088906004016154a0565b6020604051808303815f875af1925050508015614095575060408051601f3d908101601f1916820190925261409291810190615594565b60015b6140f0573d8080156140c2576040519150601f19603f3d011682016040523d82523d5f602084013e6140c7565b606091505b5080515f036140e85760405162461bcd60e51b8152600401610a2090615316565b805181602001fd5b6001600160e01b031916630a85bd0160e11b149050612f5a565b506001949350505050565b606061412082612f62565b5f61413560408051602081019091525f815290565b90505f8151116141535760405180602001604052805f8152506123ea565b8061415d846145d6565b60405160200161416e929190615368565b6040516020818303038152906040529392505050565b61418e8383613859565b61419a5f848484614018565b610ce15760405162461bcd60e51b8152600401610a2090615316565b815481106141d75760405163a25f554f60e01b815260040160405180910390fd5b815482906141e790600190615199565b815481106141f7576141f7615171565b905f5260205f20906002020182828154811061421557614215615171565b5f91825260209091208254600290920201908155600191820154910180546001600160a01b0319166001600160a01b03909216919091179055815482908061425f5761425f6151ac565b5f8281526020812060025f199093019283020190815560010180546001600160a01b031916905590555050565b5f6001600160e01b03198216632483248360e11b1480610985575061098582614665565b60606109856001600160a01b03831660145b60605f6142d08360026155af565b6142db9060026151c0565b6001600160401b038111156142f2576142f2614862565b6040519080825280601f01601f19166020018201604052801561431c576020820181803683370190505b509050600360fc1b815f8151811061433657614336615171565b60200101906001600160f81b03191690815f1a905350600f60fb1b8160018151811061436457614364615171565b60200101906001600160f81b03191690815f1a9053505f6143868460026155af565b6143919060016151c0565b90505b6001811115614408576f181899199a1a9b1b9c1cb0b131b232b360811b85600f16601081106143c5576143c5615171565b1a60f81b8282815181106143db576143db615171565b60200101906001600160f81b03191690815f1a90535060049490941c93614401816155c6565b9050614394565b5083156123ea5760405162461bcd60e51b815260206004820181905260248201527f537472696e67733a20686578206c656e67746820696e73756666696369656e746044820152606401610a20565b5f61446182612fb2565b905061446c82612fb2565b5f83815260696020908152604080832080546001600160a01b03199081169091556001600160a01b0385168085526068845282852080545f190190558785526067909352818420805490911690555192935084927fddf252ad1be2c89b69c2b068fc378daa952ba7f163c4a11628f55a4df523b3ef908390a45050565b5f54610100900460ff1661450f5760405162461bcd60e51b8152600401610a2090615281565b606561451b83826153e1565b506066610ce182826153e1565b5f54610100900460ff1661454e5760405162461bcd60e51b8152600401610a2090615281565b600160c955565b5f54610100900460ff1661457b5760405162461bcd60e51b8152600401610a2090615281565b611a833361341c565b5f54610100900460ff166145aa5760405162461bcd60e51b8152600401610a2090615281565b61012d805460ff19169055565b5f6a636f6e736f6c652e6c6f6790505f80835160208501845afa505050565b60605f6145e2836146b4565b60010190505f816001600160401b0381111561460057614600614862565b6040519080825280601f01601f19166020018201604052801561462a576020820181803683370190505b5090508181016020015b5f19016f181899199a1a9b1b9c1cb0b131b232b360811b600a86061a8153600a850494508461463457509392505050565b5f6001600160e01b031982166380ac58cd60e01b148061469557506001600160e01b03198216635b5e139f60e01b145b8061098557506301ffc9a760e01b6001600160e01b0319831614610985565b5f8072184f03e93ff9f4daa797ed6e38ed64bf6a1f0160401b83106146f25772184f03e93ff9f4daa797ed6e38ed64bf6a1f0160401b830492506040015b6d04ee2d6d415b85acef8100000000831061471e576d04ee2d6d415b85acef8100000000830492506020015b662386f26fc10000831061473c57662386f26fc10000830492506010015b6305f5e1008310614754576305f5e100830492506008015b612710831061476857612710830492506004015b6064831061477a576064830492506002015b600a83106109855760010192915050565b5080545f8255600202905f5260205f20908101906115d191906147e0565b5080546147b59061507f565b5f825580601f106147c4575050565b601f0160209004905f5260205f20908101906115d1919061480a565b5b80821115614806575f81556001810180546001600160a01b03191690556002016147e1565b5090565b5b80821115614806575f815560010161480b565b6001600160e01b0319811681146115d1575f80fd5b5f60208284031215614843575f80fd5b81356123ea8161481e565b6001600160a01b03811681146115d1575f80fd5b634e487b7160e01b5f52604160045260245ffd5b604051601f8201601f191681016001600160401b038111828210171561489e5761489e614862565b604052919050565b5f82601f8301126148b5575f80fd5b81356001600160401b038111156148ce576148ce614862565b6148e1601f8201601f1916602001614876565b8181528460208386010111156148f5575f80fd5b816020850160208301375f918101602001919091529392505050565b5f805f805f60a08688031215614925575f80fd5b85356149308161484e565b945060208601356149408161484e565b9350604086013592506060860135915060808601356001600160401b03811115614968575f80fd5b614974888289016148a6565b9150509295509295909350565b5f5b8381101561499b578181015183820152602001614983565b50505f910152565b5f81518084526149ba816020860160208601614981565b601f01601f19169290920160200192915050565b602081525f6123ea60208301846149a3565b5f602082840312156149f0575f80fd5b5035919050565b5f8060408385031215614a08575f80fd5b8235614a138161484e565b946020939093013593505050565b5f805f60608486031215614a33575f80fd5b8335614a3e8161484e565b92506020840135614a4e8161484e565b929592945050506040919091013590565b602080825282518282018190525f919060409081850190868401855b82811015614aa957815180516001600160a01b03168552860151868501529284019290850190600101614a7b565b5091979650505050505050565b5f805f8060808587031215614ac9575f80fd5b843593506020850135614adb8161484e565b92506040850135915060608501356001600160401b03811115614afc575f80fd5b614b08878288016148a6565b91505092959194509250565b5f8060408385031215614b25575f80fd5b823591506020830135614b378161484e565b809150509250929050565b5f8060408385031215614b53575f80fd5b50508035926020909101359150565b815181526020808301516001600160a01b03169082015260408101610985565b5f805f60608486031215614b94575f80fd5b833592506020840135614a4e8161484e565b5f60208284031215614bb6575f80fd5b81356123ea8161484e565b5f6001600160401b03821115614bd957614bd9614862565b5060051b60200190565b5f82601f830112614bf2575f80fd5b81356020614c07614c0283614bc1565b614876565b8083825260208201915060208460051b870101935086841115614c28575f80fd5b602086015b84811015614c4d578035614c408161484e565b8352918301918301614c2d565b509695505050505050565b5f805f60608486031215614c6a575f80fd5b833592506020808501356001600160401b0380821115614c88575f80fd5b614c9488838901614be3565b94506040870135915080821115614ca9575f80fd5b508501601f81018713614cba575f80fd5b8035614cc8614c0282614bc1565b81815260059190911b82018301908381019089831115614ce6575f80fd5b928401925b82841015614d0457833582529284019290840190614ceb565b80955050505050509250925092565b602080825282518282018190525f919060409081850190868401855b82811015614aa957614d55848351805182526020908101516001600160a01b0316910152565b9284019290850190600101614d2f565b5f8060408385031215614d76575f80fd5b82356001600160401b0380821115614d8c575f80fd5b614d98868387016148a6565b93506020850135915080821115614dad575f80fd5b50614dba858286016148a6565b9150509250929050565b5f805f60608486031215614dd6575f80fd5b833592506020840135915060408401356001600160401b03811115614df9575f80fd5b614e05868287016148a6565b9150509250925092565b602080825282518282018190525f9190848201906040850190845b81811015614e4f5783516001600160a01b031683529284019291840191600101614e2a565b50909695505050505050565b80151581146115d1575f80fd5b5f8060408385031215614e79575f80fd5b8235614e848161484e565b91506020830135614b3781614e5b565b5f805f8060808587031215614ea7575f80fd5b8435614eb28161484e565b93506020850135614adb8161484e565b5f8060408385031215614ed3575f80fd5b8235614ede8161484e565b915060208301356001600160401b03811115614ef8575f80fd5b614dba858286016148a6565b5f805f60608486031215614f16575f80fd5b83356001600160401b03811115614f2b575f80fd5b614f3786828701614be3565b935050602084013591506040840135614f4f81614e5b565b809150509250925092565b5f805f805f805f80610100898b031215614f72575f80fd5b883597506020890135614f848161484e565b965060408901359550606089013594506080890135614fa28161484e565b935060a0890135925060c0890135614fb981614e5b565b915060e08901356001600160401b03811115614fd3575f80fd5b614fdf8b828c016148a6565b9150509295985092959890939650565b5f805f8060808587031215615002575f80fd5b8435935060208501359250604085013561501b8161484e565b9396929550929360600135925050565b5f806040838503121561503c575f80fd5b82356150478161484e565b91506020830135614b378161484e565b5f8060408385031215615068575f80fd5b82359150602083013560ff81168114614b37575f80fd5b600181811c9082168061509357607f821691505b6020821081036150b157634e487b7160e01b5f52602260045260245ffd5b50919050565b6020808252602d908201527f4552433732313a2063616c6c6572206973206e6f7420746f6b656e206f776e6560408201526c1c881bdc88185c1c1c9bdd9959609a1b606082015260800190565b5f60208284031215615114575f80fd5b81516123ea8161484e565b5f6020828403121561512f575f80fd5b81516123ea81614e5b565b60208082526019908201527f4368696c6420696e646578206f7574206f6620626f756e647300000000000000604082015260600190565b634e487b7160e01b5f52603260045260245ffd5b634e487b7160e01b5f52601160045260245ffd5b8181038181111561098557610985615185565b634e487b7160e01b5f52603160045260245ffd5b8082018082111561098557610985615185565b5f826151ed57634e487b7160e01b5f52601260045260245ffd5b500490565b5f60208284031215615202575f80fd5b5051919050565b5f6001820161521a5761521a615185565b5060010190565b5f8251615232818460208701614981565b9190910192915050565b60208082526025908201527f4552433732313a207472616e736665722066726f6d20696e636f72726563742060408201526437bbb732b960d91b606082015260800190565b6020808252602b908201527f496e697469616c697a61626c653a20636f6e7472616374206973206e6f74206960408201526a6e697469616c697a696e6760a81b606082015260800190565b604081525f6152de60408301856149a3565b905060018060a01b03831660208301529392505050565b604081525f61530760408301856149a3565b90508260208301529392505050565b60208082526032908201527f4552433732313a207472616e7366657220746f206e6f6e20455243373231526560408201527131b2b4bb32b91034b6b83632b6b2b73a32b960711b606082015260800190565b5f8351615379818460208801614981565b83519083019061538d818360208801614981565b01949350505050565b601f821115610ce157805f5260205f20601f840160051c810160208510156153bb5750805b601f840160051c820191505b818110156153da575f81556001016153c7565b5050505050565b81516001600160401b038111156153fa576153fa614862565b61540e81615408845461507f565b84615396565b602080601f831160018114615441575f841561542a5750858301515b5f19600386901b1c1916600185901b178555615498565b5f85815260208120601f198616915b8281101561546f57888601518255948401946001909101908401615450565b508582101561548c57878501515f19600388901b60f8161c191681555b505060018460011b0185555b505050505050565b6001600160a01b03858116825284166020820152604081018390526080606082018190525f906154d2908301846149a3565b9695505050505050565b6001600160a01b03868116825285166020820152604081018490526060810183905260a0608082018190525f90615515908301846149a3565b979650505050505050565b7f416363657373436f6e74726f6c3a206163636f756e742000000000000000000081525f8351615557816017850160208801614981565b7001034b99036b4b9b9b4b733903937b6329607d1b6017918401918201528351615588816028840160208801614981565b01602801949350505050565b5f602082840312156155a4575f80fd5b81516123ea8161481e565b808202811582820484141761098557610985615185565b5f816155d4576155d4615185565b505f19019056fe616464464e4654546f6b656e5061796261636b3a206265666f7265205f7061796261636b735b666e6674546f6b656e5d203d20616464464e4654546f6b656e5061796261636b3a206265666f7265205f666e6674546f6b656e732e6c656e677468203d20616464464e4654546f6b656e5061796261636b3a206166746572205f7061796261636b735b666e6674546f6b656e5d203d20616464464e4654546f6b656e5061796261636b3a20666e6674546f6b656e203d20616464464e4654546f6b656e5061796261636b3a206166746572205f666e6674546f6b656e732e6c656e677468203d20a2646970667358221220a64827ca2357204c5c697030aa6f6def0d36dfc483d29cd854985c7cb99d2b8564736f6c63430008190033",
  "linkReferences": {},
  "deployedLinkReferences": {}
}