{
  "_format": "hh-sol-artifact-1",
  "contractName": "FNFTNestableERC1155",
  "sourceName": "contracts/RMRK/nestable/FNFTNestableERC1155.sol",
  "abi": [
    {
      "inputs": [],
      "name": "FNFTNestableCallerNotOwnerNorApproved",
      "type": "error"
    },
    {
      "inputs": [],
      "name": "FNFTNestableCannotNestSelf",
      "type": "error"
    },
    {
      "inputs": [],
      "name": "FNFTNestableChildAddressMismatch",
      "type": "error"
    },
    {
      "inputs": [],
      "name": "FNFTNestableChildDoesNotMatch",
      "type": "error"
    },
    {
      "inputs": [],
      "name": "FNFTNestableChildIdMismatch",
      "type": "error"
    },
    {
      "inputs": [],
      "name": "FNFTNestableChildIndexOutOfRange",
      "type": "error"
    },
    {
      "inputs": [],
      "name": "FNFTNestableNewOwnerIsCurrentOwner",
      "type": "error"
    },
    {
      "inputs": [],
      "name": "FNFTNestableParentTokenDoesNotExist",
      "type": "error"
    },
    {
      "inputs": [],
      "name": "RMRKChildIndexOutOfRange",
      "type": "error"
    },
    {
      "inputs": [],
      "name": "RMRKInsufficientChildBalance",
      "type": "error"
    },
    {
      "inputs": [],
      "name": "RMRKInsufficientParentBalance",
      "type": "error"
    },
    {
      "inputs": [],
      "name": "RMRKMaxPendingChildrenReached",
      "type": "error"
    },
    {
      "inputs": [],
      "name": "RMRKNewOwnerIsZeroAddress",
      "type": "error"
    },
    {
      "inputs": [],
      "name": "RMRKPartDoesNotExist",
      "type": "error"
    },
    {
      "inputs": [],
      "name": "RMRKPendingChildIndexOutOfRange",
      "type": "error"
    },
    {
      "inputs": [],
      "name": "RMRKTokenDoesNotHaveAsset",
      "type": "error"
    },
    {
      "inputs": [],
      "name": "RMRKUnexpectedNumberOfChildren",
      "type": "error"
    },
    {
      "anonymous": false,
      "inputs": [
        {
          "indexed": true,
          "internalType": "uint256",
          "name": "tokenId",
          "type": "uint256"
        }
      ],
      "name": "AllChildrenRejected",
      "type": "event"
    },
    {
      "anonymous": false,
      "inputs": [
        {
          "indexed": true,
          "internalType": "address",
          "name": "account",
          "type": "address"
        },
        {
          "indexed": true,
          "internalType": "address",
          "name": "operator",
          "type": "address"
        },
        {
          "indexed": false,
          "internalType": "bool",
          "name": "approved",
          "type": "bool"
        }
      ],
      "name": "ApprovalForAll",
      "type": "event"
    },
    {
      "anonymous": false,
      "inputs": [
        {
          "indexed": true,
          "internalType": "uint256",
          "name": "tokenId",
          "type": "uint256"
        },
        {
          "indexed": false,
          "internalType": "uint256",
          "name": "childIndex",
          "type": "uint256"
        },
        {
          "indexed": true,
          "internalType": "address",
          "name": "childAddress",
          "type": "address"
        },
        {
          "indexed": true,
          "internalType": "uint256",
          "name": "childId",
          "type": "uint256"
        },
        {
          "indexed": false,
          "internalType": "uint256",
          "name": "amount",
          "type": "uint256"
        }
      ],
      "name": "ChildAccepted",
      "type": "event"
    },
    {
      "anonymous": false,
      "inputs": [
        {
          "indexed": true,
          "internalType": "uint256",
          "name": "tokenId",
          "type": "uint256"
        },
        {
          "indexed": false,
          "internalType": "uint256",
          "name": "childIndex",
          "type": "uint256"
        },
        {
          "indexed": true,
          "internalType": "address",
          "name": "childAddress",
          "type": "address"
        },
        {
          "indexed": true,
          "internalType": "uint256",
          "name": "childId",
          "type": "uint256"
        },
        {
          "indexed": false,
          "internalType": "uint256",
          "name": "amount",
          "type": "uint256"
        }
      ],
      "name": "ChildProposed",
      "type": "event"
    },
    {
      "anonymous": false,
      "inputs": [
        {
          "indexed": true,
          "internalType": "uint256",
          "name": "tokenId",
          "type": "uint256"
        },
        {
          "indexed": false,
          "internalType": "uint256",
          "name": "childIndex",
          "type": "uint256"
        },
        {
          "indexed": true,
          "internalType": "address",
          "name": "childAddress",
          "type": "address"
        },
        {
          "indexed": true,
          "internalType": "uint256",
          "name": "childId",
          "type": "uint256"
        },
        {
          "indexed": false,
          "internalType": "uint256",
          "name": "amount",
          "type": "uint256"
        },
        {
          "indexed": false,
          "internalType": "bool",
          "name": "fromPending",
          "type": "bool"
        },
        {
          "indexed": false,
          "internalType": "bool",
          "name": "toZero",
          "type": "bool"
        }
      ],
      "name": "ChildTransferred",
      "type": "event"
    },
    {
      "anonymous": false,
      "inputs": [
        {
          "indexed": false,
          "internalType": "uint8",
          "name": "version",
          "type": "uint8"
        }
      ],
      "name": "Initialized",
      "type": "event"
    },
    {
      "anonymous": false,
      "inputs": [
        {
          "indexed": true,
          "internalType": "address",
          "name": "from",
          "type": "address"
        },
        {
          "indexed": true,
          "internalType": "address",
          "name": "to",
          "type": "address"
        },
        {
          "indexed": false,
          "internalType": "uint256",
          "name": "fromTokenId",
          "type": "uint256"
        },
        {
          "indexed": false,
          "internalType": "uint256",
          "name": "toTokenId",
          "type": "uint256"
        },
        {
          "indexed": true,
          "internalType": "uint256",
          "name": "tokenId",
          "type": "uint256"
        },
        {
          "indexed": false,
          "internalType": "uint256",
          "name": "amount",
          "type": "uint256"
        }
      ],
      "name": "NestTransfer",
      "type": "event"
    },
    {
      "anonymous": false,
      "inputs": [
        {
          "indexed": true,
          "internalType": "address",
          "name": "previousOwner",
          "type": "address"
        },
        {
          "indexed": true,
          "internalType": "address",
          "name": "newOwner",
          "type": "address"
        }
      ],
      "name": "OwnershipTransferred",
      "type": "event"
    },
    {
      "anonymous": false,
      "inputs": [
        {
          "indexed": false,
          "internalType": "address",
          "name": "account",
          "type": "address"
        }
      ],
      "name": "Paused",
      "type": "event"
    },
    {
      "anonymous": false,
      "inputs": [
        {
          "indexed": true,
          "internalType": "bytes32",
          "name": "role",
          "type": "bytes32"
        },
        {
          "indexed": true,
          "internalType": "bytes32",
          "name": "previousAdminRole",
          "type": "bytes32"
        },
        {
          "indexed": true,
          "internalType": "bytes32",
          "name": "newAdminRole",
          "type": "bytes32"
        }
      ],
      "name": "RoleAdminChanged",
      "type": "event"
    },
    {
      "anonymous": false,
      "inputs": [
        {
          "indexed": true,
          "internalType": "bytes32",
          "name": "role",
          "type": "bytes32"
        },
        {
          "indexed": true,
          "internalType": "address",
          "name": "account",
          "type": "address"
        },
        {
          "indexed": true,
          "internalType": "address",
          "name": "sender",
          "type": "address"
        }
      ],
      "name": "RoleGranted",
      "type": "event"
    },
    {
      "anonymous": false,
      "inputs": [
        {
          "indexed": true,
          "internalType": "bytes32",
          "name": "role",
          "type": "bytes32"
        },
        {
          "indexed": true,
          "internalType": "address",
          "name": "account",
          "type": "address"
        },
        {
          "indexed": true,
          "internalType": "address",
          "name": "sender",
          "type": "address"
        }
      ],
      "name": "RoleRevoked",
      "type": "event"
    },
    {
      "anonymous": false,
      "inputs": [
        {
          "indexed": true,
          "internalType": "uint256",
          "name": "tokenId",
          "type": "uint256"
        },
        {
          "indexed": true,
          "internalType": "address",
          "name": "previousOwner",
          "type": "address"
        },
        {
          "indexed": true,
          "internalType": "address",
          "name": "newOwner",
          "type": "address"
        }
      ],
      "name": "TokenOwnershipTransferred",
      "type": "event"
    },
    {
      "anonymous": false,
      "inputs": [
        {
          "indexed": true,
          "internalType": "address",
          "name": "operator",
          "type": "address"
        },
        {
          "indexed": true,
          "internalType": "address",
          "name": "from",
          "type": "address"
        },
        {
          "indexed": true,
          "internalType": "address",
          "name": "to",
          "type": "address"
        },
        {
          "indexed": false,
          "internalType": "uint256[]",
          "name": "ids",
          "type": "uint256[]"
        },
        {
          "indexed": false,
          "internalType": "uint256[]",
          "name": "values",
          "type": "uint256[]"
        }
      ],
      "name": "TransferBatch",
      "type": "event"
    },
    {
      "anonymous": false,
      "inputs": [
        {
          "indexed": true,
          "internalType": "address",
          "name": "operator",
          "type": "address"
        },
        {
          "indexed": true,
          "internalType": "address",
          "name": "from",
          "type": "address"
        },
        {
          "indexed": true,
          "internalType": "address",
          "name": "to",
          "type": "address"
        },
        {
          "indexed": false,
          "internalType": "uint256",
          "name": "id",
          "type": "uint256"
        },
        {
          "indexed": false,
          "internalType": "uint256",
          "name": "value",
          "type": "uint256"
        }
      ],
      "name": "TransferSingle",
      "type": "event"
    },
    {
      "anonymous": false,
      "inputs": [
        {
          "indexed": false,
          "internalType": "string",
          "name": "value",
          "type": "string"
        },
        {
          "indexed": true,
          "internalType": "uint256",
          "name": "id",
          "type": "uint256"
        }
      ],
      "name": "URI",
      "type": "event"
    },
    {
      "anonymous": false,
      "inputs": [
        {
          "indexed": false,
          "internalType": "address",
          "name": "account",
          "type": "address"
        }
      ],
      "name": "Unpaused",
      "type": "event"
    },
    {
      "inputs": [],
      "name": "DEFAULT_ADMIN_ROLE",
      "outputs": [
        {
          "internalType": "bytes32",
          "name": "",
          "type": "bytes32"
        }
      ],
      "stateMutability": "view",
      "type": "function"
    },
    {
      "inputs": [],
      "name": "MINTER_ROLE",
      "outputs": [
        {
          "internalType": "bytes32",
          "name": "",
          "type": "bytes32"
        }
      ],
      "stateMutability": "view",
      "type": "function"
    },
    {
      "inputs": [],
      "name": "URI_SETTER_ROLE",
      "outputs": [
        {
          "internalType": "bytes32",
          "name": "",
          "type": "bytes32"
        }
      ],
      "stateMutability": "view",
      "type": "function"
    },
    {
      "inputs": [
        {
          "internalType": "uint256",
          "name": "parentId",
          "type": "uint256"
        },
        {
          "internalType": "uint256",
          "name": "childIndex",
          "type": "uint256"
        },
        {
          "internalType": "address",
          "name": "childAddress",
          "type": "address"
        },
        {
          "internalType": "uint256",
          "name": "childId",
          "type": "uint256"
        }
      ],
      "name": "acceptChild",
      "outputs": [],
      "stateMutability": "nonpayable",
      "type": "function"
    },
    {
      "inputs": [
        {
          "internalType": "uint256",
          "name": "parentId",
          "type": "uint256"
        },
        {
          "internalType": "uint256",
          "name": "childId",
          "type": "uint256"
        },
        {
          "internalType": "bytes",
          "name": "data",
          "type": "bytes"
        }
      ],
      "name": "addChild",
      "outputs": [],
      "stateMutability": "nonpayable",
      "type": "function"
    },
    {
      "inputs": [
        {
          "internalType": "uint256",
          "name": "parentId",
          "type": "uint256"
        },
        {
          "internalType": "address",
          "name": "childAddress",
          "type": "address"
        },
        {
          "internalType": "uint256",
          "name": "childId",
          "type": "uint256"
        },
        {
          "internalType": "bytes",
          "name": "data",
          "type": "bytes"
        }
      ],
      "name": "addChildNFT",
      "outputs": [],
      "stateMutability": "nonpayable",
      "type": "function"
    },
    {
      "inputs": [
        {
          "internalType": "address",
          "name": "fnftToken",
          "type": "address"
        },
        {
          "internalType": "uint256",
          "name": "payback_",
          "type": "uint256"
        }
      ],
      "name": "addFNFTTokenPayback",
      "outputs": [],
      "stateMutability": "nonpayable",
      "type": "function"
    },
    {
      "inputs": [
        {
          "internalType": "uint256",
          "name": "playlistId",
          "type": "uint256"
        },
        {
          "internalType": "address",
          "name": "_contractAddress",
          "type": "address"
        },
        {
          "internalType": "uint256",
          "name": "_tokenId",
          "type": "uint256"
        }
      ],
      "name": "addNFT",
      "outputs": [],
      "stateMutability": "nonpayable",
      "type": "function"
    },
    {
      "inputs": [
        {
          "internalType": "uint256",
          "name": "playlistId",
          "type": "uint256"
        },
        {
          "internalType": "address[]",
          "name": "_contractAddresses",
          "type": "address[]"
        },
        {
          "internalType": "uint256[]",
          "name": "_tokenIds",
          "type": "uint256[]"
        }
      ],
      "name": "addNFTs",
      "outputs": [],
      "stateMutability": "nonpayable",
      "type": "function"
    },
    {
      "inputs": [
        {
          "internalType": "address",
          "name": "account",
          "type": "address"
        },
        {
          "internalType": "uint256",
          "name": "id",
          "type": "uint256"
        }
      ],
      "name": "balanceOf",
      "outputs": [
        {
          "internalType": "uint256",
          "name": "",
          "type": "uint256"
        }
      ],
      "stateMutability": "view",
      "type": "function"
    },
    {
      "inputs": [
        {
          "internalType": "address[]",
          "name": "accounts",
          "type": "address[]"
        },
        {
          "internalType": "uint256[]",
          "name": "ids",
          "type": "uint256[]"
        }
      ],
      "name": "balanceOfBatch",
      "outputs": [
        {
          "internalType": "uint256[]",
          "name": "",
          "type": "uint256[]"
        }
      ],
      "stateMutability": "view",
      "type": "function"
    },
    {
      "inputs": [
        {
          "internalType": "uint256",
          "name": "tokenId",
          "type": "uint256"
        },
        {
          "internalType": "uint256",
          "name": "amount",
          "type": "uint256"
        },
        {
          "internalType": "uint256",
          "name": "maxRecursiveBurns",
          "type": "uint256"
        }
      ],
      "name": "burn",
      "outputs": [
        {
          "internalType": "uint256",
          "name": "",
          "type": "uint256"
        }
      ],
      "stateMutability": "nonpayable",
      "type": "function"
    },
    {
      "inputs": [
        {
          "internalType": "address",
          "name": "account",
          "type": "address"
        },
        {
          "internalType": "uint256",
          "name": "id",
          "type": "uint256"
        },
        {
          "internalType": "uint256",
          "name": "value",
          "type": "uint256"
        }
      ],
      "name": "burn",
      "outputs": [],
      "stateMutability": "nonpayable",
      "type": "function"
    },
    {
      "inputs": [
        {
          "internalType": "address",
          "name": "account",
          "type": "address"
        },
        {
          "internalType": "uint256[]",
          "name": "ids",
          "type": "uint256[]"
        },
        {
          "internalType": "uint256[]",
          "name": "values",
          "type": "uint256[]"
        }
      ],
      "name": "burnBatch",
      "outputs": [],
      "stateMutability": "nonpayable",
      "type": "function"
    },
    {
      "inputs": [
        {
          "internalType": "uint256",
          "name": "parentId",
          "type": "uint256"
        },
        {
          "internalType": "uint256",
          "name": "index",
          "type": "uint256"
        }
      ],
      "name": "childOf",
      "outputs": [
        {
          "components": [
            {
              "internalType": "uint256",
              "name": "tokenId",
              "type": "uint256"
            },
            {
              "internalType": "address",
              "name": "contractAddress",
              "type": "address"
            },
            {
              "internalType": "uint256",
              "name": "amount",
              "type": "uint256"
            }
          ],
          "internalType": "struct INestableERC1155.Child",
          "name": "",
          "type": "tuple"
        }
      ],
      "stateMutability": "view",
      "type": "function"
    },
    {
      "inputs": [
        {
          "internalType": "uint256",
          "name": "parentId",
          "type": "uint256"
        }
      ],
      "name": "childrenOf",
      "outputs": [
        {
          "components": [
            {
              "internalType": "uint256",
              "name": "tokenId",
              "type": "uint256"
            },
            {
              "internalType": "address",
              "name": "contractAddress",
              "type": "address"
            },
            {
              "internalType": "uint256",
              "name": "amount",
              "type": "uint256"
            }
          ],
          "internalType": "struct INestableERC1155.Child[]",
          "name": "",
          "type": "tuple[]"
        }
      ],
      "stateMutability": "view",
      "type": "function"
    },
    {
      "inputs": [
        {
          "internalType": "uint256",
          "name": "playlistId",
          "type": "uint256"
        },
        {
          "internalType": "address",
          "name": "_contractAddress",
          "type": "address"
        },
        {
          "internalType": "uint256",
          "name": "_tokenId",
          "type": "uint256"
        }
      ],
      "name": "deleteNFT",
      "outputs": [],
      "stateMutability": "nonpayable",
      "type": "function"
    },
    {
      "inputs": [
        {
          "internalType": "uint256",
          "name": "playlistId",
          "type": "uint256"
        },
        {
          "internalType": "address[]",
          "name": "_contractAddresses",
          "type": "address[]"
        },
        {
          "internalType": "uint256[]",
          "name": "_tokenIds",
          "type": "uint256[]"
        }
      ],
      "name": "deleteNFTs",
      "outputs": [],
      "stateMutability": "nonpayable",
      "type": "function"
    },
    {
      "inputs": [
        {
          "internalType": "uint256",
          "name": "tokenId",
          "type": "uint256"
        }
      ],
      "name": "directOwnerOf",
      "outputs": [
        {
          "internalType": "address",
          "name": "",
          "type": "address"
        },
        {
          "internalType": "uint256",
          "name": "",
          "type": "uint256"
        },
        {
          "internalType": "bool",
          "name": "",
          "type": "bool"
        }
      ],
      "stateMutability": "view",
      "type": "function"
    },
    {
      "inputs": [],
      "name": "fnftTokens",
      "outputs": [
        {
          "internalType": "address[]",
          "name": "",
          "type": "address[]"
        }
      ],
      "stateMutability": "view",
      "type": "function"
    },
    {
      "inputs": [
        {
          "internalType": "uint256",
          "name": "playlistId",
          "type": "uint256"
        }
      ],
      "name": "getPlaylist",
      "outputs": [
        {
          "components": [
            {
              "internalType": "address",
              "name": "contractAddress",
              "type": "address"
            },
            {
              "internalType": "uint256",
              "name": "tokenId",
              "type": "uint256"
            }
          ],
          "internalType": "struct NFTPlaylist.NFT[]",
          "name": "",
          "type": "tuple[]"
        }
      ],
      "stateMutability": "view",
      "type": "function"
    },
    {
      "inputs": [
        {
          "internalType": "uint256",
          "name": "playlistId",
          "type": "uint256"
        }
      ],
      "name": "getPlaylistCount",
      "outputs": [
        {
          "internalType": "uint256",
          "name": "",
          "type": "uint256"
        }
      ],
      "stateMutability": "view",
      "type": "function"
    },
    {
      "inputs": [
        {
          "internalType": "bytes32",
          "name": "role",
          "type": "bytes32"
        }
      ],
      "name": "getRoleAdmin",
      "outputs": [
        {
          "internalType": "bytes32",
          "name": "",
          "type": "bytes32"
        }
      ],
      "stateMutability": "view",
      "type": "function"
    },
    {
      "inputs": [
        {
          "internalType": "bytes32",
          "name": "role",
          "type": "bytes32"
        },
        {
          "internalType": "address",
          "name": "account",
          "type": "address"
        }
      ],
      "name": "grantRole",
      "outputs": [],
      "stateMutability": "nonpayable",
      "type": "function"
    },
    {
      "inputs": [
        {
          "internalType": "bytes32",
          "name": "role",
          "type": "bytes32"
        },
        {
          "internalType": "address",
          "name": "account",
          "type": "address"
        }
      ],
      "name": "hasRole",
      "outputs": [
        {
          "internalType": "bool",
          "name": "",
          "type": "bool"
        }
      ],
      "stateMutability": "view",
      "type": "function"
    },
    {
      "inputs": [],
      "name": "initialize",
      "outputs": [],
      "stateMutability": "nonpayable",
      "type": "function"
    },
    {
      "inputs": [
        {
          "internalType": "address",
          "name": "account",
          "type": "address"
        },
        {
          "internalType": "address",
          "name": "operator",
          "type": "address"
        }
      ],
      "name": "isApprovedForAll",
      "outputs": [
        {
          "internalType": "bool",
          "name": "",
          "type": "bool"
        }
      ],
      "stateMutability": "view",
      "type": "function"
    },
    {
      "inputs": [
        {
          "internalType": "address",
          "name": "account",
          "type": "address"
        },
        {
          "internalType": "uint256",
          "name": "tokenId",
          "type": "uint256"
        },
        {
          "internalType": "string",
          "name": "tokenURI",
          "type": "string"
        },
        {
          "internalType": "uint256",
          "name": "amount",
          "type": "uint256"
        },
        {
          "internalType": "bytes",
          "name": "data",
          "type": "bytes"
        }
      ],
      "name": "mintToken",
      "outputs": [
        {
          "internalType": "uint256",
          "name": "",
          "type": "uint256"
        }
      ],
      "stateMutability": "nonpayable",
      "type": "function"
    },
    {
      "inputs": [
        {
          "internalType": "address[]",
          "name": "to",
          "type": "address[]"
        },
        {
          "internalType": "string[]",
          "name": "tokenURIs",
          "type": "string[]"
        },
        {
          "internalType": "uint256[]",
          "name": "amounts",
          "type": "uint256[]"
        },
        {
          "internalType": "bytes",
          "name": "data",
          "type": "bytes"
        }
      ],
      "name": "mintTokenBatch",
      "outputs": [],
      "stateMutability": "nonpayable",
      "type": "function"
    },
    {
      "inputs": [
        {
          "internalType": "address",
          "name": "from",
          "type": "address"
        },
        {
          "internalType": "address",
          "name": "to",
          "type": "address"
        },
        {
          "internalType": "uint256",
          "name": "tokenId",
          "type": "uint256"
        },
        {
          "internalType": "uint256",
          "name": "amount",
          "type": "uint256"
        },
        {
          "internalType": "uint256",
          "name": "destinationId",
          "type": "uint256"
        },
        {
          "internalType": "bytes",
          "name": "data",
          "type": "bytes"
        }
      ],
      "name": "nestTransferFrom",
      "outputs": [],
      "stateMutability": "nonpayable",
      "type": "function"
    },
    {
      "inputs": [
        {
          "internalType": "address",
          "name": "operator",
          "type": "address"
        },
        {
          "internalType": "address",
          "name": "from",
          "type": "address"
        },
        {
          "internalType": "uint256[]",
          "name": "ids",
          "type": "uint256[]"
        },
        {
          "internalType": "uint256[]",
          "name": "values",
          "type": "uint256[]"
        },
        {
          "internalType": "bytes",
          "name": "data",
          "type": "bytes"
        }
      ],
      "name": "onERC1155BatchReceived",
      "outputs": [
        {
          "internalType": "bytes4",
          "name": "",
          "type": "bytes4"
        }
      ],
      "stateMutability": "nonpayable",
      "type": "function"
    },
    {
      "inputs": [
        {
          "internalType": "address",
          "name": "operator",
          "type": "address"
        },
        {
          "internalType": "address",
          "name": "from",
          "type": "address"
        },
        {
          "internalType": "uint256",
          "name": "id",
          "type": "uint256"
        },
        {
          "internalType": "uint256",
          "name": "value",
          "type": "uint256"
        },
        {
          "internalType": "bytes",
          "name": "data",
          "type": "bytes"
        }
      ],
      "name": "onERC1155Received",
      "outputs": [
        {
          "internalType": "bytes4",
          "name": "",
          "type": "bytes4"
        }
      ],
      "stateMutability": "nonpayable",
      "type": "function"
    },
    {
      "inputs": [],
      "name": "owner",
      "outputs": [
        {
          "internalType": "address",
          "name": "",
          "type": "address"
        }
      ],
      "stateMutability": "view",
      "type": "function"
    },
    {
      "inputs": [
        {
          "internalType": "uint256",
          "name": "tokenId",
          "type": "uint256"
        }
      ],
      "name": "ownerOf",
      "outputs": [
        {
          "internalType": "address",
          "name": "",
          "type": "address"
        }
      ],
      "stateMutability": "view",
      "type": "function"
    },
    {
      "inputs": [],
      "name": "paused",
      "outputs": [
        {
          "internalType": "bool",
          "name": "",
          "type": "bool"
        }
      ],
      "stateMutability": "view",
      "type": "function"
    },
    {
      "inputs": [
        {
          "internalType": "address",
          "name": "fnftToken",
          "type": "address"
        }
      ],
      "name": "payback",
      "outputs": [
        {
          "internalType": "uint256",
          "name": "",
          "type": "uint256"
        }
      ],
      "stateMutability": "view",
      "type": "function"
    },
    {
      "inputs": [
        {
          "internalType": "uint256",
          "name": "parentId",
          "type": "uint256"
        },
        {
          "internalType": "uint256",
          "name": "index",
          "type": "uint256"
        }
      ],
      "name": "pendingChildOf",
      "outputs": [
        {
          "components": [
            {
              "internalType": "uint256",
              "name": "tokenId",
              "type": "uint256"
            },
            {
              "internalType": "address",
              "name": "contractAddress",
              "type": "address"
            },
            {
              "internalType": "uint256",
              "name": "amount",
              "type": "uint256"
            }
          ],
          "internalType": "struct INestableERC1155.Child",
          "name": "",
          "type": "tuple"
        }
      ],
      "stateMutability": "view",
      "type": "function"
    },
    {
      "inputs": [
        {
          "internalType": "uint256",
          "name": "parentId",
          "type": "uint256"
        }
      ],
      "name": "pendingChildrenOf",
      "outputs": [
        {
          "components": [
            {
              "internalType": "uint256",
              "name": "tokenId",
              "type": "uint256"
            },
            {
              "internalType": "address",
              "name": "contractAddress",
              "type": "address"
            },
            {
              "internalType": "uint256",
              "name": "amount",
              "type": "uint256"
            }
          ],
          "internalType": "struct INestableERC1155.Child[]",
          "name": "",
          "type": "tuple[]"
        }
      ],
      "stateMutability": "view",
      "type": "function"
    },
    {
      "inputs": [
        {
          "internalType": "uint256",
          "name": "",
          "type": "uint256"
        },
        {
          "internalType": "address",
          "name": "",
          "type": "address"
        },
        {
          "internalType": "uint256",
          "name": "",
          "type": "uint256"
        }
      ],
      "name": "playlistNFTs",
      "outputs": [
        {
          "internalType": "bool",
          "name": "",
          "type": "bool"
        }
      ],
      "stateMutability": "view",
      "type": "function"
    },
    {
      "inputs": [
        {
          "internalType": "uint256",
          "name": "",
          "type": "uint256"
        },
        {
          "internalType": "uint256",
          "name": "",
          "type": "uint256"
        }
      ],
      "name": "playlists",
      "outputs": [
        {
          "internalType": "address",
          "name": "contractAddress",
          "type": "address"
        },
        {
          "internalType": "uint256",
          "name": "tokenId",
          "type": "uint256"
        }
      ],
      "stateMutability": "view",
      "type": "function"
    },
    {
      "inputs": [
        {
          "internalType": "uint256",
          "name": "parentId",
          "type": "uint256"
        },
        {
          "internalType": "uint256",
          "name": "maxRejections",
          "type": "uint256"
        }
      ],
      "name": "rejectAllChildren",
      "outputs": [],
      "stateMutability": "nonpayable",
      "type": "function"
    },
    {
      "inputs": [
        {
          "internalType": "address",
          "name": "fnftToken",
          "type": "address"
        },
        {
          "internalType": "uint256",
          "name": "payback_",
          "type": "uint256"
        }
      ],
      "name": "removeFNFTTokenPayback",
      "outputs": [],
      "stateMutability": "nonpayable",
      "type": "function"
    },
    {
      "inputs": [],
      "name": "renounceOwnership",
      "outputs": [],
      "stateMutability": "nonpayable",
      "type": "function"
    },
    {
      "inputs": [
        {
          "internalType": "bytes32",
          "name": "role",
          "type": "bytes32"
        },
        {
          "internalType": "address",
          "name": "account",
          "type": "address"
        }
      ],
      "name": "renounceRole",
      "outputs": [],
      "stateMutability": "nonpayable",
      "type": "function"
    },
    {
      "inputs": [
        {
          "internalType": "bytes32",
          "name": "role",
          "type": "bytes32"
        },
        {
          "internalType": "address",
          "name": "account",
          "type": "address"
        }
      ],
      "name": "revokeRole",
      "outputs": [],
      "stateMutability": "nonpayable",
      "type": "function"
    },
    {
      "inputs": [
        {
          "internalType": "address",
          "name": "from",
          "type": "address"
        },
        {
          "internalType": "address",
          "name": "to",
          "type": "address"
        },
        {
          "internalType": "uint256[]",
          "name": "ids",
          "type": "uint256[]"
        },
        {
          "internalType": "uint256[]",
          "name": "amounts",
          "type": "uint256[]"
        },
        {
          "internalType": "bytes",
          "name": "data",
          "type": "bytes"
        }
      ],
      "name": "safeBatchTransferFrom",
      "outputs": [],
      "stateMutability": "nonpayable",
      "type": "function"
    },
    {
      "inputs": [
        {
          "internalType": "address",
          "name": "from",
          "type": "address"
        },
        {
          "internalType": "address",
          "name": "to",
          "type": "address"
        },
        {
          "internalType": "uint256",
          "name": "id",
          "type": "uint256"
        },
        {
          "internalType": "uint256",
          "name": "amount",
          "type": "uint256"
        },
        {
          "internalType": "bytes",
          "name": "data",
          "type": "bytes"
        }
      ],
      "name": "safeTransferFrom",
      "outputs": [],
      "stateMutability": "nonpayable",
      "type": "function"
    },
    {
      "inputs": [
        {
          "internalType": "address",
          "name": "operator",
          "type": "address"
        },
        {
          "internalType": "bool",
          "name": "approved",
          "type": "bool"
        }
      ],
      "name": "setApprovalForAll",
      "outputs": [],
      "stateMutability": "nonpayable",
      "type": "function"
    },
    {
      "inputs": [
        {
          "internalType": "address[]",
          "name": "operators",
          "type": "address[]"
        },
        {
          "internalType": "address[]",
          "name": "holders",
          "type": "address[]"
        },
        {
          "internalType": "uint256",
          "name": "id",
          "type": "uint256"
        },
        {
          "internalType": "bool",
          "name": "approved",
          "type": "bool"
        }
      ],
      "name": "setApprovalsForAll",
      "outputs": [],
      "stateMutability": "nonpayable",
      "type": "function"
    },
    {
      "inputs": [
        {
          "internalType": "bytes4",
          "name": "interfaceId",
          "type": "bytes4"
        }
      ],
      "name": "supportsInterface",
      "outputs": [
        {
          "internalType": "bool",
          "name": "",
          "type": "bool"
        }
      ],
      "stateMutability": "view",
      "type": "function"
    },
    {
      "inputs": [
        {
          "internalType": "uint256",
          "name": "tokenId",
          "type": "uint256"
        },
        {
          "internalType": "address",
          "name": "to",
          "type": "address"
        },
        {
          "internalType": "uint256",
          "name": "destinationId",
          "type": "uint256"
        },
        {
          "internalType": "uint256",
          "name": "childIndex",
          "type": "uint256"
        },
        {
          "internalType": "address",
          "name": "childAddress",
          "type": "address"
        },
        {
          "internalType": "uint256",
          "name": "childId",
          "type": "uint256"
        },
        {
          "internalType": "bool",
          "name": "isPending",
          "type": "bool"
        },
        {
          "internalType": "bytes",
          "name": "data",
          "type": "bytes"
        }
      ],
      "name": "transferChild",
      "outputs": [],
      "stateMutability": "nonpayable",
      "type": "function"
    },
    {
      "inputs": [
        {
          "internalType": "uint256",
          "name": "tokenId",
          "type": "uint256"
        },
        {
          "internalType": "address",
          "name": "newOwner",
          "type": "address"
        }
      ],
      "name": "transferOwnership",
      "outputs": [],
      "stateMutability": "nonpayable",
      "type": "function"
    },
    {
      "inputs": [
        {
          "internalType": "address",
          "name": "newOwner",
          "type": "address"
        }
      ],
      "name": "transferOwnership",
      "outputs": [],
      "stateMutability": "nonpayable",
      "type": "function"
    },
    {
      "inputs": [
        {
          "internalType": "uint256",
          "name": "tokenId",
          "type": "uint256"
        }
      ],
      "name": "uri",
      "outputs": [
        {
          "internalType": "string",
          "name": "",
          "type": "string"
        }
      ],
      "stateMutability": "view",
      "type": "function"
    }
  ],
  "bytecode": "0x6080604052348015600e575f80fd5b50616b828061001c5f395ff3fe608060405234801561000f575f80fd5b5060043610610332575f3560e01c80636f19951c116101af578063a898e364116100fe578063e97ceaa81161009e578063f242432a11610079578063f242432a14610810578063f2fde38b14610823578063f5298aca14610836578063fb25fb7a14610849575f80fd5b8063e97ceaa8146107ca578063e985e9c5146107dd578063f23a6e61146107f0575f80fd5b8063cf53f305116100d9578063cf53f3051461076a578063d53913931461077d578063d547741f146107a4578063defa80c3146107b7575f80fd5b8063a898e36414610709578063af50c82f1461071c578063bc197c811461072f575f80fd5b80638da5cb5b11610169578063979613361161014457806397961336146106c95780639dfceb28146106dc578063a217fddf146106ef578063a22cb465146106f6575f80fd5b80638da5cb5b1461069257806391d14854146106a357806395b25869146106b6575f80fd5b80636f19951c14610620578063715018a614610633578063734570ca1461063b5780637f3457101461064e5780638129fc1c146106755780638b40eb531461067d575f80fd5b806334044ea911610285578063523b7dd1116102255780636352211e116102005780636352211e1461059d578063635490cc146105c857806368d61990146105db5780636b20c4541461060d575f80fd5b8063523b7dd11461054a578063557ebfbb1461057e5780635c975abb14610591575f80fd5b8063389389ff11610260578063389389ff146104e45780633f87cef2146104f757806344ec93441461050a5780634e1273f41461052a575f80fd5b806334044ea91461049557806336568abe146104be57806337c55d13146104d1575f80fd5b806329507f73116102f05780632eb2c2d6116102cb5780632eb2c2d61461043c5780632f2ff15d1461044f5780632f32f9371461046257806333f572f414610482575f80fd5b806329507f73146103f45780632b9169dd146104095780632bcc1b3014610429575f80fd5b8062fdd58e1461033657806301ffc9a71461035c57806305a100281461037f5780630e89341c14610392578063197f64bf146103b2578063248a9ca3146103d2575b5f80fd5b61034961034436600461552c565b610883565b6040519081526020015b60405180910390f35b61036f61036a36600461556b565b61091c565b6040519015158152602001610353565b61034961038d366004615586565b610940565b6103a56103a03660046155af565b610a44565b6040516103539190615613565b6103496103c03660046155af565b5f908152610191602052604090205490565b6103496103e03660046155af565b5f90815260fb602052604090206001015490565b610407610402366004615625565b610ae4565b005b61041c6104173660046155af565b610bff565b6040516103539190615653565b610407610437366004615759565b610c84565b61040761044a36600461584c565b611190565b61040761045d366004615625565b6111dc565b6104756104703660046158f2565b611205565b6040516103539190615912565b61040761049036600461593c565b6112c7565b6103496104a3366004615971565b6001600160a01b03165f908152610194602052604090205490565b6104076104cc366004615625565b61151a565b6103496104df36600461598c565b611598565b6104076104f2366004615a73565b611604565b610407610505366004615aed565b6117f3565b61051d6105183660046155af565b6118ea565b6040516103539190615b54565b61053d610538366004615bbe565b611971565b6040516103539190615c57565b61036f61055836600461593c565b61019260209081525f938452604080852082529284528284209052825290205460ff1681565b61040761058c366004615c69565b611a90565b61012d5460ff1661036f565b6105b06105ab3660046155af565b611b98565b6040516001600160a01b039091168152602001610353565b6104076105d6366004615ce1565b611de0565b6105ee6105e93660046158f2565b611f94565b604080516001600160a01b039093168352602083019190915201610353565b61040761061b366004615d22565b611fd7565b61051d61062e3660046155af565b61201a565b610407612099565b610407610649366004615aed565b6120ac565b6103497f7804d923f43a17d325d77e781528e0793b2edd9890ab45fc64efd7b4b427744c81565b61040761219d565b6106856122a8565b6040516103539190615d66565b60c9546001600160a01b03166105b0565b61036f6106b1366004615625565b612309565b6104076106c436600461593c565b612333565b6104076106d73660046158f2565b61243b565b6104076106ea36600461552c565b612527565b6103495f81565b610407610704366004615da6565b612612565b6104756107173660046158f2565b61261c565b61040761072a36600461552c565b612694565b61075161073d366004615e56565b63bc197c8160e01b98975050505050505050565b6040516001600160e01b03199091168152602001610353565b610407610778366004615f0c565b61275b565b6103497f9f2df0fed2c77648de5860a4cc508cd0818c85b8b8a1ab4ceeef8d981c8956a681565b6104076107b2366004615625565b612afe565b6104076107c536600461601b565b612b22565b6104076107d83660046160b0565b612e59565b61036f6107eb3660046160ec565b612edc565b6107516107fe366004616118565b63f23a6e6160e01b9695505050505050565b61040761081e36600461618e565b612f09565b610407610831366004615971565b612f4e565b6104076108443660046161f1565b612fc4565b61085c6108573660046155af565b613007565b604080516001600160a01b0390941684526020840192909252151590820152606001610353565b5f6001600160a01b0383166108f25760405162461bcd60e51b815260206004820152602a60248201527f455243313135353a2061646472657373207a65726f206973206e6f742061207660448201526930b634b21037bbb732b960b11b60648201526084015b60405180910390fd5b505f8181526065602090815260408083206001600160a01b03861684529091529020545b92915050565b5f6001600160e01b03198216634771f78f60e11b148061091657506109168261310d565b5f610949613131565b5f8061095486613007565b509150915061096a6109633390565b878761318a565b6109743387610883565b5f036109a957305f9081526101ca60209081526040808320898452909152812090815560010180546001600160a01b03191690555b5f6109b4878661329f565b305f9081526101ca602090815260408083208b8452825280832083815560010180546001600160a01b03191690558051868152918201839052810189905291925088916001600160a01b038616907f9dc411b7575b4cb81d6bbdf1cfbc0713fb4a373033de0632d6691c1d16fc5fa39060600160405180910390a492505050610a3d6001609755565b9392505050565b5f81815261019560205260409020805460609190610a6190616223565b80601f0160208091040260200160405190810160405280929190818152602001828054610a8d90616223565b8015610ad85780601f10610aaf57610100808354040283529160200191610ad8565b820191905f5260205f20905b815481529060010190602001808311610abb57829003601f168201915b50505050509050919050565b335f8080610af186613007565b925092509250610b0184876133ed565b610b1e576040516381dd7ec760e01b815260040160405180910390fd5b6001600160a01b038516610b4557604051634ece6ecf60e01b815260040160405180910390fd5b846001600160a01b0316836001600160a01b031603610b7757604051633d8aed7f60e11b815260040160405180910390fd5b6040805180820182525f8082526001600160a01b0388811660208085018281523085526101ca82528685208d86529091528584209451855551600190940180546001600160a01b031916948316949094179093559251919286169189917fa2e7a8a370533462b13ece2478d36768ad75462e24ab1658cbfb7858f6d8aab091a4505050505050565b60606101915f8381526020019081526020015f20805480602002602001604051908101604052809291908181526020015f905b82821015610c79575f848152602090819020604080518082019091526002850290910180546001600160a01b03168252600190810154828401529083529092019101610c32565b505050509050919050565b305f9081526101ca602090815260408083208784529091529020600101546001600160a01b0316610cc857604051631b9928fd60e31b815260040160405180910390fd5b610cd3335b85613449565b610cf0576040516381dd7ec760e01b815260040160405180910390fd5b5f805f610cfc87613007565b925092509250610d38604051806040016040528060158152602001742830b932b73a1031b7b73a32bc3a1031b432b1b59d60591b8152506135b4565b610d676040518060400160405280600d81526020016c2830b932b73a1037bbb732b91d60991b815250846135f7565b610d906040518060400160405280600781526020016624b99027232a1d60c91b8152508261363c565b5f8115610e4857604051627eeac760e11b81526001600160a01b038516600482015260248101899052309062fdd58e90604401602060405180830381865afa158015610dde573d5f803e3d5ffd5b505050506040513d601f19601f82011682018060405250810190610e02919061625b565b9050610e436040518060400160405280601a81526020017f506172656e742062616c616e636520696e20636f6e746578743a00000000000081525082613681565b610e55565b610e528489610883565b90505b805f03610e7557604051636da4369160e01b815260040160405180910390fd5b5f6001600160a01b03881662fdd58e336040516001600160e01b031960e084901b1681526001600160a01b039091166004820152602481018a9052604401602060405180830381865afa158015610ece573d5f803e3d5ffd5b505050506040513d601f19601f82011682018060405250810190610ef2919061625b565b9050610f246040518060400160405280600e81526020016d21b434b632103130b630b731b29d60911b81525082613681565b610f636040518060400160405280601881526020017f526571756972656420706172656e742062616c616e63653a000000000000000081525083613681565b81811015610f845760405163aa13c3ff60e01b815260040160405180910390fd5b6040516301ffc9a760e01b8152634771f78f60e11b60048201526001600160a01b038916906301ffc9a790602401602060405180830381865afa158015610fcd573d5f803e3d5ffd5b505050506040513d601f19601f82011682018060405250810190610ff19190616272565b1561105e576001600160a01b03881663557ebfbb33308a868e8c6040518763ffffffff1660e01b815260040161102c9695949392919061628d565b5f604051808303815f87803b158015611043575f80fd5b505af1158015611055573d5f803e3d5ffd5b505050506110c0565b604051637921219560e11b81526001600160a01b0389169063f242432a9061109290339030908c9088908d906004016162d5565b5f604051808303815f87803b1580156110a9575f80fd5b505af11580156110bb573d5f803e3d5ffd5b505050505b604080516060810182528881526001600160a01b038a811660208084019182528385018781525f8f81526101cb8352958620805460018082018355918852929096208551600390930201918255915194810180546001600160a01b031916959093169490941790915551600290920191909155873033604080515f8152602081018f90529081018790526001600160a01b0391909116907f9dc411b7575b4cb81d6bbdf1cfbc0713fb4a373033de0632d6691c1d16fc5fa39060600160405180910390a450505050505050505050565b6001600160a01b0385163314806111ac57506111ac8533612edc565b6111c85760405162461bcd60e51b81526004016108e990616319565b6111d585858585856136c6565b5050505050565b5f82815260fb60205260409020600101546111f68161385f565b6112008383613869565b505050565b61122f60405180606001604052805f81526020015f6001600160a01b031681526020015f81525090565b5f8381526101cb6020526040902054821061125d5760405163653e642560e11b815260040160405180910390fd5b5f8381526101cb6020526040902080548390811061127d5761127d616367565b5f9182526020918290206040805160608101825260039093029091018054835260018101546001600160a01b03169383019390935260029092015491810191909152905092915050565b5f838152610192602090815260408083206001600160a01b0386168452825280832084845290915290205460ff166113375760405162461bcd60e51b8152602060048201526013602482015272139195081b9bdd081a5b881c1b185e5b1a5cdd606a1b60448201526064016108e9565b5f805b5f85815261019160205260409020548110156113e7575f8581526101916020526040902080546001600160a01b03861691908390811061137c5761137c616367565b5f9182526020909120600290910201546001600160a01b03161480156113d257505f858152610191602052604090208054849190839081106113c0576113c0616367565b905f5260205f20906002020160010154145b156113df578091506113e7565b60010161133a565b505f84815261019160205260409020546114039060019061638f565b81101561149d575f8481526101916020526040902080546114269060019061638f565b8154811061143657611436616367565b905f5260205f2090600202016101915f8681526020019081526020015f20828154811061146557611465616367565b5f9182526020909120825460029092020180546001600160a01b0319166001600160a01b039092169190911781556001918201549101555b5f848152610191602052604090208054806114ba576114ba6163a2565b5f828152602080822060025f199094019384020180546001600160a01b031916815560010182905591909255948152610192855260408082206001600160a01b039590951682529385528381209281529190935220805460ff1916905550565b6001600160a01b038116331461158a5760405162461bcd60e51b815260206004820152602f60248201527f416363657373436f6e74726f6c3a2063616e206f6e6c792072656e6f756e636560448201526e103937b632b9903337b91039b2b63360891b60648201526084016108e9565b61159482826138ee565b5050565b5f806115a78787878787613954565b6040805180820182525f8082526001600160a01b039a8b1660208084019182523083526101ca81528483208684529052929020905181559051600190910180546001600160a01b0319169190991617909755509495945050505050565b604051627eeac760e11b8152336004820152602481018390525f90309062fdd58e90604401602060405180830381865afa158015611644573d5f803e3d5ffd5b505050506040513d601f19601f82011682018060405250810190611668919061625b565b116116bf5760405162461bcd60e51b815260206004820152602160248201527f43616c6c6572206973206e6f7420616e206f776e6572206f6620746865204e466044820152601560fa1b60648201526084016108e9565b5f5b84518110156111d5575f306001600160a01b03168683815181106116e7576116e7616367565b60209081029190910101516040516001600160a01b039091166024820152841515604482015260640160408051601f198184030181529181526020820180516001600160e01b031663a22cb46560e01b1790525161174591906163b6565b5f60405180830381855af49150503d805f811461177d576040519150601f19603f3d011682016040523d82523d5f602084013e611782565b606091505b50509050806117ea5760405162461bcd60e51b815260206004820152602e60248201527f556e61626c6520746f20617070726f766520616c6c20676976656e207469707460448201526d6f6b656e20636f6e74726163747360901b60648201526084016108e9565b506001016116c1565b80518251146118445760405162461bcd60e51b815260206004820181905260248201527f417272617973206d7573742068617665207468652073616d65206c656e67746860448201526064016108e9565b5f8251116118945760405162461bcd60e51b815260206004820152601c60248201527f417272617973206d7573742068617665206c656e67746873203e20300000000060448201526064016108e9565b5f5b82518110156118e4576118dc848483815181106118b5576118b5616367565b60200260200101518484815181106118cf576118cf616367565b6020026020010151612333565b600101611896565b50505050565b60606101cc5f8381526020019081526020015f20805480602002602001604051908101604052809291908181526020015f905b82821015610c79575f8481526020908190206040805160608101825260038602909201805483526001808201546001600160a01b03168486015260029091015491830191909152908352909201910161191d565b606081518351146119d65760405162461bcd60e51b815260206004820152602960248201527f455243313135353a206163636f756e747320616e6420696473206c656e677468604482015268040dad2e6dac2e8c6d60bb1b60648201526084016108e9565b5f83516001600160401b038111156119f0576119f06156aa565b604051908082528060200260200182016040528015611a19578160200160208202803683370190505b5090505f5b8451811015611a8857611a63858281518110611a3c57611a3c616367565b6020026020010151858381518110611a5657611a56616367565b6020026020010151610883565b828281518110611a7557611a75616367565b6020908102919091010152600101611a1e565b509392505050565b611a98613131565b611aa58686868685612f09565b8115611b04576040805180820182528381526001600160a01b038781166020808401918252305f9081526101ca82528581208a825290915293909320915182559151600190910180546001600160a01b03191691909216179055611b33565b305f9081526101ca60209081526040808320878452909152812090815560010180546001600160a01b03191690555b604080515f81526020810184905290810184905284906001600160a01b0380881691908916907f9dc411b7575b4cb81d6bbdf1cfbc0713fb4a373033de0632d6691c1d16fc5fa39060600160405180910390a4611b906001609755565b505050505050565b5f611bd86040518060400160405280601c81526020017f6f776e65724f662063616c6c6564207769746820746f6b656e49643a0000000081525083613681565b5f805f611be485613007565b925092509250611c2b6040518060400160405280601f81526020017f496e697469616c206469726563744f776e65724f662072657475726e65643a00815250848484613a44565b8015611d9857611c936040518060400160405280601c81526020017f54726176657273696e672075703a2063757272656e744f776e65723a0000000081525084604051806040016040528060098152602001683830b932b73a24b21d60b91b81525085613a8d565b604051637d92fdbd60e11b8152600481018390526001600160a01b0384169063fb25fb7a90602401606060405180830381865afa158015611cd6573d5f803e3d5ffd5b505050506040513d601f19601f82011682018060405250810190611cfa91906163d1565b60408051808201909152601e81527f41667465722074726176657273616c3a2063757272656e744f776e65723a000060208201529295509093509150611d4090846135f7565b611d6b604051806040016040528060098152602001683830b932b73a24b21d60b91b81525083613681565b611d936040518060400160405280600681526020016534b9a7333a1d60d11b8152508261363c565b611c2b565b611dd76040518060400160405280601881526020017f46696e616c206f776e65724f662072657475726e696e673a0000000000000000815250846135f7565b50909392505050565b305f9081526101ca602090815260408083208684529091529020600101546001600160a01b0316611e2457604051637782027d60e01b815260040160405180910390fd5b33308103611e4557604051636927303360e11b815260040160405180910390fd5b611e4e33610ccd565b611e6b576040516381dd7ec760e01b815260040160405180910390fd5b305f9081526101ca60209081526040808320878452909152812060010154611e9c906001600160a01b031686610883565b9050805f03611ebe57604051636da4369160e01b815260040160405180910390fd5b5f6001600160a01b03831662fdd58e336040516001600160e01b031960e084901b1681526001600160a01b03909116600482015260248101889052604401602060405180830381865afa158015611f17573d5f803e3d5ffd5b505050506040513d601f19601f82011682018060405250810190611f3b919061625b565b905081811015611f5e5760405163aa13c3ff60e01b815260040160405180910390fd5b604080516060810182528681526001600160a01b0385166020820152908101839052611f8b878287613ad6565b50505050505050565b610191602052815f5260405f208181548110611fae575f80fd5b5f918252602090912060029091020180546001909101546001600160a01b039091169250905082565b6001600160a01b038316331480611ff35750611ff38333612edc565b61200f5760405162461bcd60e51b81526004016108e990616319565b611200838383613b9f565b5f8181526101cb60209081526040808320805482518185028101850190935280835260609492939192909184018215610c79575f8481526020908190206040805160608101825260038602909201805483526001808201546001600160a01b03168486015260029091015491830191909152908352909201910161191d565b6120a1613d2a565b6120aa5f613d84565b565b80518251146120fd5760405162461bcd60e51b815260206004820181905260248201527f417272617973206d7573742068617665207468652073616d65206c656e67746860448201526064016108e9565b5f82511161214d5760405162461bcd60e51b815260206004820152601c60248201527f417272617973206d7573742068617665206c656e67746873203e20300000000060448201526064016108e9565b5f5b82518110156118e4576121958484838151811061216e5761216e616367565b602002602001015184848151811061218857612188616367565b60200260200101516112c7565b60010161214f565b5f54610100900460ff16158080156121bb57505f54600160ff909116105b806121d45750303b1580156121d457505f5460ff166001145b6122375760405162461bcd60e51b815260206004820152602e60248201527f496e697469616c697a61626c653a20636f6e747261637420697320616c72656160448201526d191e481a5b9a5d1a585b1a5e995960921b60648201526084016108e9565b5f805460ff191660011790558015612258575f805461ff0019166101001790555b612260613dd5565b80156122a5575f805461ff0019169055604051600181527f7f26b83ff96e1f2b6a682f133852f6798a09c465da95921460cefb38474024989060200160405180910390a15b50565b60606101938054806020026020016040519081016040528092919081815260200182805480156122ff57602002820191905f5260205f20905b81546001600160a01b031681526001909101906020018083116122e1575b5050505050905090565b5f91825260fb602090815260408084206001600160a01b0393909316845291905290205460ff1690565b5f838152610192602090815260408083206001600160a01b0386168452825280832084845290915290205460ff16156123ae5760405162461bcd60e51b815260206004820152601760248201527f4e465420616c726561647920696e20706c61796c69737400000000000000000060448201526064016108e9565b5f83815261019160209081526040808320815180830183526001600160a01b039687168082528185018781528354600180820186559488528688209351600290910290930180546001600160a01b0319169390991692909217885590519682019690965595835261019282528083209483529381528382209282529190915220805460ff19169091179055565b6124453383613449565b612462576040516381dd7ec760e01b815260040160405180910390fd5b5f8281526101cc60205260409020548181111561249257604051631e73178b60e11b815260040160405180910390fd5b805b80156124f7575f8481526101cc602052604090208054806124b7576124b76163a2565b5f8281526020812060035f19909301928302018181556001810180546001600160a01b0319169055600201559055806124ef81616411565b915050612494565b5060405183907f8ac4a0d65950c3e40448afb2260e2e0ec36ea15644d9b39e37e85472e5f94451905f90a2505050565b5f81116125765760405162461bcd60e51b815260206004820152601e60248201527f5061796261636b206d7573742062652067726561746572207468616e2030000060448201526064016108e9565b6001600160a01b0382165f908152610194602052604081205490036125e15761019380546001810182555f919091527ffc8af01f449989052b52093a58fc9f42d0b11f0c6dd5dca0463dab62346ccc680180546001600160a01b0319166001600160a01b0384161790555b6001600160a01b0382165f908152610194602052604081208054839290612609908490616426565b90915550505050565b6115948282613e6e565b61264660405180606001604052805f81526020015f6001600160a01b031681526020015f81525090565b5f8381526101cc602052604090205482106126745760405163da22687f60e01b815260040160405180910390fd5b5f8381526101cc6020526040902080548390811061127d5761127d616367565b6001600160a01b0382165f90815261019460205260409020548111156127065760405162461bcd60e51b815260206004820152602160248201527f5061796261636b206d7573742072656d61696e207a65726f206f72206d6f72656044820152601760f91b60648201526084016108e9565b6001600160a01b0382165f90815261019460205260408120805483929061272e90849061638f565b90915550506001600160a01b0382165f908152610194602052604081205490036115945761159482613e79565b82516001148061276c575081518351145b6127d25760405162461bcd60e51b815260206004820152603160248201527f546970455243313135353a20746f6b656e5552497320616e6420616d6f756e746044820152700e640d8cadccee8d040dad2e6dac2e8c6d607b1b60648201526084016108e9565b825160010361299b576127ea61019780546001019055565b336101965f6127f96101975490565b81526020019081526020015f205f6101000a8154816001600160a01b0302191690836001600160a01b031602179055505f5b8251811015612995575f6001600160a01b031685828151811061285057612850616367565b60200260200101516001600160a01b03160361287e5760405162461bcd60e51b81526004016108e990616439565b5f80306001600160a01b031687848151811061289c5761289c616367565b60200260200101516128ae6101975490565b885f815181106128c0576128c0616367565b60200260200101518887815181106128da576128da616367565b6020026020010151886040516024016128f795949392919061647a565b60408051601f198184030181529181526020820180516001600160e01b03166337c55d1360e01b1790525161292c91906163b6565b5f60405180830381855af49150503d805f8114612964576040519150601f19603f3d011682016040523d82523d5f602084013e612969565b606091505b50915091508161298b5760405162461bcd60e51b81526004016108e9906164b8565b505060010161282b565b506118e4565b5f5b82518110156111d5575f6001600160a01b03168582815181106129c2576129c2616367565b60200260200101516001600160a01b0316036129f05760405162461bcd60e51b81526004016108e990616439565b5f80306001600160a01b0316878481518110612a0e57612a0e616367565b60200260200101515f888681518110612a2957612a29616367565b6020026020010151888781518110612a4357612a43616367565b602002602001015188604051602401612a60959493929190616504565b60408051601f198184030181529181526020820180516001600160e01b03166337c55d1360e01b17905251612a9591906163b6565b5f60405180830381855af49150503d805f8114612acd576040519150601f19603f3d011682016040523d82523d5f602084013e612ad2565b606091505b509150915081612af45760405162461bcd60e51b81526004016108e9906164b8565b505060010161299d565b5f82815260fb6020526040902060010154612b188161385f565b61120083836138ee565b612b2a613131565b612b4c604051806040016040528060018152602001600360fc1b8152506135b4565b612b563389613449565b612b9557612b7c604051806040016040528060018152602001603160f81b8152506135b4565b6040516381dd7ec760e01b815260040160405180910390fd5b5f82612bae575f8981526101cb60205260409020612bbd565b5f8981526101cc602052604090205b80549091508610612c0357612bea604051806040016040528060018152602001603360f81b8152506135b4565b60405163a25f554f60e01b815260040160405180910390fd5b846001600160a01b0316818781548110612c1f57612c1f616367565b5f9182526020909120600160039092020101546001600160a01b031614612cae57612c95604051806040016040528060018152602001600d60fa1b815250828881548110612c6f57612c6f616367565b5f9182526020909120600160039092020101546001600160a01b03908116908816613fd9565b60405163238c3adf60e21b815260040160405180910390fd5b83818781548110612cc157612cc1616367565b905f5260205f2090600302015f015414612d3257612d19604051806040016040528060018152602001603560f81b815250828881548110612d0457612d04616367565b905f5260205f2090600302015f015486613fd9565b60405163e5a7814d60e01b815260040160405180910390fd5b5f818781548110612d4557612d45616367565b905f5260205f209060030201600201549050612d966040518060400160405280601981526020017f4368696c6420616d6f756e742066726f6d207265636f72643a0000000000000081525082613681565b8315612db157612dac8a8a8a8a8a8a878a614020565b612e05565b612e056040518061010001604052808c81526020018b6001600160a01b031681526020018a8152602001898152602001886001600160a01b0316815260200187815260200183815260200185815250614223565b612e436040518060400160405280601781526020017f7472616e736665724368696c6420636f6d706c657465640000000000000000008152506135b4565b5050612e4f6001609755565b5050505050505050565b612e6233610ccd565b612e7f576040516381dd7ec760e01b815260040160405180910390fd5b5f612e8a858561261c565b9050826001600160a01b031681602001516001600160a01b0316141580612eb2575080518214155b15612ed05760405163e06651ed60e01b815260040160405180910390fd5b6111d5858585856146a7565b6001600160a01b039182165f90815260666020908152604080832093909416825291909152205460ff1690565b6001600160a01b038516331480612f255750612f258533612edc565b612f415760405162461bcd60e51b81526004016108e990616319565b6111d585858585856147c7565b612f56613d2a565b6001600160a01b038116612fbb5760405162461bcd60e51b815260206004820152602660248201527f4f776e61626c653a206e6577206f776e657220697320746865207a65726f206160448201526564647265737360d01b60648201526084016108e9565b6122a581613d84565b6001600160a01b038316331480612fe05750612fe08333612edc565b612ffc5760405162461bcd60e51b81526004016108e990616319565b61120083838361318a565b305f9081526101ca602090815260408083208484528252808320815180830190925280548252600101546001600160a01b03169181018290528291829190613062576040516307ae018160e21b815260040160405180910390fd5b613095604051806040016040528060128152602001712234b932b1ba27bbb732b91031b432b1b59d60711b8152506135b4565b6130c96040518060400160405280600e81526020016d37bbb732b91030b2323932b9b99d60911b81525082602001516135f7565b6130f7604051806040016040528060098152602001683a37b5b2b71034b21d60b91b815250825f0151613681565b8051602090910151959094508415159350915050565b5f6001600160e01b03198216630271189760e51b14806109165750610916826148ff565b6002609754036131835760405162461bcd60e51b815260206004820152601f60248201527f5265656e7472616e637947756172643a207265656e7472616e742063616c6c0060448201526064016108e9565b6002609755565b6001600160a01b0383166131b05760405162461bcd60e51b81526004016108e990616530565b335f6131bb84614929565b90505f6131c784614929565b90506131e583875f858560405180602001604052805f815250614972565b5f8581526065602090815260408083206001600160a01b038a168452909152902054848110156132275760405162461bcd60e51b81526004016108e990616573565b5f8681526065602090815260408083206001600160a01b038b81168086529184528285208a8703905582518b81529384018a90529092908816917fc3d58168c5ae7397731d063d5bbf3d657854427343f4c083240f7aacaa2d0f62910160405180910390a460408051602081019091525f9052611f8b565b5f8281526101cb60209081526040808320805482518185028101850190935280835284938493929190849084015b82821015613321575f8481526020908190206040805160608101825260038602909201805483526001808201546001600160a01b0316848601526002909101549183019190915290835290920191016132cd565b5050505090505f5b81518110801561333857508483105b156133b7575f82828151811061335057613350616367565b60200260200101519050306001600160a01b031681602001516001600160a01b0316036133a457805161338c90613387868961638f565b61329f565b613397906001616426565b6133a19085616426565b93505b50806133af816165b7565b915050613329565b505f8581526101cb602052604081206133cf916154cf565b5f8581526101cc60205260408120611a88916154cf565b6001609755565b5f805f6133f984613007565b5091509150805f1461341b57506001600160a01b038481169116149050610916565b816001600160a01b0316856001600160a01b0316148061344057506134408286612edc565b95945050505050565b5f61346c604051806060016040528060278152602001616b266027913983613681565b5f61347683611b98565b90506134b76040518060400160405280601a81526020017f6f776e65724f6628746f6b656e4964292072657475726e65643a000000000000815250826135f7565b5f6134c28286612edc565b90506135036040518060400160405280601a81526020017f6973417070726f766564466f72416c6c2072657475726e65643a0000000000008152508261363c565b61352b6040518060400160405280600681526020016537bbb732b91d60d11b815250836135f7565b6135556040518060400160405280600881526020016739b832b73232b91d60c11b815250866135f7565b5f826001600160a01b0316866001600160a01b031614806135735750815b90506134406040518060400160405280602081526020017f46696e616c205f6973417070726f7665644f724f776e657220726573756c743a8152508261363c565b6122a5816040516024016135c89190615613565b60408051601f198184030181529190526020810180516001600160e01b031663104c13eb60e21b17905261498d565b611594828260405160240161360d9291906165cf565b60408051601f198184030181529190526020810180516001600160e01b031663319af33360e01b17905261498d565b61159482826040516024016136529291906165f8565b60408051601f198184030181529190526020810180516001600160e01b031663c3b5563560e01b17905261498d565b611594828260405160240161369792919061661b565b60408051601f198184030181529190526020810180516001600160e01b0316632d839cb360e21b17905261498d565b81518351146136e75760405162461bcd60e51b81526004016108e99061663c565b6001600160a01b03841661370d5760405162461bcd60e51b81526004016108e990616684565b3361371c818787878787614972565b5f5b84518110156137f9575f85828151811061373a5761373a616367565b602002602001015190505f85838151811061375757613757616367565b6020908102919091018101515f8481526065835260408082206001600160a01b038e1683529093529190912054909150818110156137a75760405162461bcd60e51b81526004016108e9906166c9565b5f8381526065602090815260408083206001600160a01b038e8116855292528083208585039055908b168252812080548492906137e5908490616426565b90915550506001909301925061371e915050565b50846001600160a01b0316866001600160a01b0316826001600160a01b03167f4a39dc06d4c0dbc64b70af90fd698a233a518aa5d07e595d983b8c0526c8f7fb8787604051613849929190616713565b60405180910390a4611b90818787878787614996565b6122a58133614af0565b6138738282612309565b611594575f82815260fb602090815260408083206001600160a01b03851684529091529020805460ff191660011790556138aa3390565b6001600160a01b0316816001600160a01b0316837f2f8788117e7eff1d82e926ec794901d17c78024a50270940304540a733656f0d60405160405180910390a45050565b6138f88282612309565b15611594575f82815260fb602090815260408083206001600160a01b0385168085529252808320805460ff1916905551339285917ff6391f5c32d9c69d2a47ea670b442974b53935d1edc7fd64eb21e047a839171b9190a45050565b5f80855f036139955761396c61019780546001019055565b610197545f8181526101966020526040902080546001600160a01b031916331790559050613998565b50845b5f81815261019660205260409020546001600160a01b03163314613a245760405162461bcd60e51b815260206004820152603b60248201527f455243313135353a2063616c6c657220646f6573206e6f742068617665206d6960448201527f6e74657220726f6c6520666f72207468697320746f6b656e204944000000000060648201526084016108e9565b613a3087828686614b49565b613a3a8186614bdd565b9695505050505050565b6118e484848484604051602401613a5e9493929190616737565b60408051601f198184030181529190526020810180516001600160e01b0316630fc4845f60e41b17905261498d565b6118e484848484604051602401613aa79493929190616770565b60408051601f198184030181529190526020810180516001600160e01b03166348e8889760e11b17905261498d565b5f8381526101cc602052604090205460808110613b065760405163a53c8c0560e01b815260040160405180910390fd5b5f8481526101cc602090815260408083208054600180820183559185529383902087516003909502018481558784015191810180546001600160a01b0319166001600160a01b0390931692831790558783015160029091018190558251868152938401529187917f3b4ae98363a1133c9660a533780627118889e5a8e768097a08b8e9893bd6c96f91015b60405180910390a450505050565b6001600160a01b038316613bc55760405162461bcd60e51b81526004016108e990616530565b8051825114613be65760405162461bcd60e51b81526004016108e99061663c565b5f339050613c0681855f868660405180602001604052805f815250614972565b5f5b8351811015613cbf575f848281518110613c2457613c24616367565b602002602001015190505f848381518110613c4157613c41616367565b6020908102919091018101515f8481526065835260408082206001600160a01b038c168352909352919091205490915081811015613c915760405162461bcd60e51b81526004016108e990616573565b5f9283526065602090815260408085206001600160a01b038b16865290915290922091039055600101613c08565b505f6001600160a01b0316846001600160a01b0316826001600160a01b03167f4a39dc06d4c0dbc64b70af90fd698a233a518aa5d07e595d983b8c0526c8f7fb8686604051613d0f929190616713565b60405180910390a460408051602081019091525f90526118e4565b60c9546001600160a01b031633146120aa5760405162461bcd60e51b815260206004820181905260248201527f4f776e61626c653a2063616c6c6572206973206e6f7420746865206f776e657260448201526064016108e9565b60c980546001600160a01b038381166001600160a01b0319831681179093556040519116919082907f8be0079c531659141344cd1fd0a4f28419497f9722a3daafe3b4186f6b6457e0905f90a35050565b5f54610100900460ff16613dfb5760405162461bcd60e51b81526004016108e9906167b5565b613e1260405180602001604052805f815250614bf5565b613e1a614c24565b613e22614c52565b613e2a614c80565b613e32614ca6565b613e3a614c80565b613e445f33614cd4565b6120aa7f7804d923f43a17d325d77e781528e0793b2edd9890ab45fc64efd7b4b427744c33614cd4565b611594338383614cde565b6001600160a01b0381165f908152610194602052604090205415613edf5760405162461bcd60e51b815260206004820152601f60248201527f43616e6e6f742072656d6f7665206e6f6e2d7a65726f207061796261636b2e0060448201526064016108e9565b5f5b6101935481101561159457816001600160a01b03166101938281548110613f0a57613f0a616367565b5f918252602090912001546001600160a01b031603613fd1576101938054613f349060019061638f565b81548110613f4457613f44616367565b5f9182526020909120015461019380546001600160a01b039092169183908110613f7057613f70616367565b905f5260205f20015f6101000a8154816001600160a01b0302191690836001600160a01b03160217905550610193805480613fad57613fad6163a2565b5f8281526020902081015f1990810180546001600160a01b03191690550190555050565b600101613ee1565b611200838383604051602401613ff193929190616800565b60408051601f198184030181529190526020810180516001600160e01b031663ca47c4eb60e01b17905261498d565b6001600160a01b0387166140c0575f8881526101cc602052604090206140469086614dbd565b60405162b4200560e31b815260048101849052602481018390525f60448201526001600160a01b038516906305a10028906064016020604051808303815f875af1158015614096573d5f803e3d5ffd5b505050506040513d601f19601f820116820180604052508101906140ba919061625b565b506141c1565b855f03614145575f8881526101cc602052604090206140df9086614dbd565b604051637921219560e11b81526001600160a01b0385169063f242432a906141139030908b908890889088906004016162d5565b5f604051808303815f87803b15801561412a575f80fd5b505af115801561413c573d5f803e3d5ffd5b505050506141c1565b5f8881526101cc6020526040902061415d9086614dbd565b60405163557ebfbb60e01b81526001600160a01b0385169063557ebfbb906141939030908b90889088908d90899060040161628d565b5f604051808303815f87803b1580156141aa575f80fd5b505af11580156141bc573d5f803e3d5ffd5b505050505b60408051868152602081018490526001818301526001600160a01b03898116156060830152915185928716918b917fe8477119660c6292f37d28572c30de7b7b32e9d479aff14b5be1cdd5a9c0fb409181900360800190a45050505050505050565b61422c81614ed3565b5f805f61423b845f0151613007565b9250925092506142726040518060400160405280600f81526020016e2830b932b73a1031b7b73a32bc3a1d60891b815250846135f7565b83515f9081526101cb6020526040902060608501516142919190614dbd565b60208401516001600160a01b031661432c57608084015160a085015160c086015160405162b4200560e31b8152600481019290925260248201525f60448201526001600160a01b03909116906305a10028906064016020604051808303815f875af1158015614302573d5f803e3d5ffd5b505050506040513d601f19601f82011682018060405250810190614326919061625b565b50614636565b83604001515f036145ba576040805180820182525f8082526020878101516001600160a01b0390811682850190815260808a0151821684526101ca835285842060a08b01518552835292859020935184559151600190930180546001600160a01b03191693909216929092179055815180830190925260148252732a3930b739b332b93934b733903a379022a7a09d60611b908201526143cb906135b4565b6143f260405180604001604052806005815260200164233937b69d60d91b815250306135f7565b61441b604051806040016040528060038152602001622a379d60e91b81525085602001516135f7565b614449604051806040016040528060088152602001672a37b5b2b724b21d60c11b8152508560a00151613681565b6144766040518060400160405280600781526020016620b6b7bab73a1d60c91b8152508560c00151613681565b83608001516001600160a01b031663f242432a3086602001518760a001518860c001518960e001516040518663ffffffff1660e01b81526004016144be9594939291906162d5565b5f604051808303815f87803b1580156144d5575f80fd5b505af11580156144e7573d5f803e3d5ffd5b505050506145b56040518060400160405280601781526020017f4166746572207472616e736665722062616c616e63653a00000000000000000081525085608001516001600160a01b031662fdd58e87602001518860a001516040518363ffffffff1660e01b81526004016145719291906001600160a01b03929092168252602082015260400190565b602060405180830381865afa15801561458c573d5f803e3d5ffd5b505050506040513d601f19601f820116820180604052508101906145b0919061625b565b613681565b614636565b83608001516001600160a01b031663557ebfbb3086602001518760a001518860c0015189604001518a60e001516040518763ffffffff1660e01b81526004016146089695949392919061628d565b5f604051808303815f87803b15801561461f575f80fd5b505af1158015614631573d5f803e3d5ffd5b505050505b60a0840151608080860151865160608089015160c08a01516020808c015160408051948552918401929092525f908301526001600160a01b03908116159282019290925292169290917fe8477119660c6292f37d28572c30de7b7b32e9d479aff14b5be1cdd5a9c0fb409101613b91565b5f8481526101cc602052604081208054859081106146c7576146c7616367565b5f91825260208083206040805160608101825260039094029091018054845260018101546001600160a01b03168484015260020154838201528884526101cc9091529091209091506147199085614dbd565b5f8581526101cb6020908152604080832080546001808201835582865284862087516003909302019182559386015181850180546001600160a01b0319166001600160a01b0392831617905592860151600290910155928890529154849286169188917f4495c945f4c24d347478e06072789e9381e36b35595872cdec7558142e62a7a7916147a79161638f565b604080870151815192835260208301520160405180910390a45050505050565b6001600160a01b0384166147ed5760405162461bcd60e51b81526004016108e990616684565b335f6147f885614929565b90505f61480485614929565b9050614814838989858589614972565b5f8681526065602090815260408083206001600160a01b038c168452909152902054858110156148565760405162461bcd60e51b81526004016108e9906166c9565b5f8781526065602090815260408083206001600160a01b038d8116855292528083208985039055908a16825281208054889290614894908490616426565b909155505060408051888152602081018890526001600160a01b03808b16928c821692918816917fc3d58168c5ae7397731d063d5bbf3d657854427343f4c083240f7aacaa2d0f62910160405180910390a46148f4848a8a8a8a8a61503d565b505050505050505050565b5f614909826150f7565b8061091657506001600160e01b03198216638de886fd60e01b1492915050565b6040805160018082528183019092526060915f91906020808301908036833701905050905082815f8151811061496157614961616367565b602090810291909101015292915050565b6001600160a01b03851661498857614988613d2a565b611b90565b6122a58161511b565b6001600160a01b0384163b15611b905760405163bc197c8160e01b81526001600160a01b0385169063bc197c81906149da9089908990889088908890600401616824565b6020604051808303815f875af1925050508015614a14575060408051601f3d908101601f19168201909252614a1191810190616875565b60015b614ac057614a20616890565b806308c379a003614a595750614a346168a9565b80614a3f5750614a5b565b8060405162461bcd60e51b81526004016108e99190615613565b505b60405162461bcd60e51b815260206004820152603460248201527f455243313135353a207472616e7366657220746f206e6f6e2d455243313135356044820152732932b1b2b4bb32b91034b6b83632b6b2b73a32b960611b60648201526084016108e9565b6001600160e01b0319811663bc197c8160e01b14611f8b5760405162461bcd60e51b81526004016108e990616931565b614afa8282612309565b61159457614b078161513a565b614b1283602061514c565b604051602001614b23929190616979565b60408051601f198184030181529082905262461bcd60e51b82526108e991600401615613565b6001600160a01b038416614b6f5760405162461bcd60e51b81526004016108e990616439565b614b793085612edc565b15614bd15760405162461bcd60e51b815260206004820152602260248201527f4163636f756e7420616c7265616479206861732061207375627363726970746960448201526137b760f11b60648201526084016108e9565b6118e4848484846152e1565b5f828152610195602052604090206112008282616a31565b5f54610100900460ff16614c1b5760405162461bcd60e51b81526004016108e9906167b5565b6122a5816153bd565b5f54610100900460ff16614c4a5760405162461bcd60e51b81526004016108e9906167b5565b6120aa6153ec565b5f54610100900460ff16614c785760405162461bcd60e51b81526004016108e9906167b5565b6120aa615412565b5f54610100900460ff166120aa5760405162461bcd60e51b81526004016108e9906167b5565b5f54610100900460ff16614ccc5760405162461bcd60e51b81526004016108e9906167b5565b6120aa615441565b6115948282613869565b816001600160a01b0316836001600160a01b031603614d515760405162461bcd60e51b815260206004820152602960248201527f455243313135353a2073657474696e6720617070726f76616c20737461747573604482015268103337b91039b2b63360b91b60648201526084016108e9565b6001600160a01b038381165f81815260666020908152604080832094871680845294825291829020805460ff191686151590811790915591519182527f17307eab39ab6107e8899845ad3d59bd9653f200f220920489ca2b5937696c31910160405180910390a3505050565b81548110614e035760405162461bcd60e51b8152602060048201526013602482015272496e646578206f7574206f6620626f756e647360681b60448201526064016108e9565b81545f90614e139060019061638f565b9050808214614e9057828181548110614e2e57614e2e616367565b905f5260205f209060030201838381548110614e4c57614e4c616367565b5f9182526020909120825460039092020190815560018083015490820180546001600160a01b0319166001600160a01b039092169190911790556002918201549101555b82805480614ea057614ea06163a2565b5f8281526020812060035f19909301928302018181556001810180546001600160a01b0319169055600201559055505050565b614ef4604051806060016040528060228152602001616b04602291396135b4565b614f21604051806040016040528060088152602001673a37b5b2b724b21d60c11b815250825f0151613681565b614f4a604051806040016040528060038152602001623a379d60e91b81525082602001516135f7565b614f7e6040518060400160405280600e81526020016d3232b9ba34b730ba34b7b724b21d60911b8152508260400151613681565b614faf6040518060400160405280600b81526020016a31b434b63224b73232bc1d60a91b8152508260600151613681565b614fe26040518060400160405280600d81526020016c31b434b63220b2323932b9b99d60991b81525082608001516135f7565b6150106040518060400160405280600881526020016731b434b63224b21d60c11b8152508260a00151613681565b6122a56040518060400160405280600781526020016630b6b7bab73a1d60c91b8152508260c00151613681565b6001600160a01b0384163b15611b905760405163f23a6e6160e01b81526001600160a01b0385169063f23a6e619061508190899089908890889088906004016162d5565b6020604051808303815f875af19250505080156150bb575060408051601f3d908101601f191682019092526150b891810190616875565b60015b6150c757614a20616890565b6001600160e01b0319811663f23a6e6160e01b14611f8b5760405162461bcd60e51b81526004016108e990616931565b5f6001600160e01b03198216637965db0b60e01b1480610916575061091682615474565b5f6a636f6e736f6c652e6c6f6790505f80835160208501845afa505050565b60606109166001600160a01b03831660145b60605f61515a836002616aec565b615165906002616426565b6001600160401b0381111561517c5761517c6156aa565b6040519080825280601f01601f1916602001820160405280156151a6576020820181803683370190505b509050600360fc1b815f815181106151c0576151c0616367565b60200101906001600160f81b03191690815f1a905350600f60fb1b816001815181106151ee576151ee616367565b60200101906001600160f81b03191690815f1a9053505f615210846002616aec565b61521b906001616426565b90505b6001811115615292576f181899199a1a9b1b9c1cb0b131b232b360811b85600f166010811061524f5761524f616367565b1a60f81b82828151811061526557615265616367565b60200101906001600160f81b03191690815f1a90535060049490941c9361528b81616411565b905061521e565b508315610a3d5760405162461bcd60e51b815260206004820181905260248201527f537472696e67733a20686578206c656e67746820696e73756666696369656e7460448201526064016108e9565b6001600160a01b0384166153075760405162461bcd60e51b81526004016108e990616439565b335f61531285614929565b90505f61531e85614929565b905061532e835f89858589614972565b5f8681526065602090815260408083206001600160a01b038b1684529091528120805487929061535f908490616426565b909155505060408051878152602081018790526001600160a01b03808a16925f92918716917fc3d58168c5ae7397731d063d5bbf3d657854427343f4c083240f7aacaa2d0f62910160405180910390a4611f8b835f8989898961503d565b5f54610100900460ff166153e35760405162461bcd60e51b81526004016108e9906167b5565b6122a5816154c3565b5f54610100900460ff166133e65760405162461bcd60e51b81526004016108e9906167b5565b5f54610100900460ff166154385760405162461bcd60e51b81526004016108e9906167b5565b6120aa33613d84565b5f54610100900460ff166154675760405162461bcd60e51b81526004016108e9906167b5565b61012d805460ff19169055565b5f6001600160e01b03198216636cdb3d1360e11b14806154a457506001600160e01b031982166303a24d0760e21b145b8061091657506301ffc9a760e01b6001600160e01b0319831614610916565b60676115948282616a31565b5080545f8255600302905f5260205f20908101906122a591905b80821115615514575f8082556001820180546001600160a01b031916905560028201556003016154e9565b5090565b6001600160a01b03811681146122a5575f80fd5b5f806040838503121561553d575f80fd5b823561554881615518565b946020939093013593505050565b6001600160e01b0319811681146122a5575f80fd5b5f6020828403121561557b575f80fd5b8135610a3d81615556565b5f805f60608486031215615598575f80fd5b505081359360208301359350604090920135919050565b5f602082840312156155bf575f80fd5b5035919050565b5f5b838110156155e05781810151838201526020016155c8565b50505f910152565b5f81518084526155ff8160208601602086016155c6565b601f01601f19169290920160200192915050565b602081525f610a3d60208301846155e8565b5f8060408385031215615636575f80fd5b82359150602083013561564881615518565b809150509250929050565b602080825282518282018190525f919060409081850190868401855b8281101561569d57815180516001600160a01b0316855286015186850152928401929085019060010161566f565b5091979650505050505050565b634e487b7160e01b5f52604160045260245ffd5b601f8201601f191681016001600160401b03811182821017156156e3576156e36156aa565b6040525050565b5f82601f8301126156f9575f80fd5b81356001600160401b03811115615712576157126156aa565b604051615729601f8301601f1916602001826156be565b81815284602083860101111561573d575f80fd5b816020850160208301375f918101602001919091529392505050565b5f805f806080858703121561576c575f80fd5b84359350602085013561577e81615518565b92506040850135915060608501356001600160401b0381111561579f575f80fd5b6157ab878288016156ea565b91505092959194509250565b5f6001600160401b038211156157cf576157cf6156aa565b5060051b60200190565b5f82601f8301126157e8575f80fd5b813560206157f5826157b7565b60405161580282826156be565b80915083815260208101915060208460051b870101935086841115615825575f80fd5b602086015b84811015615841578035835291830191830161582a565b509695505050505050565b5f805f805f60a08688031215615860575f80fd5b853561586b81615518565b9450602086013561587b81615518565b935060408601356001600160401b0380821115615896575f80fd5b6158a289838a016157d9565b945060608801359150808211156158b7575f80fd5b6158c389838a016157d9565b935060808801359150808211156158d8575f80fd5b506158e5888289016156ea565b9150509295509295909350565b5f8060408385031215615903575f80fd5b50508035926020909101359150565b815181526020808301516001600160a01b0316908201526040808301519082015260608101610916565b5f805f6060848603121561594e575f80fd5b83359250602084013561596081615518565b929592945050506040919091013590565b5f60208284031215615981575f80fd5b8135610a3d81615518565b5f805f805f60a086880312156159a0575f80fd5b85356159ab81615518565b94506020860135935060408601356001600160401b03808211156159cd575f80fd5b6159d989838a016156ea565b94506060880135935060808801359150808211156158d8575f80fd5b5f82601f830112615a04575f80fd5b81356020615a11826157b7565b604051615a1e82826156be565b80915083815260208101915060208460051b870101935086841115615a41575f80fd5b602086015b84811015615841578035615a5981615518565b8352918301918301615a46565b80151581146122a5575f80fd5b5f805f8060808587031215615a86575f80fd5b84356001600160401b0380821115615a9c575f80fd5b615aa8888389016159f5565b95506020870135915080821115615abd575f80fd5b50615aca878288016159f5565b935050604085013591506060850135615ae281615a66565b939692955090935050565b5f805f60608486031215615aff575f80fd5b8335925060208401356001600160401b0380821115615b1c575f80fd5b615b28878388016159f5565b93506040860135915080821115615b3d575f80fd5b50615b4a868287016157d9565b9150509250925092565b602080825282518282018190525f9190848201906040850190845b81811015615bb257615b9f838551805182526020808201516001600160a01b031690830152604090810151910152565b9284019260609290920191600101615b6f565b50909695505050505050565b5f8060408385031215615bcf575f80fd5b82356001600160401b0380821115615be5575f80fd5b615bf1868387016159f5565b93506020850135915080821115615c06575f80fd5b50615c13858286016157d9565b9150509250929050565b5f815180845260208085019450602084015f5b83811015615c4c57815187529582019590820190600101615c30565b509495945050505050565b602081525f610a3d6020830184615c1d565b5f805f805f8060c08789031215615c7e575f80fd5b8635615c8981615518565b95506020870135615c9981615518565b945060408701359350606087013592506080870135915060a08701356001600160401b03811115615cc8575f80fd5b615cd489828a016156ea565b9150509295509295509295565b5f805f60608486031215615cf3575f80fd5b833592506020840135915060408401356001600160401b03811115615d16575f80fd5b615b4a868287016156ea565b5f805f60608486031215615d34575f80fd5b8335615d3f81615518565b925060208401356001600160401b0380821115615d5a575f80fd5b615b28878388016157d9565b602080825282518282018190525f9190848201906040850190845b81811015615bb25783516001600160a01b031683529284019291840191600101615d81565b5f8060408385031215615db7575f80fd5b8235615dc281615518565b9150602083013561564881615a66565b5f8083601f840112615de2575f80fd5b5081356001600160401b03811115615df8575f80fd5b6020830191508360208260051b8501011115615e12575f80fd5b9250929050565b5f8083601f840112615e29575f80fd5b5081356001600160401b03811115615e3f575f80fd5b602083019150836020828501011115615e12575f80fd5b5f805f805f805f8060a0898b031215615e6d575f80fd5b8835615e7881615518565b97506020890135615e8881615518565b965060408901356001600160401b0380821115615ea3575f80fd5b615eaf8c838d01615dd2565b909850965060608b0135915080821115615ec7575f80fd5b615ed38c838d01615dd2565b909650945060808b0135915080821115615eeb575f80fd5b50615ef88b828c01615e19565b999c989b5096995094979396929594505050565b5f805f8060808587031215615f1f575f80fd5b84356001600160401b0380821115615f35575f80fd5b615f41888389016159f5565b9550602091508187013581811115615f57575f80fd5b8701601f81018913615f67575f80fd5b8035615f72816157b7565b604051615f7f82826156be565b82815260059290921b830185019185810191508b831115615f9e575f80fd5b8584015b83811015615fd457803586811115615fb8575f80fd5b615fc68e89838901016156ea565b845250918601918601615fa2565b5097505050506040870135915080821115615fed575f80fd5b615ff9888389016157d9565b9350606087013591508082111561600e575f80fd5b506157ab878288016156ea565b5f805f805f805f80610100898b031215616033575f80fd5b88359750602089013561604581615518565b96506040890135955060608901359450608089013561606381615518565b935060a0890135925060c089013561607a81615a66565b915060e08901356001600160401b03811115616094575f80fd5b6160a08b828c016156ea565b9150509295985092959890939650565b5f805f80608085870312156160c3575f80fd5b843593506020850135925060408501356160dc81615518565b9396929550929360600135925050565b5f80604083850312156160fd575f80fd5b823561610881615518565b9150602083013561564881615518565b5f805f805f8060a0878903121561612d575f80fd5b863561613881615518565b9550602087013561614881615518565b9450604087013593506060870135925060808701356001600160401b03811115616170575f80fd5b61617c89828a01615e19565b979a9699509497509295939492505050565b5f805f805f60a086880312156161a2575f80fd5b85356161ad81615518565b945060208601356161bd81615518565b9350604086013592506060860135915060808601356001600160401b038111156161e5575f80fd5b6158e5888289016156ea565b5f805f60608486031215616203575f80fd5b833561620e81615518565b95602085013595506040909401359392505050565b600181811c9082168061623757607f821691505b60208210810361625557634e487b7160e01b5f52602260045260245ffd5b50919050565b5f6020828403121561626b575f80fd5b5051919050565b5f60208284031215616282575f80fd5b8151610a3d81615a66565b5f60018060a01b03808916835280881660208401525085604083015284606083015283608083015260c060a08301526162c960c08301846155e8565b98975050505050505050565b6001600160a01b03868116825285166020820152604081018490526060810183905260a0608082018190525f9061630e908301846155e8565b979650505050505050565b6020808252602e908201527f455243313135353a2063616c6c6572206973206e6f7420746f6b656e206f776e60408201526d195c881bdc88185c1c1c9bdd995960921b606082015260800190565b634e487b7160e01b5f52603260045260245ffd5b634e487b7160e01b5f52601160045260245ffd5b818103818111156109165761091661637b565b634e487b7160e01b5f52603160045260245ffd5b5f82516163c78184602087016155c6565b9190910192915050565b5f805f606084860312156163e3575f80fd5b83516163ee81615518565b60208501516040860151919450925061640681615a66565b809150509250925092565b5f8161641f5761641f61637b565b505f190190565b808201808211156109165761091661637b565b60208082526021908201527f455243313135353a206d696e7420746f20746865207a65726f206164647265736040820152607360f81b606082015260800190565b60018060a01b038616815284602082015260a060408201525f6164a060a08301866155e8565b84606084015282810360808401526162c981856155e8565b6020808252602c908201527f546970455243313135353a2064656c656761746563616c6c20746f206d696e7460408201526b151bdad95b8819985a5b195960a21b606082015260800190565b6001600160a01b038616815260ff8516602082015260a0604082018190525f906164a0908301866155e8565b60208082526023908201527f455243313135353a206275726e2066726f6d20746865207a65726f206164647260408201526265737360e81b606082015260800190565b60208082526024908201527f455243313135353a206275726e20616d6f756e7420657863656564732062616c604082015263616e636560e01b606082015260800190565b5f600182016165c8576165c861637b565b5060010190565b604081525f6165e160408301856155e8565b905060018060a01b03831660208301529392505050565b604081525f61660a60408301856155e8565b905082151560208301529392505050565b604081525f61662d60408301856155e8565b90508260208301529392505050565b60208082526028908201527f455243313135353a2069647320616e6420616d6f756e7473206c656e677468206040820152670dad2e6dac2e8c6d60c31b606082015260800190565b60208082526025908201527f455243313135353a207472616e7366657220746f20746865207a65726f206164604082015264647265737360d81b606082015260800190565b6020808252602a908201527f455243313135353a20696e73756666696369656e742062616c616e636520666f60408201526939103a3930b739b332b960b11b606082015260800190565b604081525f6167256040830185615c1d565b82810360208401526134408185615c1d565b608081525f61674960808301876155e8565b6001600160a01b039590951660208301525060408101929092521515606090910152919050565b608081525f61678260808301876155e8565b6001600160a01b038616602084015282810360408401526167a381866155e8565b91505082606083015295945050505050565b6020808252602b908201527f496e697469616c697a61626c653a20636f6e7472616374206973206e6f74206960408201526a6e697469616c697a696e6760a81b606082015260800190565b606081525f61681260608301866155e8565b60208301949094525060400152919050565b6001600160a01b0386811682528516602082015260a0604082018190525f9061684f90830186615c1d565b82810360608401526168618186615c1d565b905082810360808401526162c981856155e8565b5f60208284031215616885575f80fd5b8151610a3d81615556565b5f60033d11156168a65760045f803e505f5160e01c5b90565b5f60443d10156168b65790565b6040516003193d81016004833e81513d6001600160401b0381602484011181841117156168e557505050505090565b82850191508151818111156168fd5750505050505090565b843d87010160208285010111156169175750505050505090565b616926602082860101876156be565b509095945050505050565b60208082526028908201527f455243313135353a204552433131353552656365697665722072656a656374656040820152676420746f6b656e7360c01b606082015260800190565b7f416363657373436f6e74726f6c3a206163636f756e742000000000000000000081525f83516169b08160178501602088016155c6565b7001034b99036b4b9b9b4b733903937b6329607d1b60179184019182015283516169e18160288401602088016155c6565b01602801949350505050565b601f82111561120057805f5260205f20601f840160051c81016020851015616a125750805b601f840160051c820191505b818110156111d5575f8155600101616a1e565b81516001600160401b03811115616a4a57616a4a6156aa565b616a5e81616a588454616223565b846169ed565b602080601f831160018114616a91575f8415616a7a5750858301515b5f19600386901b1c1916600185901b178555611b90565b5f85815260208120601f198616915b82811015616abf57888601518255948401946001909101908401616aa0565b5085821015616adc57878501515f19600388901b60f8161c191681555b5050505050600190811b01905550565b80820281158282048414176109165761091661637b56fe3d3d3d205f7472616e736665724163746976654368696c64207374617274203d3d3d5f6973417070726f7665644f724f776e65722063616c6c6564207769746820746f6b656e49643aa26469706673582212205770f8857e6146d8b4b7a6ff79004f955dce6c6b67d2f4c50e63890a9478dcb064736f6c63430008190033",
  "linkReferences": {},
  "deployedLinkReferences": {}
}