{
  "_format": "hh-sol-artifact-1",
  "contractName": "FNFTMarketCreateFacet",
  "sourceName": "contracts/FNFTMarketCreateFacet.sol",
  "abi": [
    {
      "anonymous": false,
      "inputs": [
        {
          "indexed": false,
          "internalType": "uint8",
          "name": "version",
          "type": "uint8"
        }
      ],
      "name": "Initialized",
      "type": "event"
    },
    {
      "anonymous": false,
      "inputs": [
        {
          "indexed": true,
          "internalType": "address",
          "name": "fabstir",
          "type": "address"
        },
        {
          "indexed": true,
          "internalType": "address",
          "name": "platform",
          "type": "address"
        },
        {
          "indexed": false,
          "internalType": "uint256",
          "name": "fabstirFeeRatio",
          "type": "uint256"
        },
        {
          "indexed": false,
          "internalType": "uint256",
          "name": "platformFeeRatio",
          "type": "uint256"
        },
        {
          "indexed": false,
          "internalType": "uint256",
          "name": "platformCreatorFeeRatio",
          "type": "uint256"
        },
        {
          "indexed": false,
          "internalType": "uint256",
          "name": "platformUnlockFee",
          "type": "uint256"
        },
        {
          "indexed": false,
          "internalType": "address",
          "name": "platformUnlockFeeToken",
          "type": "address"
        },
        {
          "indexed": false,
          "internalType": "uint256",
          "name": "platformUnlockPeriod",
          "type": "uint256"
        }
      ],
      "name": "MarketCreated",
      "type": "event"
    },
    {
      "anonymous": false,
      "inputs": [
        {
          "indexed": true,
          "internalType": "uint256",
          "name": "itemId",
          "type": "uint256"
        },
        {
          "indexed": true,
          "internalType": "address",
          "name": "fnftToken",
          "type": "address"
        },
        {
          "indexed": true,
          "internalType": "uint256",
          "name": "tokenId",
          "type": "uint256"
        },
        {
          "components": [
            {
              "internalType": "uint256",
              "name": "itemId",
              "type": "uint256"
            },
            {
              "internalType": "address",
              "name": "fnftToken",
              "type": "address"
            },
            {
              "internalType": "uint256",
              "name": "tokenId",
              "type": "uint256"
            },
            {
              "internalType": "address",
              "name": "seller",
              "type": "address"
            },
            {
              "internalType": "address",
              "name": "creator",
              "type": "address"
            },
            {
              "internalType": "address",
              "name": "baseToken",
              "type": "address"
            },
            {
              "internalType": "uint256",
              "name": "amount",
              "type": "uint256"
            },
            {
              "internalType": "uint256",
              "name": "startPrice",
              "type": "uint256"
            },
            {
              "internalType": "uint256",
              "name": "reservePrice",
              "type": "uint256"
            },
            {
              "internalType": "uint256",
              "name": "startTime",
              "type": "uint256"
            },
            {
              "internalType": "uint256",
              "name": "endTime",
              "type": "uint256"
            },
            {
              "internalType": "uint256",
              "name": "cancelTime",
              "type": "uint256"
            },
            {
              "internalType": "uint256",
              "name": "resellerFeeRatio",
              "type": "uint256"
            },
            {
              "internalType": "address[]",
              "name": "holders",
              "type": "address[]"
            },
            {
              "internalType": "uint256[]",
              "name": "holdersRatio",
              "type": "uint256[]"
            },
            {
              "internalType": "address",
              "name": "fabstir",
              "type": "address"
            },
            {
              "internalType": "address",
              "name": "platform",
              "type": "address"
            },
            {
              "internalType": "uint256",
              "name": "fabstirFeeRatio",
              "type": "uint256"
            },
            {
              "internalType": "uint256",
              "name": "platformFeeRatio",
              "type": "uint256"
            },
            {
              "internalType": "uint256",
              "name": "creatorFeeRatio",
              "type": "uint256"
            },
            {
              "internalType": "string",
              "name": "data",
              "type": "string"
            },
            {
              "internalType": "bool",
              "name": "isCancelled",
              "type": "bool"
            }
          ],
          "indexed": false,
          "internalType": "struct FNFTMarketplaceTypes.MarketItem",
          "name": "marketItem_",
          "type": "tuple"
        }
      ],
      "name": "MarketItemCreated",
      "type": "event"
    },
    {
      "anonymous": false,
      "inputs": [
        {
          "indexed": true,
          "internalType": "uint256",
          "name": "itemId",
          "type": "uint256"
        },
        {
          "indexed": true,
          "internalType": "address",
          "name": "changedBy",
          "type": "address"
        },
        {
          "indexed": true,
          "internalType": "enum FNFTMarketplaceTypes.MarketItemStatus",
          "name": "status",
          "type": "uint8"
        },
        {
          "indexed": false,
          "internalType": "uint256",
          "name": "amount",
          "type": "uint256"
        }
      ],
      "name": "MarketItemStatusChanged",
      "type": "event"
    },
    {
      "anonymous": false,
      "inputs": [
        {
          "indexed": false,
          "internalType": "address",
          "name": "account",
          "type": "address"
        }
      ],
      "name": "Paused",
      "type": "event"
    },
    {
      "anonymous": false,
      "inputs": [
        {
          "indexed": false,
          "internalType": "address",
          "name": "account",
          "type": "address"
        }
      ],
      "name": "Unpaused",
      "type": "event"
    },
    {
      "inputs": [
        {
          "internalType": "uint256[]",
          "name": "itemIds",
          "type": "uint256[]"
        },
        {
          "internalType": "uint256[]",
          "name": "amounts",
          "type": "uint256[]"
        }
      ],
      "name": "acceptMarketItemsPending",
      "outputs": [],
      "stateMutability": "nonpayable",
      "type": "function"
    },
    {
      "inputs": [
        {
          "components": [
            {
              "internalType": "uint256",
              "name": "itemId",
              "type": "uint256"
            },
            {
              "internalType": "uint256",
              "name": "tokenId",
              "type": "uint256"
            },
            {
              "internalType": "address",
              "name": "seller",
              "type": "address"
            },
            {
              "internalType": "address",
              "name": "fnftToken",
              "type": "address"
            },
            {
              "internalType": "address",
              "name": "baseToken",
              "type": "address"
            },
            {
              "internalType": "uint256",
              "name": "amount",
              "type": "uint256"
            },
            {
              "internalType": "uint256",
              "name": "startPrice",
              "type": "uint256"
            },
            {
              "internalType": "uint256",
              "name": "reservePrice",
              "type": "uint256"
            },
            {
              "internalType": "uint256",
              "name": "startTime",
              "type": "uint256"
            },
            {
              "internalType": "uint256",
              "name": "endTime",
              "type": "uint256"
            },
            {
              "internalType": "uint256",
              "name": "cancelTime",
              "type": "uint256"
            },
            {
              "internalType": "uint256",
              "name": "resellerFeeRatio",
              "type": "uint256"
            },
            {
              "internalType": "address",
              "name": "creator",
              "type": "address"
            },
            {
              "internalType": "uint256",
              "name": "creatorFeeRatio",
              "type": "uint256"
            },
            {
              "internalType": "address[]",
              "name": "holders",
              "type": "address[]"
            },
            {
              "internalType": "uint256[]",
              "name": "holdersRatio",
              "type": "uint256[]"
            },
            {
              "internalType": "string",
              "name": "data",
              "type": "string"
            }
          ],
          "internalType": "struct FNFTMarketplaceTypes.MarketItemInput",
          "name": "input",
          "type": "tuple"
        }
      ],
      "name": "createMarketItem",
      "outputs": [],
      "stateMutability": "nonpayable",
      "type": "function"
    },
    {
      "inputs": [
        {
          "internalType": "uint256[]",
          "name": "itemIds",
          "type": "uint256[]"
        },
        {
          "internalType": "uint256[]",
          "name": "amounts",
          "type": "uint256[]"
        }
      ],
      "name": "deleteMarketItemsPending",
      "outputs": [],
      "stateMutability": "nonpayable",
      "type": "function"
    },
    {
      "inputs": [],
      "name": "fabstir",
      "outputs": [
        {
          "internalType": "address",
          "name": "",
          "type": "address"
        }
      ],
      "stateMutability": "view",
      "type": "function"
    },
    {
      "inputs": [],
      "name": "fabstirFeeRatio",
      "outputs": [
        {
          "internalType": "uint256",
          "name": "",
          "type": "uint256"
        }
      ],
      "stateMutability": "view",
      "type": "function"
    },
    {
      "inputs": [
        {
          "internalType": "uint256",
          "name": "itemId",
          "type": "uint256"
        }
      ],
      "name": "fetchMarketItem",
      "outputs": [
        {
          "components": [
            {
              "internalType": "uint256",
              "name": "itemId",
              "type": "uint256"
            },
            {
              "internalType": "address",
              "name": "fnftToken",
              "type": "address"
            },
            {
              "internalType": "uint256",
              "name": "tokenId",
              "type": "uint256"
            },
            {
              "internalType": "address",
              "name": "seller",
              "type": "address"
            },
            {
              "internalType": "address",
              "name": "creator",
              "type": "address"
            },
            {
              "internalType": "address",
              "name": "baseToken",
              "type": "address"
            },
            {
              "internalType": "uint256",
              "name": "amount",
              "type": "uint256"
            },
            {
              "internalType": "uint256",
              "name": "startPrice",
              "type": "uint256"
            },
            {
              "internalType": "uint256",
              "name": "reservePrice",
              "type": "uint256"
            },
            {
              "internalType": "uint256",
              "name": "startTime",
              "type": "uint256"
            },
            {
              "internalType": "uint256",
              "name": "endTime",
              "type": "uint256"
            },
            {
              "internalType": "uint256",
              "name": "cancelTime",
              "type": "uint256"
            },
            {
              "internalType": "uint256",
              "name": "resellerFeeRatio",
              "type": "uint256"
            },
            {
              "internalType": "address[]",
              "name": "holders",
              "type": "address[]"
            },
            {
              "internalType": "uint256[]",
              "name": "holdersRatio",
              "type": "uint256[]"
            },
            {
              "internalType": "address",
              "name": "fabstir",
              "type": "address"
            },
            {
              "internalType": "address",
              "name": "platform",
              "type": "address"
            },
            {
              "internalType": "uint256",
              "name": "fabstirFeeRatio",
              "type": "uint256"
            },
            {
              "internalType": "uint256",
              "name": "platformFeeRatio",
              "type": "uint256"
            },
            {
              "internalType": "uint256",
              "name": "creatorFeeRatio",
              "type": "uint256"
            },
            {
              "internalType": "string",
              "name": "data",
              "type": "string"
            },
            {
              "internalType": "bool",
              "name": "isCancelled",
              "type": "bool"
            }
          ],
          "internalType": "struct FNFTMarketplaceTypes.MarketItem",
          "name": "",
          "type": "tuple"
        }
      ],
      "stateMutability": "view",
      "type": "function"
    },
    {
      "inputs": [],
      "name": "fetchMarketItems",
      "outputs": [
        {
          "components": [
            {
              "internalType": "uint256",
              "name": "itemId",
              "type": "uint256"
            },
            {
              "internalType": "address",
              "name": "fnftToken",
              "type": "address"
            },
            {
              "internalType": "uint256",
              "name": "tokenId",
              "type": "uint256"
            },
            {
              "internalType": "address",
              "name": "seller",
              "type": "address"
            },
            {
              "internalType": "address",
              "name": "creator",
              "type": "address"
            },
            {
              "internalType": "address",
              "name": "baseToken",
              "type": "address"
            },
            {
              "internalType": "uint256",
              "name": "amount",
              "type": "uint256"
            },
            {
              "internalType": "uint256",
              "name": "startPrice",
              "type": "uint256"
            },
            {
              "internalType": "uint256",
              "name": "reservePrice",
              "type": "uint256"
            },
            {
              "internalType": "uint256",
              "name": "startTime",
              "type": "uint256"
            },
            {
              "internalType": "uint256",
              "name": "endTime",
              "type": "uint256"
            },
            {
              "internalType": "uint256",
              "name": "cancelTime",
              "type": "uint256"
            },
            {
              "internalType": "uint256",
              "name": "resellerFeeRatio",
              "type": "uint256"
            },
            {
              "internalType": "address[]",
              "name": "holders",
              "type": "address[]"
            },
            {
              "internalType": "uint256[]",
              "name": "holdersRatio",
              "type": "uint256[]"
            },
            {
              "internalType": "address",
              "name": "fabstir",
              "type": "address"
            },
            {
              "internalType": "address",
              "name": "platform",
              "type": "address"
            },
            {
              "internalType": "uint256",
              "name": "fabstirFeeRatio",
              "type": "uint256"
            },
            {
              "internalType": "uint256",
              "name": "platformFeeRatio",
              "type": "uint256"
            },
            {
              "internalType": "uint256",
              "name": "creatorFeeRatio",
              "type": "uint256"
            },
            {
              "internalType": "string",
              "name": "data",
              "type": "string"
            },
            {
              "internalType": "bool",
              "name": "isCancelled",
              "type": "bool"
            }
          ],
          "internalType": "struct FNFTMarketplaceTypes.MarketItem[]",
          "name": "",
          "type": "tuple[]"
        }
      ],
      "stateMutability": "view",
      "type": "function"
    },
    {
      "inputs": [],
      "name": "fetchMarketItemsPending",
      "outputs": [
        {
          "components": [
            {
              "internalType": "uint256",
              "name": "itemId",
              "type": "uint256"
            },
            {
              "internalType": "uint256",
              "name": "tokenId",
              "type": "uint256"
            },
            {
              "internalType": "address",
              "name": "seller",
              "type": "address"
            },
            {
              "internalType": "address",
              "name": "fnftToken",
              "type": "address"
            },
            {
              "internalType": "address",
              "name": "baseToken",
              "type": "address"
            },
            {
              "internalType": "uint256",
              "name": "amount",
              "type": "uint256"
            },
            {
              "internalType": "uint256",
              "name": "startPrice",
              "type": "uint256"
            },
            {
              "internalType": "uint256",
              "name": "reservePrice",
              "type": "uint256"
            },
            {
              "internalType": "uint256",
              "name": "startTime",
              "type": "uint256"
            },
            {
              "internalType": "uint256",
              "name": "endTime",
              "type": "uint256"
            },
            {
              "internalType": "uint256",
              "name": "cancelTime",
              "type": "uint256"
            },
            {
              "internalType": "uint256",
              "name": "resellerFeeRatio",
              "type": "uint256"
            },
            {
              "internalType": "address",
              "name": "creator",
              "type": "address"
            },
            {
              "internalType": "uint256",
              "name": "creatorFeeRatio",
              "type": "uint256"
            },
            {
              "internalType": "address[]",
              "name": "holders",
              "type": "address[]"
            },
            {
              "internalType": "uint256[]",
              "name": "holdersRatio",
              "type": "uint256[]"
            },
            {
              "internalType": "string",
              "name": "data",
              "type": "string"
            }
          ],
          "internalType": "struct FNFTMarketplaceTypes.MarketItemInput[]",
          "name": "",
          "type": "tuple[]"
        }
      ],
      "stateMutability": "view",
      "type": "function"
    },
    {
      "inputs": [
        {
          "internalType": "uint256",
          "name": "itemId",
          "type": "uint256"
        }
      ],
      "name": "fetchMarketItemsSold",
      "outputs": [
        {
          "components": [
            {
              "internalType": "uint256",
              "name": "itemId",
              "type": "uint256"
            },
            {
              "internalType": "address",
              "name": "fnftToken",
              "type": "address"
            },
            {
              "internalType": "address",
              "name": "baseToken",
              "type": "address"
            },
            {
              "internalType": "uint256",
              "name": "tokenId",
              "type": "uint256"
            },
            {
              "internalType": "address",
              "name": "seller",
              "type": "address"
            },
            {
              "internalType": "address",
              "name": "buyer",
              "type": "address"
            },
            {
              "internalType": "uint256",
              "name": "price",
              "type": "uint256"
            },
            {
              "internalType": "uint256",
              "name": "amount",
              "type": "uint256"
            },
            {
              "internalType": "uint256",
              "name": "timeStamp",
              "type": "uint256"
            },
            {
              "internalType": "address",
              "name": "reseller",
              "type": "address"
            },
            {
              "internalType": "bool",
              "name": "isFNFTTokenPending",
              "type": "bool"
            }
          ],
          "internalType": "struct FNFTMarketplaceTypes.MarketItemSold[]",
          "name": "",
          "type": "tuple[]"
        }
      ],
      "stateMutability": "view",
      "type": "function"
    },
    {
      "inputs": [],
      "name": "fetchMyNFTsBought",
      "outputs": [
        {
          "components": [
            {
              "internalType": "uint256",
              "name": "itemId",
              "type": "uint256"
            },
            {
              "internalType": "address",
              "name": "fnftToken",
              "type": "address"
            },
            {
              "internalType": "address",
              "name": "baseToken",
              "type": "address"
            },
            {
              "internalType": "uint256",
              "name": "tokenId",
              "type": "uint256"
            },
            {
              "internalType": "address",
              "name": "seller",
              "type": "address"
            },
            {
              "internalType": "address",
              "name": "buyer",
              "type": "address"
            },
            {
              "internalType": "uint256",
              "name": "price",
              "type": "uint256"
            },
            {
              "internalType": "uint256",
              "name": "amount",
              "type": "uint256"
            },
            {
              "internalType": "uint256",
              "name": "timeStamp",
              "type": "uint256"
            },
            {
              "internalType": "address",
              "name": "reseller",
              "type": "address"
            },
            {
              "internalType": "bool",
              "name": "isFNFTTokenPending",
              "type": "bool"
            }
          ],
          "internalType": "struct FNFTMarketplaceTypes.MarketItemSold[]",
          "name": "",
          "type": "tuple[]"
        }
      ],
      "stateMutability": "view",
      "type": "function"
    },
    {
      "inputs": [],
      "name": "fetchMyNFTsSold",
      "outputs": [
        {
          "components": [
            {
              "internalType": "uint256",
              "name": "itemId",
              "type": "uint256"
            },
            {
              "internalType": "address",
              "name": "fnftToken",
              "type": "address"
            },
            {
              "internalType": "address",
              "name": "baseToken",
              "type": "address"
            },
            {
              "internalType": "uint256",
              "name": "tokenId",
              "type": "uint256"
            },
            {
              "internalType": "address",
              "name": "seller",
              "type": "address"
            },
            {
              "internalType": "address",
              "name": "buyer",
              "type": "address"
            },
            {
              "internalType": "uint256",
              "name": "price",
              "type": "uint256"
            },
            {
              "internalType": "uint256",
              "name": "amount",
              "type": "uint256"
            },
            {
              "internalType": "uint256",
              "name": "timeStamp",
              "type": "uint256"
            },
            {
              "internalType": "address",
              "name": "reseller",
              "type": "address"
            },
            {
              "internalType": "bool",
              "name": "isFNFTTokenPending",
              "type": "bool"
            }
          ],
          "internalType": "struct FNFTMarketplaceTypes.MarketItemSold[]",
          "name": "",
          "type": "tuple[]"
        }
      ],
      "stateMutability": "view",
      "type": "function"
    },
    {
      "inputs": [
        {
          "internalType": "uint256",
          "name": "itemId",
          "type": "uint256"
        }
      ],
      "name": "getMarketItemAmountUnsold",
      "outputs": [
        {
          "internalType": "uint256",
          "name": "",
          "type": "uint256"
        }
      ],
      "stateMutability": "view",
      "type": "function"
    },
    {
      "inputs": [
        {
          "internalType": "enum FNFTMarketplaceTypes.MarketItemStatus",
          "name": "status",
          "type": "uint8"
        },
        {
          "internalType": "uint256",
          "name": "itemId",
          "type": "uint256"
        }
      ],
      "name": "getMarketItemStatusAmount",
      "outputs": [
        {
          "internalType": "uint256",
          "name": "",
          "type": "uint256"
        }
      ],
      "stateMutability": "view",
      "type": "function"
    },
    {
      "inputs": [
        {
          "internalType": "address",
          "name": "fabstir_",
          "type": "address"
        },
        {
          "internalType": "address",
          "name": "platform_",
          "type": "address"
        },
        {
          "internalType": "uint256",
          "name": "fabstirFeeRatio_",
          "type": "uint256"
        },
        {
          "internalType": "uint256",
          "name": "platformFeeRatio_",
          "type": "uint256"
        },
        {
          "internalType": "uint256",
          "name": "platformCreatorFeeRatio_",
          "type": "uint256"
        },
        {
          "internalType": "uint256",
          "name": "platformUnlockFee_",
          "type": "uint256"
        },
        {
          "internalType": "address",
          "name": "platformUnlockFeeToken_",
          "type": "address"
        },
        {
          "internalType": "uint256",
          "name": "platformUnlockPeriod_",
          "type": "uint256"
        }
      ],
      "name": "initialize",
      "outputs": [],
      "stateMutability": "nonpayable",
      "type": "function"
    },
    {
      "inputs": [
        {
          "internalType": "uint256",
          "name": "itemId",
          "type": "uint256"
        }
      ],
      "name": "isMarketItemActive",
      "outputs": [
        {
          "internalType": "bool",
          "name": "isMarketItemActive_",
          "type": "bool"
        }
      ],
      "stateMutability": "view",
      "type": "function"
    },
    {
      "inputs": [],
      "name": "marketOwner",
      "outputs": [
        {
          "internalType": "address",
          "name": "",
          "type": "address"
        }
      ],
      "stateMutability": "view",
      "type": "function"
    },
    {
      "inputs": [],
      "name": "paused",
      "outputs": [
        {
          "internalType": "bool",
          "name": "",
          "type": "bool"
        }
      ],
      "stateMutability": "view",
      "type": "function"
    },
    {
      "inputs": [],
      "name": "platform",
      "outputs": [
        {
          "internalType": "address",
          "name": "",
          "type": "address"
        }
      ],
      "stateMutability": "view",
      "type": "function"
    },
    {
      "inputs": [],
      "name": "platformCreatorFeeRatio",
      "outputs": [
        {
          "internalType": "uint256",
          "name": "",
          "type": "uint256"
        }
      ],
      "stateMutability": "view",
      "type": "function"
    },
    {
      "inputs": [],
      "name": "platformFeeRatio",
      "outputs": [
        {
          "internalType": "uint256",
          "name": "",
          "type": "uint256"
        }
      ],
      "stateMutability": "view",
      "type": "function"
    },
    {
      "inputs": [],
      "name": "platformUnlockFee",
      "outputs": [
        {
          "internalType": "uint256",
          "name": "",
          "type": "uint256"
        }
      ],
      "stateMutability": "view",
      "type": "function"
    },
    {
      "inputs": [],
      "name": "platformUnlockFeeToken",
      "outputs": [
        {
          "internalType": "address",
          "name": "",
          "type": "address"
        }
      ],
      "stateMutability": "view",
      "type": "function"
    },
    {
      "inputs": [],
      "name": "platformUnlockPeriod",
      "outputs": [
        {
          "internalType": "uint256",
          "name": "",
          "type": "uint256"
        }
      ],
      "stateMutability": "view",
      "type": "function"
    },
    {
      "inputs": [
        {
          "internalType": "uint256[]",
          "name": "itemIds",
          "type": "uint256[]"
        },
        {
          "internalType": "uint256[]",
          "name": "amounts",
          "type": "uint256[]"
        }
      ],
      "name": "removeMarketItems",
      "outputs": [],
      "stateMutability": "nonpayable",
      "type": "function"
    },
    {
      "inputs": [
        {
          "internalType": "address",
          "name": "newFabstir",
          "type": "address"
        }
      ],
      "name": "setFabstir",
      "outputs": [],
      "stateMutability": "nonpayable",
      "type": "function"
    },
    {
      "inputs": [
        {
          "internalType": "uint256",
          "name": "newFabstirFeeRatio",
          "type": "uint256"
        }
      ],
      "name": "setFabstirFeeRatio",
      "outputs": [],
      "stateMutability": "nonpayable",
      "type": "function"
    },
    {
      "inputs": [
        {
          "internalType": "address",
          "name": "newPlatform",
          "type": "address"
        }
      ],
      "name": "setPlatform",
      "outputs": [],
      "stateMutability": "nonpayable",
      "type": "function"
    },
    {
      "inputs": [
        {
          "internalType": "uint256",
          "name": "newCreatorFeeRatio",
          "type": "uint256"
        }
      ],
      "name": "setPlatformCreatorFeeRatio",
      "outputs": [],
      "stateMutability": "nonpayable",
      "type": "function"
    },
    {
      "inputs": [
        {
          "internalType": "uint256",
          "name": "newPlatformFeeRatio",
          "type": "uint256"
        }
      ],
      "name": "setPlatformFeeRatio",
      "outputs": [],
      "stateMutability": "nonpayable",
      "type": "function"
    },
    {
      "inputs": [
        {
          "internalType": "uint256",
          "name": "newPlatformUnlockPeriod",
          "type": "uint256"
        }
      ],
      "name": "setPlatformLockPeriod",
      "outputs": [],
      "stateMutability": "nonpayable",
      "type": "function"
    },
    {
      "inputs": [
        {
          "internalType": "uint256",
          "name": "newPlatformUnlockFee",
          "type": "uint256"
        }
      ],
      "name": "setPlatformUnlockFee",
      "outputs": [],
      "stateMutability": "nonpayable",
      "type": "function"
    },
    {
      "inputs": [
        {
          "internalType": "address",
          "name": "newPlatformUnlockFeeToken",
          "type": "address"
        }
      ],
      "name": "setPlatformUnlockFeeToken",
      "outputs": [],
      "stateMutability": "nonpayable",
      "type": "function"
    }
  ],
  "bytecode": "0x6080604052348015600e575f80fd5b506154bb8061001c5f395ff3fe608060405234801561000f575f80fd5b50600436106101e7575f3560e01c80636945c5ea11610109578063d4836e6b1161009e578063e2081b1d1161006e578063e2081b1d14610430578063f353460014610438578063f70e663d1461044b578063fa14e0f31461045e575f80fd5b8063d4836e6b146103ed578063d79e9411146103f5578063dd71633014610408578063e0ae8a511461041d575f80fd5b8063ab4714e7116100d9578063ab4714e714610392578063c7b7f88f146103b4578063caeb41e7146103c7578063d1cce87f146103da575f80fd5b80636945c5ea146103465780638377d3b5146103595780638eaa306a1461036c578063926a0e901461037f575f80fd5b80634ceb56df1161017f5780635c975abb1161014f5780635c975abb146102f85780635daf78971461030f578063675734431461032257806367b33cc314610335575f80fd5b80634ceb56df146102c057806357ae1cec146102e0578063591d3139146102e85780635bca024e146102f0575f80fd5b806339e180ed116101ba57806339e180ed1461025057806341bedb9f1461026357806347d90b5c1461026b5780634bde38c8146102af575f80fd5b80630f08efe0146101eb5780632237f97a146102095780632a45b2501461021e578063317db4b71461023e575b5f80fd5b6101f361046f565b604051610200919061473f565b60405180910390f35b61021c6102173660046147c5565b6107b0565b005b61023161022c36600461483c565b610b32565b6040516102009190614853565b6013545b604051908152602001610200565b61021c61025e36600461496a565b610d80565b601154610242565b7facaeaa7a8976fc239c01fbba17c5f5a978e804f83203a3e2074e60cb2f238416546001600160a01b03165b6040516001600160a01b039091168152602001610200565b6010546001600160a01b0316610297565b6102d36102ce36600461483c565b61153b565b60405161020091906149ca565b601254610242565b6102d36116a7565b6102d3611948565b607c5460ff165b6040519015158152602001610200565b61021c61031d36600461483c565b611be0565b61021c610330366004614a8d565b611c37565b600f546001600160a01b0316610297565b61021c610354366004614a8d565b611c92565b61021c61036736600461483c565b611ced565b61021c61037a36600461496a565b611d2b565b6102ff61038d36600461483c565b61219a565b6102426103a036600461483c565b5f9081526001602052604090206006015490565b61021c6103c236600461496a565b612207565b61021c6103d5366004614b79565b61261a565b61021c6103e836600461483c565b613ce0565b601654610242565b61021c61040336600461483c565b613d1e565b610410613d5c565b6040516102009190614cde565b61021c61042b366004614a8d565b613f9d565b601454610242565b610242610446366004614e2d565b613ff8565b61021c61045936600461483c565b61417b565b6015546001600160a01b0316610297565b60605f61047b600c5490565b90505f60015b8281116104b6576104918161219a565b156104a457816104a081614e6e565b9250505b806104ae81614e6e565b915050610481565b505f8167ffffffffffffffff8111156104d1576104d161486c565b60405190808252806020026020018201604052801561050a57816020015b6104f76142d3565b8152602001906001900390816104ef5790505b5090505f60015b8481116107a6576105218161219a565b15610794575f8181526001602081815260409283902083516102c08101855281548152928101546001600160a01b039081168484015260028201548486015260038201548116606085015260048201548116608085015260058201541660a0840152600681015460c0840152600781015460e084015260088101546101008401526009810154610120840152600a810154610140840152600b810154610160840152600c810154610180840152600d81018054855181850281018501909652808652939491936101a086019383018282801561062457602002820191905f5260205f20905b81546001600160a01b03168152600190910190602001808311610606575b50505050508152602001600e820180548060200260200160405190810160405280929190818152602001828054801561067a57602002820191905f5260205f20905b815481526020019060010190808311610666575b5050509183525050600f8201546001600160a01b03908116602083015260108301541660408201526011820154606082015260128201546080820152601382015460a082015260148201805460c0909201916106d590614e86565b80601f016020809104026020016040519081016040528092919081815260200182805461070190614e86565b801561074c5780601f106107235761010080835404028352916020019161074c565b820191905f5260205f20905b81548152906001019060200180831161072f57829003601f168201915b50505091835250506015919091015460ff161515602090910152835184908490811061077a5761077a614ebe565b6020026020010181905250818061079090614e6e565b9250505b8061079e81614e6e565b915050610511565b5090949350505050565b601754610100900460ff16158080156107d05750601754600160ff909116105b806107ea5750303b1580156107ea575060175460ff166001145b6108525760405162461bcd60e51b815260206004820152602e60248201527f496e697469616c697a61626c653a20636f6e747261637420697320616c72656160448201526d191e481a5b9a5d1a585b1a5e995960921b60648201526084015b60405180910390fd5b6017805460ff191660011790558015610875576017805461ff0019166101001790555b61087d6141b9565b6108856141ea565b63338e28e560e01b5f8181525f8051602061544683398151915260208181527f9cf51610494194e6a7f5a2dbc90d0cf7d5bc08efc150dada0b4e39baa9568bb654604080516004815260248101825292830180516001600160e01b0316909617909552935191937f338e28e5dd3f3db30d27e4835e9ab1908419147dfbab42d89c45be8bab6bca4b936001600160a01b03909116928390610927908490614ed2565b5f604051808303815f865af19150503d805f8114610960576040519150601f19603f3d011682016040523d82523d5f602084013e610965565b606091505b50509050806109b65760405162461bcd60e51b815260206004820152601c60248201527f464e46544d61726b657420696e697469616c697a65206661696c6564000000006044820152606401610849565b8d5f600f015f6101000a8154816001600160a01b0302191690836001600160a01b031602179055508c5f6010015f6101000a8154816001600160a01b0302191690836001600160a01b031602179055508b5f601101819055508a5f60120181905550895f60130181905550885f60140181905550875f6015015f6101000a8154816001600160a01b0302191690836001600160a01b03160217905550865f601601819055508c6001600160a01b03168e6001600160a01b03167f67943b7deab2d258ab7f6d76ab1d494c7241b839198eeb0b5a74f3a4a77a56318e8e8e8e8e8e604051610ad4969594939291909586526020860194909452604085019290925260608401526001600160a01b0316608083015260a082015260c00190565b60405180910390a350505050508015610b27576017805461ff0019169055604051600181527f7f26b83ff96e1f2b6a682f133852f6798a09c465da95921460cefb38474024989060200160405180910390a15b505050505050505050565b610b3a6142d3565b5f82815260016020818152604080842081516102c08101835281548152938101546001600160a01b039081168585015260028201548584015260038201548116606086015260048201548116608086015260058201541660a0850152600681015460c0850152600781015460e085015260088101546101008501526009810154610120850152600a810154610140850152600b810154610160850152600c810154610180850152600d8101805483518186028101860190945280845291936101a08601939290830182828015610c3757602002820191905f5260205f20905b81546001600160a01b03168152600190910190602001808311610c19575b50505050508152602001600e8201805480602002602001604051908101604052809291908181526020018280548015610c8d57602002820191905f5260205f20905b815481526020019060010190808311610c79575b5050509183525050600f8201546001600160a01b03908116602083015260108301541660408201526011820154606082015260128201546080820152601382015460a082015260148201805460c090920191610ce890614e86565b80601f0160208091040260200160405190810160405280929190818152602001828054610d1490614e86565b8015610d5f5780601f10610d3657610100808354040283529160200191610d5f565b820191905f5260205f20905b815481529060010190602001808311610d4257829003601f168201915b50505091835250506015919091015460ff1615156020909101529392505050565b8051825114610da15760405162461bcd60e51b815260040161084990614eed565b5f805160206154468339815191525f5b8351811015611535575f848281518110610dcd57610dcd614ebe565b602002602001015190505f848381518110610dea57610dea614ebe565b6020908102919091018101515f84815260029092526040909120549091508215801590610e185750600b5481105b610e345760405162461bcd60e51b815260040161084990614f31565b60ae5460ff1680610e51575060048501546001600160a01b031633145b80610e8c5750600b805433919083908110610e6e57610e6e614ebe565b5f9182526020909120600260119092020101546001600160a01b0316145b610ef65760405162461bcd60e51b815260206004820152603560248201527f4e6f7420617574686f726973656420746f2072656d6f766520746865206d61726044820152746b6574206974656d2066726f6d2070656e64696e6760581b6064820152608401610849565b5f83815260046020526040902054821115610f715760405162461bcd60e51b815260206004820152603560248201527f4d61726b6574206974656d2070656e64696e6720616d6f756e74206c657373206044820152747468616e20616d6f756e7420746f2072656d6f766560581b6064820152608401610849565b5f8381526004602052604081208054849290610f8e908490614f73565b9091555050600b805433919083908110610faa57610faa614ebe565b5f9182526020909120600260119092020101546001600160a01b031603611019575f8381526006602052604081208054849290610fe8908490614f86565b9091555060039050604051838152339085905f805160206154668339815191529060200160405180910390a461106d565b60ae5460ff16611046575f8381526005602052604081208054849290611040908490614f86565b90915550505b6002604051838152339085905f805160206154668339815191529060200160405180910390a45b815f600b01828154811061108357611083614ebe565b905f5260205f20906011020160050154116114f157600b545f906110a990600190614f73565b90505f80600b0182815481106110c1576110c1614ebe565b5f918252602091829020604080516102208101825260119093029091018054835260018101548385015260028101546001600160a01b0390811684840152600382015481166060850152600482015481166080850152600582015460a0850152600682015460c0850152600782015460e085015260088201546101008501526009820154610120850152600a820154610140850152600b820154610160850152600c82015416610180840152600d8101546101a0840152600e81018054835181870281018701909452808452939491936101c0860193928301828280156111cf57602002820191905f5260205f20905b81546001600160a01b031681526001909101906020018083116111b1575b50505050508152602001600f820180548060200260200160405190810160405280929190818152602001828054801561122557602002820191905f5260205f20905b815481526020019060010190808311611211575b5050505050815260200160108201805461123e90614e86565b80601f016020809104026020016040519081016040528092919081815260200182805461126a90614e86565b80156112b55780601f1061128c576101008083540402835291602001916112b5565b820191905f5260205f20905b81548152906001019060200180831161129857829003601f168201915b5050505050815250509050805f600b0184815481106112d6576112d6614ebe565b5f918252602091829020835160119092020190815582820151600182015560408301516002820180546001600160a01b039283166001600160a01b0319918216179091556060850151600384018054918416918316919091179055608085015160048401805491841691831691909117905560a0850151600584015560c0850151600684015560e0850151600784015561010085015160088401556101208501516009840155610140850151600a840155610160850151600b840155610180850151600c840180549190931691161790556101a0830151600d8201556101c0830151805191926113ce92600e8501929091019061439f565b506101e082015180516113eb91600f840191602090910190614402565b5061020082015160108201906114019082614ff9565b505081515f90815260026020526040902084905550600b805480611427576114276150b9565b5f8281526020812060115f1990930192830201818155600181018290556002810180546001600160a01b031990811690915560038201805482169055600482018054821690556005820183905560068201839055600782018390556008820183905560098201839055600a8201839055600b8201839055600c820180549091169055600d8101829055906114be600e83018261443b565b6114cb600f83015f61443b565b6114d8601083015f614456565b5050905550505f8381526002602052604081205561152a565b815f600b01828154811061150757611507614ebe565b905f5260205f2090601102016005015f8282546115249190614f73565b90915550505b505050600101610db1565b50505050565b5f818152602081905260408120546060918167ffffffffffffffff8111156115655761156561486c565b60405190808252806020026020018201604052801561159e57816020015b61158b61448d565b8152602001906001900390816115835790505b5090505f5b8281101561169f575f8581526020819052604081208054839081106115ca576115ca614ebe565b5f9182526020918290206040805161016081018252600a939093029091018054835260018101546001600160a01b03908116948401949094526002810154841691830191909152600381015460608301526004810154831660808301526005810154831660a0830152600681015460c0830152600781015460e083015260088101546101008301526009810154928316610120830152600160a01b90920460ff16151561014082015284519192509084908490811061168b5761168b614ebe565b6020908102919091010152506001016115a3565b509392505050565b60605f6116b3600c5490565b90505f805f5b83811015611753575f5b5f806116d0846001614f86565b815260208101919091526040015f205481101561174a57335f806116f5856001614f86565b81526020019081526020015f20828154811061171357611713614ebe565b5f91825260209091206004600a9092020101546001600160a01b0316036117425761173f600185614f86565b93505b6001016116c3565b506001016116b9565b505f8267ffffffffffffffff81111561176e5761176e61486c565b6040519080825280602002602001820160405280156117a757816020015b61179461448d565b81526020019060019003908161178c5790505b5090505f5b8481101561193f575f5b5f806117c3846001614f86565b815260208101919091526040015f205481101561193657335f806117e8856001614f86565b81526020019081526020015f20828154811061180657611806614ebe565b5f91825260209091206004600a9092020101546001600160a01b03160361192e575f8080611835856001614f86565b81526020019081526020015f20828154811061185357611853614ebe565b5f9182526020918290206040805161016081018252600a939093029091018054835260018101546001600160a01b03908116948401949094526002810154841691830191909152600381015460608301526004810154831660808301526005810154831660a0830152600681015460c0830152600781015460e083015260088101546101008301526009810154928316610120830152600160a01b90920460ff16151561014082015285519192509085908790811061191457611914614ebe565b602090810291909101015261192a600186614f86565b9450505b6001016117b6565b506001016117ac565b50949350505050565b60605f611954600c5490565b90505f805f5b838110156119f4575f5b5f80611971846001614f86565b815260208101919091526040015f20548110156119eb57335f80611996856001614f86565b81526020019081526020015f2082815481106119b4576119b4614ebe565b5f91825260209091206005600a9092020101546001600160a01b0316036119e3576119e0600185614f86565b93505b600101611964565b5060010161195a565b505f8267ffffffffffffffff811115611a0f57611a0f61486c565b604051908082528060200260200182016040528015611a4857816020015b611a3561448d565b815260200190600190039081611a2d5790505b5090505f5b8481101561193f575f5b5f80611a64846001614f86565b815260208101919091526040015f2054811015611bd757335f80611a89856001614f86565b81526020019081526020015f208281548110611aa757611aa7614ebe565b5f91825260209091206005600a9092020101546001600160a01b031603611bcf575f8080611ad6856001614f86565b81526020019081526020015f208281548110611af457611af4614ebe565b5f9182526020918290206040805161016081018252600a939093029091018054835260018101546001600160a01b03908116948401949094526002810154841691830191909152600381015460608301526004810154831660808301526005810154831660a0830152600681015460c0830152600781015460e083015260088101546101008301526009810154928316610120830152600160a01b90920460ff161515610140820152855191925090859087908110611bb557611bb5614ebe565b6020908102919091010152611bcb600186614f86565b9450505b600101611a57565b50600101611a4d565b600f546001600160a01b03163314611c325760405162461bcd60e51b815260206004820152601560248201527421b0b63632b91034b9903737ba102330b139ba34b960591b6044820152606401610849565b601155565b5f80516020615446833981519152600401546001600160a01b03163314611c705760405162461bcd60e51b8152600401610849906150cd565b600f80546001600160a01b0319166001600160a01b0392909216919091179055565b5f80516020615446833981519152600401546001600160a01b03163314611ccb5760405162461bcd60e51b8152600401610849906150cd565b601080546001600160a01b0319166001600160a01b0392909216919091179055565b5f80516020615446833981519152600401546001600160a01b03163314611d265760405162461bcd60e51b8152600401610849906150cd565b601455565b5f805160206154468339815191525f5b8351811015611535575f848281518110611d5757611d57614ebe565b602002602001015190505f848381518110611d7457611d74614ebe565b6020908102919091018101515f848152600190925260408220549092509003611ddf5760405162461bcd60e51b815260206004820152601a60248201527f4d61726b6574206974656d20646f6573206e6f742065786973740000000000006044820152606401610849565b60048401546001600160a01b0316331480611e1257505f828152600160205260409020600301546001600160a01b031633145b611e6a5760405162461bcd60e51b8152602060048201526024808201527f4e6f7420617574686f726973656420746f2072656d6f7665206d61726b6574206044820152636974656d60e01b6064820152608401610849565b5f82815260016020526040902060060154811115611ee05760405162461bcd60e51b815260206004820152602d60248201527f4d61726b6574206974656d20616d6f756e74206c657373207468616e20616d6f60448201526c756e7420746f2072656d6f766560981b6064820152608401610849565b60048401546001600160a01b0316331480611f0b57505f828152600160205260409020600b01544211155b611f625760405162461bcd60e51b815260206004820152602260248201527f4d61726b6574206974656d2063616e63656c2074696d65206861732070617373604482015261195960f21b6064820152608401610849565b5f8281526001602090815260408083206006015460039092528220805491929091611f8e908490614f73565b90915550505f82815260016020526040902060030154336001600160a01b0390911603612012575f8281526001602090815260408083206006015460079092528220805491929091611fe1908490614f86565b9091555060049050604051828152339084905f805160206154668339815191529060200160405180910390a461206b565b5f828152600160209081526040808320600601546008909252822080549192909161203e908490614f86565b9091555060059050604051828152339084905f805160206154668339815191529060200160405180910390a45b5f828152600160205260408120600601805483929061208b908490614f73565b90915550505f828152600160205260408120600601549003612190575f828152600160208190526040822082815590810180546001600160a01b0319908116909155600282018390556003820180548216905560048201805482169055600582018054909116905560068101829055600781018290556008810182905560098101829055600a8101829055600b8101829055600c810182905590612132600d83018261443b565b61213f600e83015f61443b565b600f820180546001600160a01b031990811690915560108301805490911690555f601183018190556012830181905560138301819055612183906014840190614456565b50601501805460ff191690555b5050600101611d3b565b5f8181526001602052604081206015015460ff161580156121cb57505f828152600160205260409020600901544210155b80156121e657505f828152600160205260409020600a015442105b801561220157505f8281526001602052604090206006015415155b92915050565b7facaeaa7a8976fc239c01fbba17c5f5a978e804f83203a3e2074e60cb2f238416545f80516020615446833981519152906001600160a01b0316331461228f5760405162461bcd60e51b815260206004820181905260248201527f4f776e61626c653a2063616c6c6572206973206e6f7420746865206f776e65726044820152606401610849565b81518351146122b05760405162461bcd60e51b815260040161084990614eed565b60ae805460ff191660011790555f5b8351811015612600575f8482815181106122db576122db614ebe565b602002602001015190505f8483815181106122f8576122f8614ebe565b6020908102919091018101515f8481526002909252604090912054600b549192509081106123385760405162461bcd60e51b815260040161084990614f31565b815f600b01828154811061234e5761234e614ebe565b905f5260205f2090601102016005015410156123ca5760405162461bcd60e51b815260206004820152603560248201527f4d61726b6574206974656d2070656e64696e6720616d6f756e74206c657373206044820152741d1a185b88185b5bdd5b9d081d1bc81858d8d95c1d605a1b6064820152608401610849565b5f80600b0182815481106123e0576123e0614ebe565b5f918252602091829020604080516102208101825260119093029091018054835260018101548385015260028101546001600160a01b0390811684840152600382015481166060850152600482015481166080850152600582015460a0850152600682015460c0850152600782015460e085015260088201546101008501526009820154610120850152600a820154610140850152600b820154610160850152600c82015416610180840152600d8101546101a0840152600e81018054835181870281018701909452808452939491936101c0860193928301828280156124ee57602002820191905f5260205f20905b81546001600160a01b031681526001909101906020018083116124d0575b50505050508152602001600f820180548060200260200160405190810160405280929190818152602001828054801561254457602002820191905f5260205f20905b815481526020019060010190808311612530575b5050505050815260200160108201805461255d90614e86565b80601f016020809104026020016040519081016040528092919081815260200182805461258990614e86565b80156125d45780601f106125ab576101008083540402835291602001916125d4565b820191905f5260205f20905b8154815290600101906020018083116125b757829003601f168201915b5050509190925250505060a0810184905290506125f08161261a565b5050600190920191506122bf9050565b5061260b8383610d80565b505060ae805460ff1916905550565b612622614219565b60608101516040516301ffc9a760e01b81526001600160a01b038216906301ffc9a79061265a906380ac58cd60e01b90600401615104565b602060405180830381865afa158015612675573d5f803e3d5ffd5b505050506040513d601f19601f820116820180604052508101906126999190615119565b15801561271557506040516301ffc9a760e01b81526001600160a01b038216906301ffc9a7906126d490636cdb3d1360e11b90600401615104565b602060405180830381865afa1580156126ef573d5f803e3d5ffd5b505050506040513d601f19601f820116820180604052508101906127139190615119565b155b156127df57604051635ca72b2360e01b81523360048201526001600160a01b03821690635ca72b2390602401602060405180830381865afa15801561275c573d5f803e3d5ffd5b505050506040513d601f19601f820116820180604052508101906127809190615119565b15156001146127df5760405162461bcd60e51b815260206004820152602560248201527f4f6e6c7920617070726f76657220616c6c6f776564206f6e206d61726b6574706044820152643630b1b29760d91b6064820152608401610849565b5f80516020615446833981519152600601546080830151604051634536f9c160e11b81526001600160a01b039182166004820152911690638a6df38290602401602060405180830381865afa15801561283a573d5f803e3d5ffd5b505050506040513d601f19601f8201168201806040525081019061285e9190615119565b6128aa5760405162461bcd60e51b815260206004820152601a60248201527f4f6e6c792076616c696420746f6b656e7320616c6c6f7765642e0000000000006044820152606401610849565b5f8260c001511180156128c057505f8260e00151115b80156128d457508160e001518260c0015110155b6129115760405162461bcd60e51b815260206004820152600e60248201526d24b73b30b634b210383934b1b29760911b6044820152606401610849565b4282610100015111158015612930575081610100015182610120015110155b8015612940575081610120015142105b61297c5760405162461bcd60e51b815260206004820152600d60248201526c24b73b30b634b2103a34b6b29760991b6044820152606401610849565b81610140015182610100015111156129e65760405162461bcd60e51b815260206004820152602760248201527f43616e63656c2074696d652063616e6e6f74206265206265666f72652073746160448201526672742074696d6560c81b6064820152608401610849565b81606001516001600160a01b03166301ffc9a76380ac58cd60e01b6040518263ffffffff1660e01b8152600401612a1d9190615104565b602060405180830381865afa158015612a38573d5f803e3d5ffd5b505050506040513d601f19601f82011682018060405250810190612a5c9190615119565b15612aff576060820151602083015160405163020604bf60e21b8152600481019190915230916001600160a01b03169063081812fc90602401602060405180830381865afa158015612ab0573d5f803e3d5ffd5b505050506040513d601f19601f82011682018060405250810190612ad49190615138565b6001600160a01b031614612afa5760405162461bcd60e51b815260040161084990615153565b612f29565b81606001516001600160a01b03166301ffc9a7636cdb3d1360e11b6040518263ffffffff1660e01b8152600401612b369190615104565b602060405180830381865afa158015612b51573d5f803e3d5ffd5b505050506040513d601f19601f82011682018060405250810190612b759190615119565b15612caa57606082015160405163e985e9c560e01b81523360048201523060248201526001600160a01b039091169063e985e9c590604401602060405180830381865afa158015612bc8573d5f803e3d5ffd5b505050506040513d601f19601f82011682018060405250810190612bec9190615119565b80612c8e57505f80516020615446833981519152600401546001600160a01b031633148015612c8e57506060820151604080840151905163e985e9c560e01b81526001600160a01b03918216600482015230602482015291169063e985e9c590604401602060405180830381865afa158015612c6a573d5f803e3d5ffd5b505050506040513d601f19601f82011682018060405250810190612c8e9190615119565b612afa5760405162461bcd60e51b815260040161084990615153565b81606001516001600160a01b03166301ffc9a7634fd0854560e11b6040518263ffffffff1660e01b8152600401612ce19190615104565b602060405180830381865afa158015612cfc573d5f803e3d5ffd5b505050506040513d601f19601f82011682018060405250810190612d209190615119565b15612eeb5760a082015160608301516040516370a0823160e01b81523360048201526001600160a01b03909116906370a0823190602401602060405180830381865afa158015612d72573d5f803e3d5ffd5b505050506040513d601f19601f82011682018060405250810190612d969190615196565b1015612de45760405162461bcd60e51b815260206004820152601b60248201527f4e6f7420656e6f7567682062616c616e636520746f2073656c6c2e00000000006044820152606401610849565b606082015160405163da9f743560e01b815260206004820152600b60248201526a7461726765744e4654282960a81b60448201526001600160a01b039091169063095ea7b390829063da9f743590606401602060405180830381865afa158015612e50573d5f803e3d5ffd5b505050506040513d601f19601f82011682018060405250810190612e749190615138565b60a08501516040516001600160e01b031960e085901b1681526001600160a01b03909216600483015260248201526044016020604051808303815f875af1158015612ec1573d5f803e3d5ffd5b505050506040513d601f19601f82011682018060405250810190612ee59190615119565b50612f29565b60405162461bcd60e51b815260206004820152601360248201527224b73b30b634b2103a37b5b2b7103a3cb8329760691b6044820152606401610849565b60ae5460ff16612f4857612f41600c80546001019055565b3360408301525b5f80516020615446833981519152600401546001600160a01b03163314801590612f8857506012546101608301511080612f8857506013546101a0830151115b1561330857600c54808352336040808501918252600b80545f948552600260209081529285208190556001810182559352845160119093027f0175b7a638427703f0dbe7bb9bbf987a2551717b34e79f33b5b1008d1fa01db98101938455818601517f0175b7a638427703f0dbe7bb9bbf987a2551717b34e79f33b5b1008d1fa01dba82015591517f0175b7a638427703f0dbe7bb9bbf987a2551717b34e79f33b5b1008d1fa01dbb830180546001600160a01b039283166001600160a01b03199182161790915560608701517f0175b7a638427703f0dbe7bb9bbf987a2551717b34e79f33b5b1008d1fa01dbc8501805491841691831691909117905560808701517f0175b7a638427703f0dbe7bb9bbf987a2551717b34e79f33b5b1008d1fa01dbd8501805491841691831691909117905560a08701517f0175b7a638427703f0dbe7bb9bbf987a2551717b34e79f33b5b1008d1fa01dbe85015560c08701517f0175b7a638427703f0dbe7bb9bbf987a2551717b34e79f33b5b1008d1fa01dbf85015560e08701517f0175b7a638427703f0dbe7bb9bbf987a2551717b34e79f33b5b1008d1fa01dc08501556101008701517f0175b7a638427703f0dbe7bb9bbf987a2551717b34e79f33b5b1008d1fa01dc18501556101208701517f0175b7a638427703f0dbe7bb9bbf987a2551717b34e79f33b5b1008d1fa01dc28501556101408701517f0175b7a638427703f0dbe7bb9bbf987a2551717b34e79f33b5b1008d1fa01dc38501556101608701517f0175b7a638427703f0dbe7bb9bbf987a2551717b34e79f33b5b1008d1fa01dc48501556101808701517f0175b7a638427703f0dbe7bb9bbf987a2551717b34e79f33b5b1008d1fa01dc5850180549190931691161790556101a08501517f0175b7a638427703f0dbe7bb9bbf987a2551717b34e79f33b5b1008d1fa01dc68301556101c08501518051869493613278937f0175b7a638427703f0dbe7bb9bbf987a2551717b34e79f33b5b1008d1fa01dc790910192019061439f565b506101e0820151805161329591600f840191602090910190614402565b5061020082015160108201906132ab9082614ff9565b50505060a082015182515f90815260046020526040812080549091906132d2908490614f86565b9091555050815160a083015160405190815260019133915f805160206154668339815191529060200160405180910390a4613cd2565b81606001516001600160a01b03166301ffc9a76380ac58cd60e01b6040518263ffffffff1660e01b815260040161333f9190615104565b602060405180830381865afa15801561335a573d5f803e3d5ffd5b505050506040513d601f19601f8201168201806040525081019061337e9190615119565b80156133b2575060608201516001600160a01b03165f908152600a6020908152604080832082860151845290915290205415155b80156133ec575060608201516001600160a01b03165f908152600a602090815260408083208286015184529091529020546133ec9061219a565b156134395760405162461bcd60e51b815260206004820152601b60248201527f4e465420616c726561647920696e206d61726b6574706c6163652e00000000006044820152606401610849565b81606001516001600160a01b03166301ffc9a76380ac58cd60e01b6040518263ffffffff1660e01b81526004016134709190615104565b602060405180830381865afa15801561348b573d5f803e3d5ffd5b505050506040513d601f19601f820116820180604052508101906134af9190615119565b156134e257600c5460608301516001600160a01b03165f908152600a602090815260408083208287015184529091529020555b60ae5460ff161561351c5760a082015182515f9081526003602052604081208054909190613511908490614f86565b9091555061354e9050565b60a082015160035f61352d600c5490565b81526020019081526020015f205f8282546135489190614f86565b90915550505b81606001516001600160a01b03166301ffc9a76380ac58cd60e01b6040518263ffffffff1660e01b81526004016135859190615104565b602060405180830381865afa1580156135a0573d5f803e3d5ffd5b505050506040513d601f19601f820116820180604052508101906135c49190615119565b80613640575081606001516001600160a01b03166301ffc9a7636cdb3d1360e11b6040518263ffffffff1660e01b81526004016136019190615104565b602060405180830381865afa15801561361c573d5f803e3d5ffd5b505050506040513d601f19601f820116820180604052508101906136409190615119565b1561394057604051806102c0016040528061365c5f600c015490565b815260200183606001516001600160a01b031681526020018360200151815260200183604001516001600160a01b031681526020018361018001516001600160a01b0316815260200183608001516001600160a01b031681526020018360a0015181526020018360c0015181526020018360e0015181526020018361010001518152602001836101200151815260200183610140015181526020018361016001518152602001836101c001518152602001836101e0015181526020015f600f015f9054906101000a90046001600160a01b03166001600160a01b031681526020015f6010015f9054906101000a90046001600160a01b03166001600160a01b031681526020015f6011015481526020018361016001518152602001836101a00151815260200183610200015181526020015f15158152505f6001015f6137a35f600c015490565b815260208082019290925260409081015f2083518155838301516001820180546001600160a01b03199081166001600160a01b0393841617909155928501516002830155606085015160038301805485169183169190911790556080850151600483018054851691831691909117905560a085015160058301805490941691161790915560c0830151600682015560e0830151600782015561010083015160088201556101208301516009820155610140830151600a820155610160830151600b820155610180830151600c8201556101a08301518051919261388e92600d8501929091019061439f565b506101c082015180516138ab91600e840191602090910190614402565b506101e0820151600f820180546001600160a01b039283166001600160a01b031991821617909155610200840151601084018054919093169116179055610220820151601182015561024082015160128201556102608201516013820155610280820151601482019061391e9082614ff9565b506102a091909101516015909101805460ff1916911515919091179055613c31565b604051806102c001604052806139575f600c015490565b815260200183606001516001600160a01b0316815260200183602001518152602001336001600160a01b031681526020018361018001516001600160a01b0316815260200183608001516001600160a01b031681526020018360a0015181526020018360c0015181526020018360e0015181526020018361010001518152602001836101200151815260200183610140015181526020018361016001518152602001836101c001518152602001836101e0015181526020015f600f015f9054906101000a90046001600160a01b03166001600160a01b031681526020015f6010015f9054906101000a90046001600160a01b03166001600160a01b031681526020015f6011015481526020015f6012015481526020015f60130154815260200183610200015181526020015f15158152505f6001015f613a985f600c015490565b815260208082019290925260409081015f2083518155838301516001820180546001600160a01b03199081166001600160a01b0393841617909155928501516002830155606085015160038301805485169183169190911790556080850151600483018054851691831691909117905560a085015160058301805490941691161790915560c0830151600682015560e0830151600782015561010083015160088201556101208301516009820155610140830151600a820155610160830151600b820155610180830151600c8201556101a083015180519192613b8392600d8501929091019061439f565b506101c08201518051613ba091600e840191602090910190614402565b506101e0820151600f820180546001600160a01b039283166001600160a01b0319918216179091556102008401516010840180549190931691161790556102208201516011820155610240820151601282015561026082015160138201556102808201516014820190613c139082614ff9565b506102a091909101516015909101805460ff19169115159190911790555b602082015160608301516001600160a01b0316613c4d600c5490565b7f834869971137310a78789d4e3b6a4ab407fac07368d9b73f7e04fd806398413860015f613c7a600c5490565b81526020019081526020015f20604051613c949190615293565b60405180910390a45f33613ca7600c5490565b5f805160206154668339815191528560a00151604051613cc991815260200190565b60405180910390a45b50613cdd6001601855565b50565b5f80516020615446833981519152600401546001600160a01b03163314613d195760405162461bcd60e51b8152600401610849906150cd565b601655565b5f80516020615446833981519152600401546001600160a01b03163314613d575760405162461bcd60e51b8152600401610849906150cd565b601355565b60605f600b01805480602002602001604051908101604052809291908181526020015f905b82821015613f94575f8481526020908190206040805161022081018252601186029092018054835260018101548385015260028101546001600160a01b0390811684840152600382015481166060850152600482015481166080850152600582015460a0850152600682015460c0850152600782015460e085015260088201546101008501526009820154610120850152600a820154610140850152600b820154610160850152600c82015416610180840152600d8101546101a0840152600e81018054835181870281018701909452808452939491936101c086019392830182828015613e9657602002820191905f5260205f20905b81546001600160a01b03168152600190910190602001808311613e78575b50505050508152602001600f8201805480602002602001604051908101604052809291908181526020018280548015613eec57602002820191905f5260205f20905b815481526020019060010190808311613ed8575b50505050508152602001601082018054613f0590614e86565b80601f0160208091040260200160405190810160405280929190818152602001828054613f3190614e86565b8015613f7c5780601f10613f5357610100808354040283529160200191613f7c565b820191905f5260205f20905b815481529060010190602001808311613f5f57829003601f168201915b50505050508152505081526020019060010190613d81565b50505050905090565b5f80516020615446833981519152600401546001600160a01b03163314613fd65760405162461bcd60e51b8152600401610849906150cd565b601580546001600160a01b0319166001600160a01b0392909216919091179055565b5f8083600681111561400c5761400c614f99565b0361402557505f81815260036020526040902054612201565b600183600681111561403957614039614f99565b0361405257505f81815260046020526040902054612201565b600283600681111561406657614066614f99565b0361407f57505f81815260056020526040902054612201565b600383600681111561409357614093614f99565b036140ac57505f81815260066020526040902054612201565b60048360068111156140c0576140c0614f99565b036140d957505f81815260076020526040902054612201565b60058360068111156140ed576140ed614f99565b0361410657505f81815260086020526040902054612201565b600683600681111561411a5761411a614f99565b0361413357505f81815260096020526040902054612201565b60405162461bcd60e51b815260206004820152601a60248201527f496e76616c6964206d61726b6574206974656d207374617475730000000000006044820152606401610849565b5f80516020615446833981519152600401546001600160a01b031633146141b45760405162461bcd60e51b8152600401610849906150cd565b601255565b601754610100900460ff166141e05760405162461bcd60e51b8152600401610849906153fa565b6141e8614279565b565b601754610100900460ff166142115760405162461bcd60e51b8152600401610849906153fa565b6141e86142a0565b60026018540361426b5760405162461bcd60e51b815260206004820152601f60248201527f5265656e7472616e637947756172643a207265656e7472616e742063616c6c006044820152606401610849565b6002601855565b6001601855565b601754610100900460ff166142725760405162461bcd60e51b8152600401610849906153fa565b601754610100900460ff166142c75760405162461bcd60e51b8152600401610849906153fa565b607c805460ff19169055565b604051806102c001604052805f81526020015f6001600160a01b031681526020015f81526020015f6001600160a01b031681526020015f6001600160a01b031681526020015f6001600160a01b031681526020015f81526020015f81526020015f81526020015f81526020015f81526020015f81526020015f815260200160608152602001606081526020015f6001600160a01b031681526020015f6001600160a01b031681526020015f81526020015f81526020015f8152602001606081526020015f151581525090565b828054828255905f5260205f209081019282156143f2579160200282015b828111156143f257825182546001600160a01b0319166001600160a01b039091161782556020909201916001909101906143bd565b506143fe9291506144e8565b5090565b828054828255905f5260205f209081019282156143f2579160200282015b828111156143f2578251825591602001919060010190614420565b5080545f8255905f5260205f2090810190613cdd91906144e8565b50805461446290614e86565b5f825580601f10614471575050565b601f0160209004905f5260205f2090810190613cdd91906144e8565b60408051610160810182525f80825260208201819052918101829052606081018290526080810182905260a0810182905260c0810182905260e081018290526101008101829052610120810182905261014081019190915290565b5b808211156143fe575f81556001016144e9565b5f815180845260208085019450602084015f5b838110156145345781516001600160a01b03168752958201959082019060010161450f565b509495945050505050565b5f815180845260208085019450602084015f5b8381101561453457815187529582019590820190600101614552565b5f5b83811015614588578181015183820152602001614570565b50505f910152565b5f81518084526145a781602086016020860161456e565b601f01601f19169290920160200192915050565b5f6102c08251845260208301516145dd60208601826001600160a01b03169052565b5060408301516040850152606083015161460260608601826001600160a01b03169052565b50608083015161461d60808601826001600160a01b03169052565b5060a083015161463860a08601826001600160a01b03169052565b5060c0838101519085015260e08084015190850152610100808401519085015261012080840151908501526101408084015190850152610160808401519085015261018080840151908501526101a08084015181860183905261469d838701826144fc565b925050506101c080840151858303828701526146b9838261453f565b925050506101e0808401516146d8828701826001600160a01b03169052565b5050610200838101516001600160a01b03169085015261022080840151908501526102408084015190850152610260808401519085015261028080840151858303828701526147278382614590565b925050506102a0808401516107a68287018215159052565b5f60208083016020845280855180835260408601915060408160051b8701019250602087015f5b8281101561479457603f198886030184526147828583516145bb565b94509285019290850190600101614766565b5092979650505050505050565b6001600160a01b0381168114613cdd575f80fd5b80356147c0816147a1565b919050565b5f805f805f805f80610100898b0312156147dd575f80fd5b88356147e8816147a1565b975060208901356147f8816147a1565b965060408901359550606089013594506080890135935060a0890135925060c0890135614824816147a1565b8092505060e089013590509295985092959890939650565b5f6020828403121561484c575f80fd5b5035919050565b602081525f61486560208301846145bb565b9392505050565b634e487b7160e01b5f52604160045260245ffd5b604051610220810167ffffffffffffffff811182821017156148a4576148a461486c565b60405290565b604051601f8201601f1916810167ffffffffffffffff811182821017156148d3576148d361486c565b604052919050565b5f67ffffffffffffffff8211156148f4576148f461486c565b5060051b60200190565b5f82601f83011261490d575f80fd5b8135602061492261491d836148db565b6148aa565b8083825260208201915060208460051b870101935086841115614943575f80fd5b602086015b8481101561495f5780358352918301918301614948565b509695505050505050565b5f806040838503121561497b575f80fd5b823567ffffffffffffffff80821115614992575f80fd5b61499e868387016148fe565b935060208501359150808211156149b3575f80fd5b506149c0858286016148fe565b9150509250929050565b602080825282518282018190525f919060409081850190868401855b82811015614a8057815180518552868101516001600160a01b0390811688870152868201518116878701526060808301519087015260808083015182169087015260a08083015182169087015260c0808301519087015260e08083015190870152610100808301519087015261012080830151909116908601526101409081015115159085015261016090930192908501906001016149e6565b5091979650505050505050565b5f60208284031215614a9d575f80fd5b8135614865816147a1565b5f82601f830112614ab7575f80fd5b81356020614ac761491d836148db565b8083825260208201915060208460051b870101935086841115614ae8575f80fd5b602086015b8481101561495f578035614b00816147a1565b8352918301918301614aed565b5f82601f830112614b1c575f80fd5b813567ffffffffffffffff811115614b3657614b3661486c565b614b49601f8201601f19166020016148aa565b818152846020838601011115614b5d575f80fd5b816020850160208301375f918101602001919091529392505050565b5f60208284031215614b89575f80fd5b813567ffffffffffffffff80821115614ba0575f80fd5b908301906102208286031215614bb4575f80fd5b614bbc614880565b8235815260208301356020820152614bd6604084016147b5565b6040820152614be7606084016147b5565b6060820152614bf8608084016147b5565b608082015260a0838101359082015260c0808401359082015260e080840135908201526101008084013590820152610120808401359082015261014080840135908201526101608084013590820152610180614c558185016147b5565b908201526101a083810135908201526101c08084013583811115614c77575f80fd5b614c8388828701614aa8565b8284015250506101e08084013583811115614c9c575f80fd5b614ca8888287016148fe565b8284015250506102008084013583811115614cc1575f80fd5b614ccd88828701614b0d565b918301919091525095945050505050565b5f60208083018184528085518083526040925060408601915060408160051b8701018488015f5b83811015614e1f57603f198984030185528151805184528781015188850152868101516001600160a01b039081168886015260608083015182169086015260808083015182169086015260a0808301519086015260c0808301519086015260e08083015190860152610100808301519086015261012080830151908601526101408083015190860152610160808301519086015261018080830151909116908501526101a080820151908501526101c0808201516102208287018190529190614dd0838801826144fc565b925050506101e08083015186830382880152614dec838261453f565b925050506102008083015192508582038187015250614e0b8183614590565b968901969450505090860190600101614d05565b509098975050505050505050565b5f8060408385031215614e3e575f80fd5b823560078110614e4c575f80fd5b946020939093013593505050565b634e487b7160e01b5f52601160045260245ffd5b5f60018201614e7f57614e7f614e5a565b5060010190565b600181811c90821680614e9a57607f821691505b602082108103614eb857634e487b7160e01b5f52602260045260245ffd5b50919050565b634e487b7160e01b5f52603260045260245ffd5b5f8251614ee381846020870161456e565b9190910192915050565b60208082526024908201527f4974656d2049447320616e6420616d6f756e7473206c656e677468206d69736d6040820152630c2e8c6d60e31b606082015260800190565b60208082526022908201527f50656e64696e67206d61726b6574206974656d20646f6573206e6f74206578696040820152611cdd60f21b606082015260800190565b8181038181111561220157612201614e5a565b8082018082111561220157612201614e5a565b634e487b7160e01b5f52602160045260245ffd5b601f821115614ff457805f5260205f20601f840160051c81016020851015614fd25750805b601f840160051c820191505b81811015614ff1575f8155600101614fde565b50505b505050565b815167ffffffffffffffff8111156150135761501361486c565b615027816150218454614e86565b84614fad565b602080601f83116001811461505a575f84156150435750858301515b5f19600386901b1c1916600185901b1785556150b1565b5f85815260208120601f198616915b8281101561508857888601518255948401946001909101908401615069565b50858210156150a557878501515f19600388901b60f8161c191681555b505060018460011b0185555b505050505050565b634e487b7160e01b5f52603160045260245ffd5b60208082526017908201527f43616c6c6572206973206e6f7420746865206f776e6572000000000000000000604082015260600190565b6001600160e01b031991909116815260200190565b5f60208284031215615129575f80fd5b81518015158114614865575f80fd5b5f60208284031215615148575f80fd5b8151614865816147a1565b60208082526023908201527f4e4654206f776e657220686173206e6f7420617070726f76656420746f20736560408201526236361760e91b606082015260800190565b5f602082840312156151a6575f80fd5b5051919050565b5f815480845260208085019450835f5260205f205f5b838110156145345781546001600160a01b0316875295820195600191820191016151c3565b5f815480845260208085019450835f5260205f205f5b83811015614534578154875295820195600191820191016151fe565b5f815461522681614e86565b808552602060018381168015615243576001811461525d57615288565b60ff1985168884015283151560051b880183019550615288565b865f52825f205f5b858110156152805781548a8201860152908301908401615265565b890184019650505b505050505092915050565b60208152815460208201525f6152b360018401546001600160a01b031690565b6001600160a01b039081166040840152600284015460608401526003840154811660808401526004840154811660a084015260058401541660c0830152600683015460e0830152600783015461010083015260088301546101208301526009830154610140830152600a830154610160830152600b830154610180830152600c8301546101a08301526102c06101c083018190526153586102e08401600d86016151ad565b601f1980858303016101e086015261537382600e88016151e8565b9150615389600f8701546001600160a01b031690565b6001600160a01b03908116610200870152601087015416610220860152601186015461024086015260128601546102608601526013860154610280860152848203016102a08501526153de816014870161521a565b90506153ee601586015460ff1690565b8015158584015261193f565b6020808252602b908201527f496e697469616c697a61626c653a20636f6e7472616374206973206e6f74206960408201526a6e697469616c697a696e6760a81b60608201526080019056feacaeaa7a8976fc239c01fbba17c5f5a978e804f83203a3e2074e60cb2f2384122b568e9fbc88f404b8e635de878706fa53a17b75edbde77b21f9c0b6ee9a2073a26469706673582212203509e044c47b3922412a39493d19c888823ae3907259daa4085d216cfa2b1e1964736f6c63430008190033",
  "linkReferences": {},
  "deployedLinkReferences": {}
}