{
  "_format": "hh-sol-artifact-1",
  "contractName": "TipERC721",
  "sourceName": "contracts/micropayments/TipERC721.sol",
  "abi": [
    {
      "anonymous": false,
      "inputs": [
        {
          "indexed": true,
          "internalType": "address",
          "name": "owner",
          "type": "address"
        },
        {
          "indexed": true,
          "internalType": "address",
          "name": "approved",
          "type": "address"
        },
        {
          "indexed": true,
          "internalType": "uint256",
          "name": "tokenId",
          "type": "uint256"
        }
      ],
      "name": "Approval",
      "type": "event"
    },
    {
      "anonymous": false,
      "inputs": [
        {
          "indexed": true,
          "internalType": "address",
          "name": "owner",
          "type": "address"
        },
        {
          "indexed": true,
          "internalType": "address",
          "name": "operator",
          "type": "address"
        },
        {
          "indexed": false,
          "internalType": "bool",
          "name": "approved",
          "type": "bool"
        }
      ],
      "name": "ApprovalForAll",
      "type": "event"
    },
    {
      "anonymous": false,
      "inputs": [
        {
          "indexed": false,
          "internalType": "uint256",
          "name": "_fromTokenId",
          "type": "uint256"
        },
        {
          "indexed": false,
          "internalType": "uint256",
          "name": "_toTokenId",
          "type": "uint256"
        }
      ],
      "name": "BatchMetadataUpdate",
      "type": "event"
    },
    {
      "anonymous": false,
      "inputs": [
        {
          "indexed": false,
          "internalType": "uint8",
          "name": "version",
          "type": "uint8"
        }
      ],
      "name": "Initialized",
      "type": "event"
    },
    {
      "anonymous": false,
      "inputs": [
        {
          "indexed": false,
          "internalType": "uint256",
          "name": "_tokenId",
          "type": "uint256"
        }
      ],
      "name": "MetadataUpdate",
      "type": "event"
    },
    {
      "anonymous": false,
      "inputs": [
        {
          "indexed": true,
          "internalType": "address",
          "name": "previousOwner",
          "type": "address"
        },
        {
          "indexed": true,
          "internalType": "address",
          "name": "newOwner",
          "type": "address"
        }
      ],
      "name": "OwnershipTransferred",
      "type": "event"
    },
    {
      "anonymous": false,
      "inputs": [
        {
          "indexed": false,
          "internalType": "address",
          "name": "account",
          "type": "address"
        }
      ],
      "name": "Paused",
      "type": "event"
    },
    {
      "anonymous": false,
      "inputs": [
        {
          "indexed": true,
          "internalType": "bytes32",
          "name": "role",
          "type": "bytes32"
        },
        {
          "indexed": true,
          "internalType": "bytes32",
          "name": "previousAdminRole",
          "type": "bytes32"
        },
        {
          "indexed": true,
          "internalType": "bytes32",
          "name": "newAdminRole",
          "type": "bytes32"
        }
      ],
      "name": "RoleAdminChanged",
      "type": "event"
    },
    {
      "anonymous": false,
      "inputs": [
        {
          "indexed": true,
          "internalType": "bytes32",
          "name": "role",
          "type": "bytes32"
        },
        {
          "indexed": true,
          "internalType": "address",
          "name": "account",
          "type": "address"
        },
        {
          "indexed": true,
          "internalType": "address",
          "name": "sender",
          "type": "address"
        }
      ],
      "name": "RoleGranted",
      "type": "event"
    },
    {
      "anonymous": false,
      "inputs": [
        {
          "indexed": true,
          "internalType": "bytes32",
          "name": "role",
          "type": "bytes32"
        },
        {
          "indexed": true,
          "internalType": "address",
          "name": "account",
          "type": "address"
        },
        {
          "indexed": true,
          "internalType": "address",
          "name": "sender",
          "type": "address"
        }
      ],
      "name": "RoleRevoked",
      "type": "event"
    },
    {
      "anonymous": false,
      "inputs": [
        {
          "indexed": true,
          "internalType": "address",
          "name": "from",
          "type": "address"
        },
        {
          "indexed": true,
          "internalType": "address",
          "name": "to",
          "type": "address"
        },
        {
          "indexed": true,
          "internalType": "uint256",
          "name": "tokenId",
          "type": "uint256"
        }
      ],
      "name": "Transfer",
      "type": "event"
    },
    {
      "anonymous": false,
      "inputs": [
        {
          "indexed": false,
          "internalType": "address",
          "name": "account",
          "type": "address"
        }
      ],
      "name": "Unpaused",
      "type": "event"
    },
    {
      "inputs": [],
      "name": "DEFAULT_ADMIN_ROLE",
      "outputs": [
        {
          "internalType": "bytes32",
          "name": "",
          "type": "bytes32"
        }
      ],
      "stateMutability": "view",
      "type": "function"
    },
    {
      "inputs": [],
      "name": "MINTER_ROLE",
      "outputs": [
        {
          "internalType": "bytes32",
          "name": "",
          "type": "bytes32"
        }
      ],
      "stateMutability": "view",
      "type": "function"
    },
    {
      "inputs": [],
      "name": "URI_SETTER_ROLE",
      "outputs": [
        {
          "internalType": "bytes32",
          "name": "",
          "type": "bytes32"
        }
      ],
      "stateMutability": "view",
      "type": "function"
    },
    {
      "inputs": [
        {
          "internalType": "address",
          "name": "fnftToken",
          "type": "address"
        },
        {
          "internalType": "uint256",
          "name": "payback_",
          "type": "uint256"
        }
      ],
      "name": "addFNFTTokenPayback",
      "outputs": [],
      "stateMutability": "nonpayable",
      "type": "function"
    },
    {
      "inputs": [
        {
          "internalType": "uint256",
          "name": "playlistId",
          "type": "uint256"
        },
        {
          "internalType": "address",
          "name": "_contractAddress",
          "type": "address"
        },
        {
          "internalType": "uint256",
          "name": "_tokenId",
          "type": "uint256"
        }
      ],
      "name": "addNFT",
      "outputs": [],
      "stateMutability": "nonpayable",
      "type": "function"
    },
    {
      "inputs": [
        {
          "internalType": "uint256",
          "name": "playlistId",
          "type": "uint256"
        },
        {
          "internalType": "address[]",
          "name": "_contractAddresses",
          "type": "address[]"
        },
        {
          "internalType": "uint256[]",
          "name": "_tokenIds",
          "type": "uint256[]"
        }
      ],
      "name": "addNFTs",
      "outputs": [],
      "stateMutability": "nonpayable",
      "type": "function"
    },
    {
      "inputs": [
        {
          "internalType": "address",
          "name": "to",
          "type": "address"
        },
        {
          "internalType": "uint256",
          "name": "tokenId",
          "type": "uint256"
        }
      ],
      "name": "approve",
      "outputs": [],
      "stateMutability": "nonpayable",
      "type": "function"
    },
    {
      "inputs": [
        {
          "internalType": "address",
          "name": "owner",
          "type": "address"
        }
      ],
      "name": "balanceOf",
      "outputs": [
        {
          "internalType": "uint256",
          "name": "",
          "type": "uint256"
        }
      ],
      "stateMutability": "view",
      "type": "function"
    },
    {
      "inputs": [
        {
          "internalType": "uint256",
          "name": "tokenId",
          "type": "uint256"
        }
      ],
      "name": "burn",
      "outputs": [],
      "stateMutability": "nonpayable",
      "type": "function"
    },
    {
      "inputs": [
        {
          "internalType": "uint256",
          "name": "playlistId",
          "type": "uint256"
        },
        {
          "internalType": "address",
          "name": "_contractAddress",
          "type": "address"
        },
        {
          "internalType": "uint256",
          "name": "_tokenId",
          "type": "uint256"
        }
      ],
      "name": "deleteNFT",
      "outputs": [],
      "stateMutability": "nonpayable",
      "type": "function"
    },
    {
      "inputs": [
        {
          "internalType": "uint256",
          "name": "playlistId",
          "type": "uint256"
        },
        {
          "internalType": "address[]",
          "name": "_contractAddresses",
          "type": "address[]"
        },
        {
          "internalType": "uint256[]",
          "name": "_tokenIds",
          "type": "uint256[]"
        }
      ],
      "name": "deleteNFTs",
      "outputs": [],
      "stateMutability": "nonpayable",
      "type": "function"
    },
    {
      "inputs": [],
      "name": "fnftTokens",
      "outputs": [
        {
          "internalType": "address[]",
          "name": "",
          "type": "address[]"
        }
      ],
      "stateMutability": "view",
      "type": "function"
    },
    {
      "inputs": [
        {
          "internalType": "uint256",
          "name": "tokenId",
          "type": "uint256"
        }
      ],
      "name": "getApproved",
      "outputs": [
        {
          "internalType": "address",
          "name": "",
          "type": "address"
        }
      ],
      "stateMutability": "view",
      "type": "function"
    },
    {
      "inputs": [
        {
          "internalType": "uint256",
          "name": "playlistId",
          "type": "uint256"
        }
      ],
      "name": "getPlaylist",
      "outputs": [
        {
          "components": [
            {
              "internalType": "address",
              "name": "contractAddress",
              "type": "address"
            },
            {
              "internalType": "uint256",
              "name": "tokenId",
              "type": "uint256"
            }
          ],
          "internalType": "struct NFTPlaylist.NFT[]",
          "name": "",
          "type": "tuple[]"
        }
      ],
      "stateMutability": "view",
      "type": "function"
    },
    {
      "inputs": [
        {
          "internalType": "uint256",
          "name": "playlistId",
          "type": "uint256"
        }
      ],
      "name": "getPlaylistCount",
      "outputs": [
        {
          "internalType": "uint256",
          "name": "",
          "type": "uint256"
        }
      ],
      "stateMutability": "view",
      "type": "function"
    },
    {
      "inputs": [
        {
          "internalType": "bytes32",
          "name": "role",
          "type": "bytes32"
        }
      ],
      "name": "getRoleAdmin",
      "outputs": [
        {
          "internalType": "bytes32",
          "name": "",
          "type": "bytes32"
        }
      ],
      "stateMutability": "view",
      "type": "function"
    },
    {
      "inputs": [
        {
          "internalType": "uint256",
          "name": "tokenId",
          "type": "uint256"
        }
      ],
      "name": "getScoreAverage",
      "outputs": [
        {
          "internalType": "uint256",
          "name": "",
          "type": "uint256"
        }
      ],
      "stateMutability": "view",
      "type": "function"
    },
    {
      "inputs": [
        {
          "internalType": "uint256",
          "name": "tokenId",
          "type": "uint256"
        }
      ],
      "name": "getScoreCount",
      "outputs": [
        {
          "internalType": "uint256",
          "name": "",
          "type": "uint256"
        }
      ],
      "stateMutability": "view",
      "type": "function"
    },
    {
      "inputs": [
        {
          "internalType": "bytes32",
          "name": "role",
          "type": "bytes32"
        },
        {
          "internalType": "address",
          "name": "account",
          "type": "address"
        }
      ],
      "name": "grantRole",
      "outputs": [],
      "stateMutability": "nonpayable",
      "type": "function"
    },
    {
      "inputs": [
        {
          "internalType": "bytes32",
          "name": "role",
          "type": "bytes32"
        },
        {
          "internalType": "address",
          "name": "account",
          "type": "address"
        }
      ],
      "name": "hasRole",
      "outputs": [
        {
          "internalType": "bool",
          "name": "",
          "type": "bool"
        }
      ],
      "stateMutability": "view",
      "type": "function"
    },
    {
      "inputs": [
        {
          "internalType": "string",
          "name": "name_",
          "type": "string"
        },
        {
          "internalType": "string",
          "name": "symbol_",
          "type": "string"
        }
      ],
      "name": "initialize",
      "outputs": [],
      "stateMutability": "nonpayable",
      "type": "function"
    },
    {
      "inputs": [
        {
          "internalType": "address",
          "name": "owner",
          "type": "address"
        },
        {
          "internalType": "address",
          "name": "operator",
          "type": "address"
        }
      ],
      "name": "isApprovedForAll",
      "outputs": [
        {
          "internalType": "bool",
          "name": "",
          "type": "bool"
        }
      ],
      "stateMutability": "view",
      "type": "function"
    },
    {
      "inputs": [],
      "name": "name",
      "outputs": [
        {
          "internalType": "string",
          "name": "",
          "type": "string"
        }
      ],
      "stateMutability": "view",
      "type": "function"
    },
    {
      "inputs": [],
      "name": "owner",
      "outputs": [
        {
          "internalType": "address",
          "name": "",
          "type": "address"
        }
      ],
      "stateMutability": "view",
      "type": "function"
    },
    {
      "inputs": [
        {
          "internalType": "uint256",
          "name": "tokenId",
          "type": "uint256"
        }
      ],
      "name": "ownerOf",
      "outputs": [
        {
          "internalType": "address",
          "name": "",
          "type": "address"
        }
      ],
      "stateMutability": "view",
      "type": "function"
    },
    {
      "inputs": [],
      "name": "paused",
      "outputs": [
        {
          "internalType": "bool",
          "name": "",
          "type": "bool"
        }
      ],
      "stateMutability": "view",
      "type": "function"
    },
    {
      "inputs": [
        {
          "internalType": "address",
          "name": "fnftToken",
          "type": "address"
        }
      ],
      "name": "payback",
      "outputs": [
        {
          "internalType": "uint256",
          "name": "",
          "type": "uint256"
        }
      ],
      "stateMutability": "view",
      "type": "function"
    },
    {
      "inputs": [
        {
          "internalType": "uint256",
          "name": "",
          "type": "uint256"
        },
        {
          "internalType": "address",
          "name": "",
          "type": "address"
        },
        {
          "internalType": "uint256",
          "name": "",
          "type": "uint256"
        }
      ],
      "name": "playlistNFTs",
      "outputs": [
        {
          "internalType": "bool",
          "name": "",
          "type": "bool"
        }
      ],
      "stateMutability": "view",
      "type": "function"
    },
    {
      "inputs": [
        {
          "internalType": "uint256",
          "name": "",
          "type": "uint256"
        },
        {
          "internalType": "uint256",
          "name": "",
          "type": "uint256"
        }
      ],
      "name": "playlists",
      "outputs": [
        {
          "internalType": "address",
          "name": "contractAddress",
          "type": "address"
        },
        {
          "internalType": "uint256",
          "name": "tokenId",
          "type": "uint256"
        }
      ],
      "stateMutability": "view",
      "type": "function"
    },
    {
      "inputs": [
        {
          "internalType": "address",
          "name": "fnftToken",
          "type": "address"
        },
        {
          "internalType": "uint256",
          "name": "payback_",
          "type": "uint256"
        }
      ],
      "name": "removeFNFTTokenPayback",
      "outputs": [],
      "stateMutability": "nonpayable",
      "type": "function"
    },
    {
      "inputs": [],
      "name": "renounceOwnership",
      "outputs": [],
      "stateMutability": "nonpayable",
      "type": "function"
    },
    {
      "inputs": [
        {
          "internalType": "bytes32",
          "name": "role",
          "type": "bytes32"
        },
        {
          "internalType": "address",
          "name": "account",
          "type": "address"
        }
      ],
      "name": "renounceRole",
      "outputs": [],
      "stateMutability": "nonpayable",
      "type": "function"
    },
    {
      "inputs": [
        {
          "internalType": "bytes32",
          "name": "role",
          "type": "bytes32"
        },
        {
          "internalType": "address",
          "name": "account",
          "type": "address"
        }
      ],
      "name": "revokeRole",
      "outputs": [],
      "stateMutability": "nonpayable",
      "type": "function"
    },
    {
      "inputs": [
        {
          "internalType": "address",
          "name": "to",
          "type": "address"
        },
        {
          "internalType": "string",
          "name": "uri",
          "type": "string"
        }
      ],
      "name": "safeMint",
      "outputs": [],
      "stateMutability": "nonpayable",
      "type": "function"
    },
    {
      "inputs": [
        {
          "internalType": "address",
          "name": "from",
          "type": "address"
        },
        {
          "internalType": "address",
          "name": "to",
          "type": "address"
        },
        {
          "internalType": "uint256",
          "name": "tokenId",
          "type": "uint256"
        }
      ],
      "name": "safeTransferFrom",
      "outputs": [],
      "stateMutability": "nonpayable",
      "type": "function"
    },
    {
      "inputs": [
        {
          "internalType": "address",
          "name": "from",
          "type": "address"
        },
        {
          "internalType": "address",
          "name": "to",
          "type": "address"
        },
        {
          "internalType": "uint256",
          "name": "tokenId",
          "type": "uint256"
        },
        {
          "internalType": "bytes",
          "name": "data",
          "type": "bytes"
        }
      ],
      "name": "safeTransferFrom",
      "outputs": [],
      "stateMutability": "nonpayable",
      "type": "function"
    },
    {
      "inputs": [
        {
          "internalType": "address",
          "name": "operator",
          "type": "address"
        },
        {
          "internalType": "bool",
          "name": "approved",
          "type": "bool"
        }
      ],
      "name": "setApprovalForAll",
      "outputs": [],
      "stateMutability": "nonpayable",
      "type": "function"
    },
    {
      "inputs": [
        {
          "internalType": "address[]",
          "name": "operators",
          "type": "address[]"
        },
        {
          "internalType": "uint256",
          "name": "id",
          "type": "uint256"
        },
        {
          "internalType": "bool",
          "name": "approved",
          "type": "bool"
        }
      ],
      "name": "setApprovalsForAll",
      "outputs": [],
      "stateMutability": "nonpayable",
      "type": "function"
    },
    {
      "inputs": [
        {
          "internalType": "uint256",
          "name": "tokenId",
          "type": "uint256"
        },
        {
          "internalType": "uint8",
          "name": "score",
          "type": "uint8"
        }
      ],
      "name": "setScore",
      "outputs": [],
      "stateMutability": "nonpayable",
      "type": "function"
    },
    {
      "inputs": [
        {
          "internalType": "bytes4",
          "name": "interfaceId",
          "type": "bytes4"
        }
      ],
      "name": "supportsInterface",
      "outputs": [
        {
          "internalType": "bool",
          "name": "",
          "type": "bool"
        }
      ],
      "stateMutability": "view",
      "type": "function"
    },
    {
      "inputs": [],
      "name": "symbol",
      "outputs": [
        {
          "internalType": "string",
          "name": "",
          "type": "string"
        }
      ],
      "stateMutability": "view",
      "type": "function"
    },
    {
      "inputs": [
        {
          "internalType": "uint256",
          "name": "tokenId",
          "type": "uint256"
        }
      ],
      "name": "tokenURI",
      "outputs": [
        {
          "internalType": "string",
          "name": "",
          "type": "string"
        }
      ],
      "stateMutability": "view",
      "type": "function"
    },
    {
      "inputs": [
        {
          "internalType": "address",
          "name": "from",
          "type": "address"
        },
        {
          "internalType": "address",
          "name": "to",
          "type": "address"
        },
        {
          "internalType": "uint256",
          "name": "tokenId",
          "type": "uint256"
        }
      ],
      "name": "transferFrom",
      "outputs": [],
      "stateMutability": "nonpayable",
      "type": "function"
    },
    {
      "inputs": [
        {
          "internalType": "address",
          "name": "newOwner",
          "type": "address"
        }
      ],
      "name": "transferOwnership",
      "outputs": [],
      "stateMutability": "nonpayable",
      "type": "function"
    }
  ],
  "bytecode": "0x6080604052348015600e575f80fd5b50613ac38061001c5f395ff3fe608060405234801561000f575f80fd5b506004361061026b575f3560e01c8063734570ca1161014b578063af50c82f116100bf578063d539139311610084578063d5391393146105f8578063d547741f1461061f578063d733ddc314610632578063e985e9c514610645578063f2fde38b14610680578063f324796f14610693575f80fd5b8063af50c82f1461058c578063b88d4fde1461059f578063bc47bcfa146105b2578063c87b56dd146105d2578063d204c45e146105e5575f80fd5b806395b258691161011057806395b258691461053157806395d89b41146105445780639dfceb281461054c578063a217fddf1461055f578063a22cb46514610566578063aacf4af814610579575f80fd5b8063734570ca146104be5780637f345710146104d15780638b40eb53146104f85780638da5cb5b1461050d57806391d148541461051e575f80fd5b806336568abe116101e2578063523b7dd1116101a7578063523b7dd11461041e5780635c975abb146104525780636352211e1461045e57806368d619901461047157806370a08231146104a3578063715018a6146104b6575f80fd5b806336568abe146103bf5780633f87cef2146103d257806342842e0e146103e557806342966c68146103f85780634cd88b761461040b575f80fd5b806323b872dd1161023357806323b872dd1461031a578063248a9ca31461032d5780632b9169dd146103505780632f2ff15d1461037057806333f572f41461038357806334044ea914610396575f80fd5b806301ffc9a71461026f57806306fdde0314610297578063081812fc146102ac578063095ea7b3146102d7578063197f64bf146102ec575b5f80fd5b61028261027d366004612ea1565b6106a6565b60405190151581526020015b60405180910390f35b61029f6106d1565b60405161028e9190612f09565b6102bf6102ba366004612f1b565b610761565b6040516001600160a01b03909116815260200161028e565b6102ea6102e5366004612f46565b610786565b005b61030c6102fa366004612f1b565b5f9081526101c3602052604090205490565b60405190815260200161028e565b6102ea610328366004612f70565b61089f565b61030c61033b366004612f1b565b5f90815261015f602052604090206001015490565b61036361035e366004612f1b565b6108d0565b60405161028e9190612fae565b6102ea61037e366004613005565b610955565b6102ea610391366004613033565b61097a565b61030c6103a4366004613057565b6001600160a01b03165f9081526101c6602052604090205490565b6102ea6103cd366004613005565b610bcd565b6102ea6103e036600461314f565b610c4b565b6102ea6103f3366004612f70565b610d42565b6102ea610406366004612f1b565b610d5c565b6102ea61041936600461327e565b610d68565b61028261042c366004613033565b6101c460209081525f938452604080852082529284528284209052825290205460ff1681565b61012d5460ff16610282565b6102bf61046c366004612f1b565b610f0c565b61048461047f3660046132de565b610f6b565b604080516001600160a01b03909316835260208301919091520161028e565b61030c6104b1366004613057565b610fae565b6102ea611032565b6102ea6104cc36600461314f565b611045565b61030c7f7804d923f43a17d325d77e781528e0793b2edd9890ab45fc64efd7b4b427744c81565b610500611136565b60405161028e91906132fe565b60fb546001600160a01b03166102bf565b61028261052c366004613005565b611196565b6102ea61053f366004613033565b6111c1565b61029f6112c9565b6102ea61055a366004612f46565b6112d8565b61030c5f81565b6102ea61057436600461335e565b6114a1565b61030c610587366004612f1b565b6114ac565b6102ea61059a366004612f46565b611538565b6102ea6105ad366004613391565b6115ff565b61030c6105c0366004612f1b565b5f9081526101c9602052604090205490565b61029f6105e0366004612f1b565b611631565b6102ea6105f336600461340c565b61163c565b61030c7f9f2df0fed2c77648de5860a4cc508cd0818c85b8b8a1ab4ceeef8d981c8956a681565b6102ea61062d366004613005565b6116ab565b6102ea61064036600461344f565b6116d0565b6102826106533660046134a2565b6001600160a01b039182165f908152606a6020908152604080832093909416825291909152205460ff1690565b6102ea61068e366004613057565b6118cd565b6102ea6106a13660046134ce565b611943565b5f6106b082611b49565b806106cb57506001600160e01b03198216638de886fd60e01b145b92915050565b6060606580546106e0906134f6565b80601f016020809104026020016040519081016040528092919081815260200182805461070c906134f6565b80156107575780601f1061072e57610100808354040283529160200191610757565b820191905f5260205f20905b81548152906001019060200180831161073a57829003601f168201915b5050505050905090565b5f61076b82611b6d565b505f908152606960205260409020546001600160a01b031690565b5f61079082610f0c565b9050806001600160a01b0316836001600160a01b0316036108025760405162461bcd60e51b815260206004820152602160248201527f4552433732313a20617070726f76616c20746f2063757272656e74206f776e656044820152603960f91b60648201526084015b60405180910390fd5b336001600160a01b038216148061081e575061081e8133610653565b6108905760405162461bcd60e51b815260206004820152603d60248201527f4552433732313a20617070726f76652063616c6c6572206973206e6f7420746f60448201527f6b656e206f776e6572206f7220617070726f76656420666f7220616c6c00000060648201526084016107f9565b61089a8383611bcb565b505050565b6108a93382611c38565b6108c55760405162461bcd60e51b81526004016107f99061352e565b61089a838383611cb5565b60606101c35f8381526020019081526020015f20805480602002602001604051908101604052809291908181526020015f905b8282101561094a575f848152602090819020604080518082019091526002850290910180546001600160a01b03168252600190810154828401529083529092019101610903565b505050509050919050565b5f82815261015f602052604090206001015461097081611e17565b61089a8383611e21565b5f8381526101c4602090815260408083206001600160a01b0386168452825280832084845290915290205460ff166109ea5760405162461bcd60e51b8152602060048201526013602482015272139195081b9bdd081a5b881c1b185e5b1a5cdd606a1b60448201526064016107f9565b5f805b5f8581526101c36020526040902054811015610a9a575f8581526101c36020526040902080546001600160a01b038616919083908110610a2f57610a2f61357b565b5f9182526020909120600290910201546001600160a01b0316148015610a8557505f8581526101c360205260409020805484919083908110610a7357610a7361357b565b905f5260205f20906002020160010154145b15610a9257809150610a9a565b6001016109ed565b505f8481526101c36020526040902054610ab6906001906135a3565b811015610b50575f8481526101c3602052604090208054610ad9906001906135a3565b81548110610ae957610ae961357b565b905f5260205f2090600202016101c35f8681526020019081526020015f208281548110610b1857610b1861357b565b5f9182526020909120825460029092020180546001600160a01b0319166001600160a01b039092169190911781556001918201549101555b5f8481526101c360205260409020805480610b6d57610b6d6135b6565b5f828152602080822060025f199094019384020180546001600160a01b0319168155600101829055919092559481526101c4855260408082206001600160a01b039590951682529385528381209281529190935220805460ff1916905550565b6001600160a01b0381163314610c3d5760405162461bcd60e51b815260206004820152602f60248201527f416363657373436f6e74726f6c3a2063616e206f6e6c792072656e6f756e636560448201526e103937b632b9903337b91039b2b63360891b60648201526084016107f9565b610c478282611ea7565b5050565b8051825114610c9c5760405162461bcd60e51b815260206004820181905260248201527f417272617973206d7573742068617665207468652073616d65206c656e67746860448201526064016107f9565b5f825111610cec5760405162461bcd60e51b815260206004820152601c60248201527f417272617973206d7573742068617665206c656e67746873203e20300000000060448201526064016107f9565b5f5b8251811015610d3c57610d3484848381518110610d0d57610d0d61357b565b6020026020010151848481518110610d2757610d2761357b565b60200260200101516111c1565b600101610cee565b50505050565b61089a83838360405180602001604052805f8152506115ff565b610d6581611f0e565b50565b5f54610100900460ff1615808015610d8657505f54600160ff909116105b80610d9f5750303b158015610d9f57505f5460ff166001145b610e025760405162461bcd60e51b815260206004820152602e60248201527f496e697469616c697a61626c653a20636f6e747261637420697320616c72656160448201526d191e481a5b9a5d1a585b1a5e995960921b60648201526084016107f9565b5f805460ff191660011790558015610e23575f805461ff0019166101001790555b610e2d8383611f17565b610e35611f47565b610e3d611f75565b610e45611f9b565b610e4d611f75565b610e55611fc9565b610e5d611f75565b610e65611f75565b610e6f5f33611ff7565b610e997f7804d923f43a17d325d77e781528e0793b2edd9890ab45fc64efd7b4b427744c33611ff7565b610ec37f9f2df0fed2c77648de5860a4cc508cd0818c85b8b8a1ab4ceeef8d981c8956a633611ff7565b801561089a575f805461ff0019169055604051600181527f7f26b83ff96e1f2b6a682f133852f6798a09c465da95921460cefb38474024989060200160405180910390a1505050565b5f818152606760205260408120546001600160a01b0316806106cb5760405162461bcd60e51b8152602060048201526018602482015277115490cdcc8c4e881a5b9d985b1a59081d1bdad95b88125160421b60448201526064016107f9565b6101c3602052815f5260405f208181548110610f85575f80fd5b5f918252602090912060029091020180546001909101546001600160a01b039091169250905082565b5f6001600160a01b0382166110175760405162461bcd60e51b815260206004820152602960248201527f4552433732313a2061646472657373207a65726f206973206e6f7420612076616044820152683634b21037bbb732b960b91b60648201526084016107f9565b506001600160a01b03165f9081526068602052604090205490565b61103a612001565b6110435f61205b565b565b80518251146110965760405162461bcd60e51b815260206004820181905260248201527f417272617973206d7573742068617665207468652073616d65206c656e67746860448201526064016107f9565b5f8251116110e65760405162461bcd60e51b815260206004820152601c60248201527f417272617973206d7573742068617665206c656e67746873203e20300000000060448201526064016107f9565b5f5b8251811015610d3c5761112e848483815181106111075761110761357b565b60200260200101518484815181106111215761112161357b565b602002602001015161097a565b6001016110e8565b60606101c580548060200260200160405190810160405280929190818152602001828054801561075757602002820191905f5260205f20905b81546001600160a01b0316815260019091019060200180831161116f575050505050905090565b5f91825261015f602090815260408084206001600160a01b0393909316845291905290205460ff1690565b5f8381526101c4602090815260408083206001600160a01b0386168452825280832084845290915290205460ff161561123c5760405162461bcd60e51b815260206004820152601760248201527f4e465420616c726561647920696e20706c61796c69737400000000000000000060448201526064016107f9565b5f8381526101c360209081526040808320815180830183526001600160a01b039687168082528185018781528354600180820186559488528688209351600290910290930180546001600160a01b031916939099169290921788559051968201969096559583526101c482528083209483529381528382209282529190915220805460ff19169091179055565b6060606680546106e0906134f6565b5f81116113275760405162461bcd60e51b815260206004820152601e60248201527f5061796261636b206d7573742062652067726561746572207468616e2030000060448201526064016107f9565b611349604051806060016040528060218152602001613a3d60219139836120ac565b61136e6040518060600160405280603181526020016139da603191396101c5546120f1565b6113a86040518060600160405280603381526020016139a7603391396001600160a01b0384165f9081526101c660205260409020546120f1565b6001600160a01b0382165f9081526101c660205260408120549003611413576101c580546001810182555f919091527f818f40e4590a6f2c3ec1caee0533b9960911937d8dd67c8f1447b1392a84f2530180546001600160a01b0319166001600160a01b0384161790555b611438604051806060016040528060308152602001613a5e603091396101c5546120f1565b6001600160a01b0382165f9081526101c66020526040812080548392906114609084906135ca565b92505081905550610c47604051806060016040528060328152602001613a0b603291396001600160a01b0384165f9081526101c660205260409020546120f1565b610c47338383612136565b5f8181526101c960205260408120546115125760405162461bcd60e51b815260206004820152602260248201527f4e6f2073636f72657320617661696c61626c6520666f72207468697320746f6b60448201526132b760f11b60648201526084016107f9565b5f8281526101c960209081526040808320546101c8909252909120546106cb91906135dd565b6001600160a01b0382165f9081526101c660205260409020548111156115aa5760405162461bcd60e51b815260206004820152602160248201527f5061796261636b206d7573742072656d61696e207a65726f206f72206d6f72656044820152601760f91b60648201526084016107f9565b6001600160a01b0382165f9081526101c66020526040812080548392906115d29084906135a3565b90915550506001600160a01b0382165f9081526101c660205260408120549003610c4757610c4782612203565b6116093383611c38565b6116255760405162461bcd60e51b81526004016107f99061352e565b610d3c84848484612363565b60606106cb82612396565b61164b6101ca80546001019055565b5f6116566101ca5490565b90506116976040518060400160405280601e81526020017f5469704552433732313a20736166654d696e7420746f6b656e4964203d200000815250826120f1565b6116a18382612498565b61089a81836124b1565b5f82815261015f60205260409020600101546116c681611e17565b61089a8383611ea7565b6040516331a9108f60e11b8152600481018390523090636352211e90602401602060405180830381865afa15801561170a573d5f803e3d5ffd5b505050506040513d601f19601f8201168201806040525081019061172e91906135fc565b6001600160a01b0316336001600160a01b0316146117995760405162461bcd60e51b815260206004820152602260248201527f43616c6c6572206973206e6f7420746865206f776e6572206f6620746865204e604482015261119560f21b60648201526084016107f9565b5f5b8351811015610d3c575f306001600160a01b03168583815181106117c1576117c161357b565b60209081029190910101516040516001600160a01b039091166024820152841515604482015260640160408051601f198184030181529181526020820180516001600160e01b031663a22cb46560e01b1790525161181f9190613617565b5f60405180830381855af49150503d805f8114611857576040519150601f19603f3d011682016040523d82523d5f602084013e61185c565b606091505b50509050806118c45760405162461bcd60e51b815260206004820152602e60248201527f556e61626c6520746f20617070726f766520616c6c20676976656e207469707460448201526d6f6b656e20636f6e74726163747360901b60648201526084016107f9565b5060010161179b565b6118d5612001565b6001600160a01b03811661193a5760405162461bcd60e51b815260206004820152602660248201527f4f776e61626c653a206e6577206f776e657220697320746865207a65726f206160448201526564647265737360d01b60648201526084016107f9565b610d658161205b565b5f828152606760205260409020546001600160a01b03166119bb5760405162461bcd60e51b815260206004820152602c60248201527f4552433732314d657461646174613a2055524920736574206f66206e6f6e657860448201526b34b9ba32b73a103a37b5b2b760a11b60648201526084016107f9565b335f9081526101c76020908152604080832085845290915290205460ff1615611a1a5760405162461bcd60e51b815260206004820152601160248201527014d8dbdc9948185b1c9958591e481cd95d607a1b60448201526064016107f9565b60018160ff1610158015611a32575060058160ff1611155b611a7e5760405162461bcd60e51b815260206004820152601d60248201527f53636f7265206d757374206265206265747765656e203120616e64203500000060448201526064016107f9565b33611a8883610f0c565b6001600160a01b031603611ade5760405162461bcd60e51b815260206004820181905260248201527f4f776e65722063616e6e6f742073636f7265207468656972206f776e204e465460448201526064016107f9565b335f9081526101c7602090815260408083208584528252808320805460ff191660ff86169081179091556101c89092528220805491929091611b219084906135ca565b90915550505f8281526101c960205260408120805491611b4083613632565b91905055505050565b5f6001600160e01b03198216637965db0b60e01b14806106cb57506106cb8261257a565b5f818152606760205260409020546001600160a01b0316610d655760405162461bcd60e51b8152602060048201526018602482015277115490cdcc8c4e881a5b9d985b1a59081d1bdad95b88125160421b60448201526064016107f9565b5f81815260696020526040902080546001600160a01b0319166001600160a01b0384169081179091558190611bff82610f0c565b6001600160a01b03167f8c5be1e5ebec7d5bd14f71427d1e84f3dd0314c0f7b2291e5b200ac8c7c3b92560405160405180910390a45050565b5f80611c4383610f0c565b9050806001600160a01b0316846001600160a01b03161480611c8957506001600160a01b038082165f908152606a602090815260408083209388168352929052205460ff165b80611cad5750836001600160a01b0316611ca284610761565b6001600160a01b0316145b949350505050565b826001600160a01b0316611cc882610f0c565b6001600160a01b031614611cee5760405162461bcd60e51b81526004016107f99061364a565b6001600160a01b038216611d505760405162461bcd60e51b8152602060048201526024808201527f4552433732313a207472616e7366657220746f20746865207a65726f206164646044820152637265737360e01b60648201526084016107f9565b826001600160a01b0316611d6382610f0c565b6001600160a01b031614611d895760405162461bcd60e51b81526004016107f99061364a565b5f81815260696020908152604080832080546001600160a01b03199081169091556001600160a01b038781168086526068855283862080545f1901905590871680865283862080546001019055868652606790945282852080549092168417909155905184937fddf252ad1be2c89b69c2b068fc378daa952ba7f163c4a11628f55a4df523b3ef91a4505050565b610d65813361259e565b611e2b8282611196565b610c47575f82815261015f602090815260408083206001600160a01b03851684529091529020805460ff19166001179055611e633390565b6001600160a01b0316816001600160a01b0316837f2f8788117e7eff1d82e926ec794901d17c78024a50270940304540a733656f0d60405160405180910390a45050565b611eb18282611196565b15610c47575f82815261015f602090815260408083206001600160a01b0385168085529252808320805460ff1916905551339285917ff6391f5c32d9c69d2a47ea670b442974b53935d1edc7fd64eb21e047a839171b9190a45050565b610d65816125f7565b5f54610100900460ff16611f3d5760405162461bcd60e51b81526004016107f99061368f565b610c478282612635565b5f54610100900460ff16611f6d5760405162461bcd60e51b81526004016107f99061368f565b611043612674565b5f54610100900460ff166110435760405162461bcd60e51b81526004016107f99061368f565b5f54610100900460ff16611fc15760405162461bcd60e51b81526004016107f99061368f565b6110436126a1565b5f54610100900460ff16611fef5760405162461bcd60e51b81526004016107f99061368f565b6110436126d0565b610c478282611e21565b60fb546001600160a01b031633146110435760405162461bcd60e51b815260206004820181905260248201527f4f776e61626c653a2063616c6c6572206973206e6f7420746865206f776e657260448201526064016107f9565b60fb80546001600160a01b038381166001600160a01b0319831681179093556040519116919082907f8be0079c531659141344cd1fd0a4f28419497f9722a3daafe3b4186f6b6457e0905f90a35050565b610c4782826040516024016120c29291906136da565b60408051601f198184030181529190526020810180516001600160e01b031663319af33360e01b179052612703565b610c478282604051602401612107929190613703565b60408051601f198184030181529190526020810180516001600160e01b0316632d839cb360e21b179052612703565b816001600160a01b0316836001600160a01b0316036121975760405162461bcd60e51b815260206004820152601960248201527f4552433732313a20617070726f766520746f2063616c6c65720000000000000060448201526064016107f9565b6001600160a01b038381165f818152606a6020908152604080832094871680845294825291829020805460ff191686151590811790915591519182527f17307eab39ab6107e8899845ad3d59bd9653f200f220920489ca2b5937696c31910160405180910390a3505050565b6001600160a01b0381165f9081526101c66020526040902054156122695760405162461bcd60e51b815260206004820152601f60248201527f43616e6e6f742072656d6f7665206e6f6e2d7a65726f207061796261636b2e0060448201526064016107f9565b5f5b6101c554811015610c4757816001600160a01b03166101c582815481106122945761229461357b565b5f918252602090912001546001600160a01b03160361235b576101c580546122be906001906135a3565b815481106122ce576122ce61357b565b5f918252602090912001546101c580546001600160a01b0390921691839081106122fa576122fa61357b565b905f5260205f20015f6101000a8154816001600160a01b0302191690836001600160a01b031602179055506101c5805480612337576123376135b6565b5f8281526020902081015f1990810180546001600160a01b03191690550190555050565b60010161226b565b61236e848484611cb5565b61237a8484848461270c565b610d3c5760405162461bcd60e51b81526004016107f990613724565b60606123a182611b6d565b5f82815260976020526040812080546123b9906134f6565b80601f01602080910402602001604051908101604052809291908181526020018280546123e5906134f6565b80156124305780601f1061240757610100808354040283529160200191612430565b820191905f5260205f20905b81548152906001019060200180831161241357829003601f168201915b505050505090505f61244c60408051602081019091525f815290565b905080515f0361245d575092915050565b81511561248f578082604051602001612477929190613776565b60405160208183030381529060405292505050919050565b611cad84612809565b610c47828260405180602001604052805f815250612879565b5f828152606760205260409020546001600160a01b031661252b5760405162461bcd60e51b815260206004820152602e60248201527f45524337323155524953746f726167653a2055524920736574206f66206e6f6e60448201526d32bc34b9ba32b73a103a37b5b2b760911b60648201526084016107f9565b5f82815260976020526040902061254282826137ef565b506040518281527ff8e1a15aba9398e019f0b49df1a4fde98ee17ae345cb5f6b5e2c27f5033e8ce79060200160405180910390a15050565b5f6001600160e01b03198216632483248360e11b14806106cb57506106cb826128ab565b6125a88282611196565b610c47576125b5816128fa565b6125c083602061290c565b6040516020016125d19291906138af565b60408051601f198184030181529082905262461bcd60e51b82526107f991600401612f09565b61260081612aa2565b5f8181526097602052604090208054612618906134f6565b159050610d65575f818152609760205260408120610d6591612e42565b5f54610100900460ff1661265b5760405162461bcd60e51b81526004016107f99061368f565b606561266783826137ef565b50606661089a82826137ef565b5f54610100900460ff1661269a5760405162461bcd60e51b81526004016107f99061368f565b600160c955565b5f54610100900460ff166126c75760405162461bcd60e51b81526004016107f99061368f565b6110433361205b565b5f54610100900460ff166126f65760405162461bcd60e51b81526004016107f99061368f565b61012d805460ff19169055565b610d6581612b34565b5f6001600160a01b0384163b156127fe57604051630a85bd0160e11b81526001600160a01b0385169063150b7a029061274f903390899088908890600401613923565b6020604051808303815f875af1925050508015612789575060408051601f3d908101601f191682019092526127869181019061395f565b60015b6127e4573d8080156127b6576040519150601f19603f3d011682016040523d82523d5f602084013e6127bb565b606091505b5080515f036127dc5760405162461bcd60e51b81526004016107f990613724565b805181602001fd5b6001600160e01b031916630a85bd0160e11b149050611cad565b506001949350505050565b606061281482611b6d565b5f61282960408051602081019091525f815290565b90505f8151116128475760405180602001604052805f815250612872565b8061285184612b53565b604051602001612862929190613776565b6040516020818303038152906040525b9392505050565b6128838383612be3565b61288f5f84848461270c565b61089a5760405162461bcd60e51b81526004016107f990613724565b5f6001600160e01b031982166380ac58cd60e01b14806128db57506001600160e01b03198216635b5e139f60e01b145b806106cb57506301ffc9a760e01b6001600160e01b03198316146106cb565b60606106cb6001600160a01b03831660145b60605f61291a83600261397a565b6129259060026135ca565b67ffffffffffffffff81111561293d5761293d613072565b6040519080825280601f01601f191660200182016040528015612967576020820181803683370190505b509050600360fc1b815f815181106129815761298161357b565b60200101906001600160f81b03191690815f1a905350600f60fb1b816001815181106129af576129af61357b565b60200101906001600160f81b03191690815f1a9053505f6129d184600261397a565b6129dc9060016135ca565b90505b6001811115612a53576f181899199a1a9b1b9c1cb0b131b232b360811b85600f1660108110612a1057612a1061357b565b1a60f81b828281518110612a2657612a2661357b565b60200101906001600160f81b03191690815f1a90535060049490941c93612a4c81613991565b90506129df565b5083156128725760405162461bcd60e51b815260206004820181905260248201527f537472696e67733a20686578206c656e67746820696e73756666696369656e7460448201526064016107f9565b5f612aac82610f0c565b9050612ab782610f0c565b5f83815260696020908152604080832080546001600160a01b03199081169091556001600160a01b0385168085526068845282852080545f190190558785526067909352818420805490911690555192935084927fddf252ad1be2c89b69c2b068fc378daa952ba7f163c4a11628f55a4df523b3ef908390a45050565b5f6a636f6e736f6c652e6c6f6790505f80835160208501845afa505050565b60605f612b5f83612d6b565b60010190505f8167ffffffffffffffff811115612b7e57612b7e613072565b6040519080825280601f01601f191660200182016040528015612ba8576020820181803683370190505b5090508181016020015b5f19016f181899199a1a9b1b9c1cb0b131b232b360811b600a86061a8153600a8504945084612bb257509392505050565b6001600160a01b038216612c395760405162461bcd60e51b815260206004820181905260248201527f4552433732313a206d696e7420746f20746865207a65726f206164647265737360448201526064016107f9565b5f818152606760205260409020546001600160a01b031615612c9d5760405162461bcd60e51b815260206004820152601c60248201527f4552433732313a20746f6b656e20616c7265616479206d696e7465640000000060448201526064016107f9565b5f818152606760205260409020546001600160a01b031615612d015760405162461bcd60e51b815260206004820152601c60248201527f4552433732313a20746f6b656e20616c7265616479206d696e7465640000000060448201526064016107f9565b6001600160a01b0382165f81815260686020908152604080832080546001019055848352606790915280822080546001600160a01b0319168417905551839291907fddf252ad1be2c89b69c2b068fc378daa952ba7f163c4a11628f55a4df523b3ef908290a45050565b5f8072184f03e93ff9f4daa797ed6e38ed64bf6a1f0160401b8310612da95772184f03e93ff9f4daa797ed6e38ed64bf6a1f0160401b830492506040015b6d04ee2d6d415b85acef81000000008310612dd5576d04ee2d6d415b85acef8100000000830492506020015b662386f26fc100008310612df357662386f26fc10000830492506010015b6305f5e1008310612e0b576305f5e100830492506008015b6127108310612e1f57612710830492506004015b60648310612e31576064830492506002015b600a83106106cb5760010192915050565b508054612e4e906134f6565b5f825580601f10612e5d575050565b601f0160209004905f5260205f2090810190610d6591905b80821115612e88575f8155600101612e75565b5090565b6001600160e01b031981168114610d65575f80fd5b5f60208284031215612eb1575f80fd5b813561287281612e8c565b5f5b83811015612ed6578181015183820152602001612ebe565b50505f910152565b5f8151808452612ef5816020860160208601612ebc565b601f01601f19169290920160200192915050565b602081525f6128726020830184612ede565b5f60208284031215612f2b575f80fd5b5035919050565b6001600160a01b0381168114610d65575f80fd5b5f8060408385031215612f57575f80fd5b8235612f6281612f32565b946020939093013593505050565b5f805f60608486031215612f82575f80fd5b8335612f8d81612f32565b92506020840135612f9d81612f32565b929592945050506040919091013590565b602080825282518282018190525f919060409081850190868401855b82811015612ff857815180516001600160a01b03168552860151868501529284019290850190600101612fca565b5091979650505050505050565b5f8060408385031215613016575f80fd5b82359150602083013561302881612f32565b809150509250929050565b5f805f60608486031215613045575f80fd5b833592506020840135612f9d81612f32565b5f60208284031215613067575f80fd5b813561287281612f32565b634e487b7160e01b5f52604160045260245ffd5b604051601f8201601f1916810167ffffffffffffffff811182821017156130af576130af613072565b604052919050565b5f67ffffffffffffffff8211156130d0576130d0613072565b5060051b60200190565b5f82601f8301126130e9575f80fd5b813560206130fe6130f9836130b7565b613086565b8083825260208201915060208460051b87010193508684111561311f575f80fd5b602086015b8481101561314457803561313781612f32565b8352918301918301613124565b509695505050505050565b5f805f60608486031215613161575f80fd5b8335925060208085013567ffffffffffffffff80821115613180575f80fd5b61318c888389016130da565b945060408701359150808211156131a1575f80fd5b508501601f810187136131b2575f80fd5b80356131c06130f9826130b7565b81815260059190911b820183019083810190898311156131de575f80fd5b928401925b828410156131fc578335825292840192908401906131e3565b80955050505050509250925092565b5f67ffffffffffffffff83111561322457613224613072565b613237601f8401601f1916602001613086565b905082815283838301111561324a575f80fd5b828260208301375f602084830101529392505050565b5f82601f83011261326f575f80fd5b6128728383356020850161320b565b5f806040838503121561328f575f80fd5b823567ffffffffffffffff808211156132a6575f80fd5b6132b286838701613260565b935060208501359150808211156132c7575f80fd5b506132d485828601613260565b9150509250929050565b5f80604083850312156132ef575f80fd5b50508035926020909101359150565b602080825282518282018190525f9190848201906040850190845b8181101561333e5783516001600160a01b031683529284019291840191600101613319565b50909695505050505050565b80358015158114613359575f80fd5b919050565b5f806040838503121561336f575f80fd5b823561337a81612f32565b91506133886020840161334a565b90509250929050565b5f805f80608085870312156133a4575f80fd5b84356133af81612f32565b935060208501356133bf81612f32565b925060408501359150606085013567ffffffffffffffff8111156133e1575f80fd5b8501601f810187136133f1575f80fd5b6134008782356020840161320b565b91505092959194509250565b5f806040838503121561341d575f80fd5b823561342881612f32565b9150602083013567ffffffffffffffff811115613443575f80fd5b6132d485828601613260565b5f805f60608486031215613461575f80fd5b833567ffffffffffffffff811115613477575f80fd5b613483868287016130da565b935050602084013591506134996040850161334a565b90509250925092565b5f80604083850312156134b3575f80fd5b82356134be81612f32565b9150602083013561302881612f32565b5f80604083850312156134df575f80fd5b82359150602083013560ff81168114613028575f80fd5b600181811c9082168061350a57607f821691505b60208210810361352857634e487b7160e01b5f52602260045260245ffd5b50919050565b6020808252602d908201527f4552433732313a2063616c6c6572206973206e6f7420746f6b656e206f776e6560408201526c1c881bdc88185c1c1c9bdd9959609a1b606082015260800190565b634e487b7160e01b5f52603260045260245ffd5b634e487b7160e01b5f52601160045260245ffd5b818103818111156106cb576106cb61358f565b634e487b7160e01b5f52603160045260245ffd5b808201808211156106cb576106cb61358f565b5f826135f757634e487b7160e01b5f52601260045260245ffd5b500490565b5f6020828403121561360c575f80fd5b815161287281612f32565b5f8251613628818460208701612ebc565b9190910192915050565b5f600182016136435761364361358f565b5060010190565b60208082526025908201527f4552433732313a207472616e736665722066726f6d20696e636f72726563742060408201526437bbb732b960d91b606082015260800190565b6020808252602b908201527f496e697469616c697a61626c653a20636f6e7472616374206973206e6f74206960408201526a6e697469616c697a696e6760a81b606082015260800190565b604081525f6136ec6040830185612ede565b905060018060a01b03831660208301529392505050565b604081525f6137156040830185612ede565b90508260208301529392505050565b60208082526032908201527f4552433732313a207472616e7366657220746f206e6f6e20455243373231526560408201527131b2b4bb32b91034b6b83632b6b2b73a32b960711b606082015260800190565b5f8351613787818460208801612ebc565b83519083019061379b818360208801612ebc565b01949350505050565b601f82111561089a57805f5260205f20601f840160051c810160208510156137c95750805b601f840160051c820191505b818110156137e8575f81556001016137d5565b5050505050565b815167ffffffffffffffff81111561380957613809613072565b61381d8161381784546134f6565b846137a4565b602080601f831160018114613850575f84156138395750858301515b5f19600386901b1c1916600185901b1785556138a7565b5f85815260208120601f198616915b8281101561387e5788860151825594840194600190910190840161385f565b508582101561389b57878501515f19600388901b60f8161c191681555b505060018460011b0185555b505050505050565b7f416363657373436f6e74726f6c3a206163636f756e742000000000000000000081525f83516138e6816017850160208801612ebc565b7001034b99036b4b9b9b4b733903937b6329607d1b6017918401918201528351613917816028840160208801612ebc565b01602801949350505050565b6001600160a01b03858116825284166020820152604081018390526080606082018190525f9061395590830184612ede565b9695505050505050565b5f6020828403121561396f575f80fd5b815161287281612e8c565b80820281158282048414176106cb576106cb61358f565b5f8161399f5761399f61358f565b505f19019056fe616464464e4654546f6b656e5061796261636b3a206265666f7265205f7061796261636b735b666e6674546f6b656e5d203d20616464464e4654546f6b656e5061796261636b3a206265666f7265205f666e6674546f6b656e732e6c656e677468203d20616464464e4654546f6b656e5061796261636b3a206166746572205f7061796261636b735b666e6674546f6b656e5d203d20616464464e4654546f6b656e5061796261636b3a20666e6674546f6b656e203d20616464464e4654546f6b656e5061796261636b3a206166746572205f666e6674546f6b656e732e6c656e677468203d20a264697066735822122077226b5860842066f14b62a6ddc97bbca63daee1b7d557c020b593d3b4f5113c64736f6c63430008190033",
  "linkReferences": {},
  "deployedLinkReferences": {}
}